:020000040001F9
:10600000E83E0020156101002F61010071AE010022
:106010000000000000000000000000000000000080
:1060200000000000000000000000000033610100DB
:106030000000000000000000356101003761010030
:106040003961010039610100451C0200396101001C
:106050003961010000000000F99B01003961010075
:106060003961010039610100E11B02003961010061
:1060700039610100396101003961010039610100B4
:10608000396101002DEF0100396101003961010022
:10609000FB01020005020200310202003961010029
:1060A00039610100396101000000000000000000BA
:1060B00000000000000000000000000000000000E0
:1060C0000348854600F0F6F800480047CDA20200DC
:1060D000E83E0020401E00BF00BF00BF00BF00BF61
:1060E00000BF00BF00BF00BF00BF00BF00BFF1D1B5
:1060F00070470000401E00BF00BF00BF00BF00BFD0
:1061000000BF00BF00BF00BF00BF00BF00BFF1D194
:10611000704700000321094802680A4302600848EA
:1061200002680A4302600748804707480047FEE7C5
:10613000FEE7FEE7FEE7FEE7FEE70000240500407D
:1061400054050040A91B0200C160010030B50B4698
:10615000014600202022012409E00D46D5409D4241
:1061600005D31D469540491B2546954040191546C7
:10617000521E002DF1DC30BD70B5002425460028EC
:1061800001DA01244042002901DA01254942FFF7E2
:10619000DDFFAC4200D04042002C00D0494270BD2F
:1061A000F0B51FB40646002082B005464024019198
:1061B00000901BE0019922460F46304600F068F837
:1061C000049A059B801A994110D31046194622461D
:1061D00000F016F8361A8F4101972246012000215F
:1061E000009F00F00DF838184D4100902046641EC5
:1061F0000028DFDC019B00982946324607B0F0BD3D
:1062000010B5202A04DB0146203A9140002010BD41
:10621000914020239C1A0346E3401943904010BD4F
:1062200003460B439B0703D009E008C9121F08C0AF
:10623000042AFAD203E00B78491C0370401C521E5A
:10624000F9D27047D2B201E00270401C491EFBD265
:1062500070470022F6E710B513460A460446194671
:10626000FFF7F0FF204610BD421C0178401C0029BA
:10627000FBD1801A704730B504460020034600E089
:106280005B1C934203D2E05CCD5C401BF8D030BD78
:1062900010B5202A04DB0846203AD040002110BD6A
:1062A0000B46D340D0402024A21A914008431946FF
:1062B00010BD0000064C0125064E05E02046E368AF
:1062C00007C82B4398471034B442F7D3FFF7FCFEBE
:1062D000402503006025030070B58C180578401C2C
:1062E0006B075B0F01D10378401C2A1106D102789D
:1062F000401C03E00678401C0E70491C5B1EF9D15F
:106300002B0705D40023521E0DD40B70491CFAE74D
:106310000378401CCB1A921C03E01D785B1C0D70A7
:10632000491C521EF9D5A142D8D3002070BD00B53A
:106330000146422940D00EDC0A46303A13000CF0E8
:10634000A1FD12232527292B2D2F3133354949490A
:1063500049494949384962292DD00CDC452934D0B6
:1063600004DC43292BD0442934D12BE046292FD0FB
:1063700061292FD11CE0632920D0642921D065290F
:1063800022D0662926D122E0002025E0012023E04A
:10639000022021E003201FE004201DE005201BE077
:1063A000062019E0072017E0082015E0092013E077
:1063B00000BF0A2010E000BF0B200DE000BF0C2042
:1063C0000AE000BF0D2007E000BF0E2004E000BF80
:1063D0000F2001E0FF2000BF00BF00BD02468A423F
:1063E00002DD501AC0B27047881AC0B2FBE70246FD
:1063F0008A4202DD501A80B27047881A80B2FBE7E9
:10640000FEB5012000900125454840780290029891
:10641000012800D0FEBD43480078012800D0F9E7EC
:1064200041480078002803D140480078C00900D0D6
:10643000F0E73B488678C778007801900198411EC4
:1064400000988840C0B2009039480088C005C00E4E
:1064500063D100245FE02846A040C5B2E0002118C7
:106460003048401C405C012852D1E00021182D48E2
:10647000401C08188078B0424AD1E0002118294811
:10648000401C08184078B84242D1E0002118254845
:10649000401C0818C07800281CD125480068FF213E
:1064A000F13188432901FF22F1321140084320498C
:1064B00008600021E00022181A48401C81541C4842
:1064C000006801218902884340181949086009F0D1
:1064D000CDFE9FE7E00021181248401C0818C07844
:1064E0000099084214D012480068FF21F131884316
:1064F0002901FF22F132114008430D490860084686
:10650000006801218902884340180949086081E731
:106510000125601CC4B2052C9DDB00BF7AE700009A
:10652000E2200020C9390020C838002004240020BF
:106530001424002070B5012500243BE02846A0402B
:10654000C5B21E480088C005C00E28422FD0E0000A
:1065500021181B48081800791A498870E000211892
:106560001748081840791749C870E00021181448E6
:106570000818007A13498871E0002118104808189B
:10658000C0791049487105200F4908700B48006810
:10659000012189048843401808490860E000221856
:1065A000074810184179002005F022FD70BD012533
:1065B000601CC4B2052CC1DB00BFF7E71424002027
:1065C000CA390020552400207A240020F8B504465A
:1065D000002C01D10420F8BD2578641C2078641CAF
:1065E00000902678641C27460098012857D1042D76
:1065F00001DA0320EFE7281FC5B2002E30D1294869
:10660000007800282AD128480078C00926D12748D8
:106610000078012820D126480068012149028843DA
:10662000401823490860084600680821884308305C
:106630001F490860202D00D9202520211D48FFF783
:1066400008FE2A4639461B4815F079F904F038FE51
:1066500001F0C4F90120BEE70220BCE70420BAE73C
:10666000022E1CD101201449087011480068B104A1
:1066700088430F49086008460068B10388430C4905
:1066800008600E4800780D498978401A042804DD16
:106690000A480078001F0949887001209BE7032001
:1066A00099E70000C838002004240020402400207E
:1066B00014240020A9390020352400204E39002060
:1066C000F0B591B005460E461C210AA8FFF7C1FDA2
:1066D00008A9087A02218843801C08A908720020B2
:1066E0000B900D900E900F90109000BF0121684606
:1066F00081742249018200BF002003906846807B9C
:1067000006218843811C68468173717A0173B17ACE
:106710004173807B08218843014668468173807BF2
:1067200010218843014668468173807B41084900F7
:1067300068468173142105A8FFF78BFD062704A87E
:10674000059003A80690684687830021C1830784CB
:10675000002407E00520011B0948405C01A90855F9
:10676000601CC4B2062CF5D301A80990A8882B465A
:10677000163305AA0AA9A2DF11B0F0BDC8FC0000BB
:106780000C24002030B599B005460C46002011902D
:1067900000BF10A8007901090901491C10A8017166
:1067A0000079F0218843103010A9087100BF10A8AB
:1067B000807906218843811C10A88171217941715B
:1067C0001C2112A8FFF745FD10A8007A202188435C
:1067D000203010A90872002013901590169011A86F
:1067E00017900020189000BF012108A881731F494D
:1067F0006846818500BF00200A9008A8807A06219B
:106800008843811C08A8817261790172A179417263
:10681000807A08218843014608A88172807A102175
:106820008843014608A88172807A41084900491CC2
:1068300008A8817214210CA8FFF70BFD142105A8EC
:10684000FFF707FD0BA80C900AA80D9014216846CD
:10685000018700214187142181871090A8882B4649
:106860000E330CAA12A9A2DF19B030BDC7FC00007C
:10687000F3B587B00027142102A8FFF7EAFC0898B7
:10688000857E684605720898008B152856DA002D1B
:1068900050DD042D4EDA681EC5B200240AE00898C7
:1068A0001A3000194178132068430019374A1154EF
:1068B000601CC4B20898008B401EA042EFDC334835
:1068C0000078382803D903206946087339E02F4837
:1068D0000178132068430019814229DC002606E074
:1068E0002A49701C085CC01987B2701CC6B22748C0
:1068F0000078801EB042F3DC2449701C085C0190D3
:10690000019800020190701CC6B2701C095C0198CD
:10691000081880B201900198B84205D11B48FFF7D2
:1069200055FE6946087302E000206946087308E0D6
:1069300009B0F0BD03206946087302E003206946F0
:106940000873052168464172104841786846817293
:106950000E4881786846C1720027002406E002A92B
:10696000A01C085CC01987B2601CC4B26846407A9B
:10697000801EA042F3DC391268464173877302A976
:1069800007980EF073F800BFD2E70000D83300205C
:1069900070B504460E46B51D2988608A814204D12F
:1069A0002946204619F06AF907E02888E1888842DC
:1069B00003D129462046FFF75BFF70BD30B58FB08D
:1069C00004460D460020009000BF6846007801098B
:1069D0000901491C684601700078F0218843103095
:1069E0006946087000BF00BF684640780109090188
:1069F000491C684641704078F02188431030694650
:106A0000487000BF6846807806218843811C68462C
:106A100081701C2108A8FFF71CFC08A80078202121
:106A20008843014608A8017000780821884308308F
:106A300008A90870002009900B900C9068460D90F2
:106A400000200E9000BF0121684681722849018113
:106A500000BF002001906946887906218843801C88
:106A60006946887100BF68460079010909016846D6
:106A700001710079F02188436946087100BF00BFA9
:106A80006846407901090901491C6846417140790D
:106A9000F021884310306946487100BF684680790C
:106AA0000821884301466846817180791021884316
:106AB000014668468171807941084900491C684651
:106AC0008171142103A8FFF7C4FB02A8039001A859
:106AD0000490002168468182C18217210183002031
:106AE0000790A088A31D03AA08A9A2DF0FB030BD9C
:106AF000C6FC00001C480078002803D000201B4979
:106B0000087070471948007800282ADD1748007877
:106B10001749098840181649088016488088134983
:106B200009784018134988800846808812498842AD
:106B300014DD1048007BC007C00F03D008460D4984
:106B400088800BE00B4880880B49401A09498880EF
:106B50000846007B012108430649087300200349C9
:106B6000087000BFCDE70000922000203C2E0020DE
:106B700078200020A02E002060EA000010B500243C
:106B80000021FE48007801F0C5FA0121FC48007898
:106B900001F0C0FA0221FB48007801F0BBFA01F0D5
:106BA000EFFBF9488078002801D101F065FCF64838
:106BB0008078012876D100F0B1FFF448007A0028EF
:106BC00012D1F348C07802218843801CF049C87074
:106BD0000120EE490872EE48C07804218843EC4950
:106BE000C8700020EB490860E9488078202188437C
:106BF0002030E749887017F045FDE7480078002805
:106C00002AD1E6480078022805D1E5480069801CB1
:106C1000E349086108E0E1480078032804D1E0482E
:106C20000069401CDE490861DD4800690F21C90187
:106C3000884207D90020DA490861DA480089401CF7
:106C4000D8490881D6484068D749884204D2D448F8
:106C50004068401CD2494860CB480078002821DDBC
:106C6000CB48C0788007C00F1AD0C7480078C94900
:106C700009684018C74908600846006863280FD9AA
:106C8000C348C07802218843C149C8700846C0780B
:106C900004218843001DBE49C8700020BD4908601A
:106CA000FFF728FFC1480078401CC049087008461B
:106CB0000078202801DD00F0E7FABD48807F401C05
:106CC000BB49887708462030807F401CC1B2B84855
:106CD000203081772030807F401CC1B2B4484030E2
:106CE0008177B4480078002879DDA7480078B14959
:106CF00009784018A44908700020AE490870A248DD
:106D000040784001AA494018C07A502804DDAA48BA
:106D1000807E401CA8498876A048007803285FD16F
:106D20009948407B462859DD9748407A96494978EA
:106D300049019F4A8918897841189348807A801DB3
:106D400081424BDA9B480078012847D11046807A6F
:106D5000042812DA8C48407800280ED18A48417BFA
:106D6000104680790818962807DD87480078401C6F
:106D7000854908701046407948738D482030807AE4
:106D8000042814DA80484078012810D17E48417BDD
:106D90008748203080790818962808DD7A480078DE
:106DA000401C7949087082482030407948738048F7
:106DB000807A0428C5DA744840780228C5D1724820
:106DC000417B7B48807908189628ACDD6E480078B6
:106DD000401C6D4908707648407948733FE1A9E04E
:106DE0006948407800282FD17148C179007A091884
:106DF0006F48407A0C1806212046FFF7A7F96C4926
:106E0000897988420DD96A488079142809DA0020E6
:106E10005D4988700520694908700020684908703C
:106E20001DE163488079E1088842D7D260488079C3
:106E30002828D3DA00205449887005205F4908705B
:106E400000205F4908700AE14F484078012836D198
:106E500057482030C179007A091855482030407AC7
:106E60000C1806212046FFF771F9014650482030E2
:106E7000807981420ED94E4820308079142809DA71
:106E800000204149887005204C49087000204C4979
:106E90000870E4E0464820308079E10888429DD2BD
:106EA000434820308079282898DA002036498870B5
:106EB000052042490870002041490870CFE032485F
:106EC000407802288AD13A484030C179007A0918BE
:106ED00037484030407A0C1806212046FFF736F933
:106EE000014633484030807981420ED930484030E5
:106EF0008079142809DA00202349887005202F4959
:106F0000087000202E490870A9E029484030807997
:106F1000E10888420DD2264840308079282808DAD6
:106F20000020194988700520244908700020244950
:106F3000087094E01948007803287DD11248407BFE
:106F40003C2879DD1A48807A042841DA0E484078D6
:106F500000283DD10C48417B1548807908188C28C1
:106F600036DD0948807A052832DD07480078401C64
:106F7000054908700E484079487323E080200020BE
:106F800081200020822000203C2E00206C2E00203A
:106F900004240020DC2000209220002090200020EB
:106FA0007C2E0020A02E0020FFFF00008320002068
:106FB000DA2D0020852000204C2E00208420002087
:106FC000862000200846807A48720846007A887237
:106FD0003A48807A04281CDA39484078012818D1C8
:106FE0003748417B3548807908188C2811DD3448B2
:106FF000807A05280DDD32480078401C3049087041
:107000002E48407948730846807A48720846007ACC
:1070100088722A482030807A042820DA284840786C
:1070200002281CD12648417B24482030807908184A
:107030008C2814DD224800E011E0807A05280EDD5E
:107040001F480078401C1E4908701C4820304079B9
:1070500048730846807A48720846007A887204208D
:1070600016492039887204211448817220308172B7
:107070001348807800281FD11248007805281BD1BA
:1070800011480078401C10490870084600785028C4
:1070900012DD0020087009482038807E06280BDAAF
:1070A0000648807E062807DA04482030807E0628BD
:1070B00002DA09200349087010BD0000FA2D0020F3
:1070C0003C2E0020842000208620002010B510488F
:1070D000848800200F4948710D48007BC007C00F0D
:1070E00001D00D4824180D48844200D904460C48AC
:1070F0004078C007C00F06D00A48006824180A4824
:10710000844200D90446204603F0F4FF10BD00007D
:10711000A02E0020EF21002060EA0000C0D4010072
:1071200020220020142200203F420F0030B588B0FA
:1071300002460020002100BF1AE000236C462354C1
:10714000002111E06B461B5C5B106C4623544B0026
:10715000D35C83408024234204D06B461B5C2343D2
:107160006C4623544B1CD9B20829EBDB431CD8B224
:107170000828E2DB002025E00024034608336D46A2
:10718000EC5400211AE0034608336C46E35C5C10C3
:10719000034608336D46EC544B005B1CD35C8340C4
:1071A0008024234208D0034608336C46E35C8024E5
:1071B0002343044608342B554B1CD9B20829E2DB83
:1071C000431CD8B20828D7DB002025E00024034662
:1071D00010336D46EC5400211AE0034610336C4620
:1071E000E35C5C10034610336D46EC544B001033E7
:1071F000D35C83408024234208D0034610336C467E
:10720000E35C80242343044610342B554B1CD9B235
:107210000829E2DB431CD8B20828D7DB002025E090
:107220000024034618336D46EC5400211AE003464F
:1072300018336C46E35C5C10034618336D46EC541F
:107240004B001133D35C83408024234208D0034693
:1072500018336C46E35C80242343044618342B55D2
:107260004B1CD9B20829E2DB431CD8B20828D7DB73
:10727000002004E06B461B5C1354431CD8B220284A
:10728000F8DB08B030BD00001E488078002821D10E
:107290001D48C07E142804DD00201B49887619494A
:1072A000087219482030C07E142806DD00211648D7
:1072B0002030817600201349087213484030C07E88
:1072C000142812DD002110484030817600200D493D
:1072D00008720AE00B48407840010B494018C07E14
:1072E000142802DD00200749887000200649C8766E
:1072F000002105482030C1762030C17600200349A6
:10730000087070473C2E0020DA2D002083200020DA
:1073100010B560484079642804DA5E484079401C22
:107320005C4948715B4840790A2802DD00205949D0
:1073300008710D2014F008FC002837D15648007859
:10734000C00932D05548C0782021884320305349A5
:10735000C870084600788021884380304F49087003
:107360004D480078802188434B49087000204949E6
:1073700048704A48007840218843403047490870A7
:10738000444840790A280ADC42480079401C4149B7
:10739000087108460079022801DD0120C8703E48C6
:1073A0004079402188433C49487110BD3A480078F3
:1073B000C0093BD138480078802188438030364965
:1073C000087036480078C007C00F08D104F0CAFC26
:1073D0003248007840084000401C304908700120C5
:1073E0002F494870FF20087000202A494870092062
:1073F0002C49087012F04CFC2949C870C87804F078
:1074000013FD012005F0FEFC0120800310F0BCFDFF
:1074100021484079402188431F4948711D484079DF
:107420000A2803DD00201B494871087112F030FC66
:107430001B49C8700E2014F087FB012819D115488C
:107440004078401C134948700846407805281ADDEA
:1074500007201349C87010480078102188430E494E
:10746000087005200B4948700D49C87804F0DCFC11
:1074700009E0094800781021884310300649087057
:107480000020044948700020054988700A200870CF
:1074900000BF8AE7272200200424002020220020A9
:1074A0004E3900200922002095480078C00912D1E9
:1074B00094480078C0090ED19248C0788007C00F68
:1074C00009D1914800888005C00F04D18E480088FA
:1074D0004005C00F00D070478C480078322804DA8D
:1074E0008A480078401C8949087088480078192823
:1074F00030DC874840783F282CDD8548407870286C
:1075000028DA834800786E2824DD814800789128A5
:1075100020DA7F48807842281CDD7D4880788028EA
:1075200018DA7C480078002814D17B480078401C89
:10753000794908700846007801280BDD0120774959
:1075400008700220764908700120724908700020F6
:10755000714908706E48007864281CDD6C4800781A
:10756000962818DA6A484078932814DD68484078ED
:10757000D92810DA6648807864280CDD6448807861
:10758000962808DA00206349087066490870624945
:1075900008705E4908705E48007893281CDD5C48DE
:1075A0000078D92818DA5A484078642814DD5848F9
:1075B0004078962810DA5648807864280CDD5448C4
:1075C0008078962808DA00205249087055490870DA
:1075D000514908704D4908704D48007828281CDD35
:1075E0004B4800786E2818DA49484078642814DD42
:1075F00047484078962810DA4548807864280CDDA2
:1076000043488078962808DA0020424908704549A6
:107610000870414908703D490870404800780028CA
:1076200019D04148C078172803DA3F48C0780528A8
:1076300007DC3E480078002803D13D480078002848
:1076400009D10020354908703A480078082188435C
:107650000830384908702B480078C007C00F47D061
:10766000284880788006C00F42D129484078962863
:1076700017DD31480078401C2F4908702F480078EA
:10768000002811D00846007803280DDD29484078ED
:10769000202188432030274948700020274908705E
:1076A00002E000202449087019480078AA2803DC69
:1076B000174800785F2817DA21480078401C2049D5
:1076C00008701E480078002817D008460078052862
:1076D00013DD184840782021884320301549487030
:1076E00000201649087008E000201549087004E0E1
:1076F0000020114908701249087000BFEBE6000035
:10770000042400202022002014240020C92000206E
:10771000E8230020C6200020C8200020C42000202C
:10772000C5200020C7200020E22000207E24002069
:107730007F240020EF200020AD2300207D240020A6
:10774000AE2300202D480078C00908D12C480078CD
:10775000C00904D12A48C0788007C00F00D0704704
:10776000284840788C280EDD2748007800280AD168
:10777000244800785A2806DD22480078A02802DA3A
:107780000120214908701F4840783F2831DD1D48FD
:10779000407870282DDA1B4800786E2825DD1948BE
:1077A0000078912821DA17488078422819DD154899
:1077B0008078802815DA1548007800281CD101202F
:1077C0001249087010480078002815D01048007839
:1077D0000821884308300E49087000200A490870C3
:1077E000BDE700200949087006E00020074908703D
:1077F00002E000200549087000BFB0E70424002023
:1078000020220020E8230020B0230020AF23002006
:10781000EF2000201FB5002004E000216A4611542B
:10782000411CC8B21028F8DB0120694648731023B8
:107830006A46F7210903022009F028FF01236A465E
:107840000249022009F064FF1FBD000010700F0004
:107850002021C2000B4B9954C200D2185170C200B3
:10786000D2189170C200D218D170C200D218117112
:10787000C200D2185171C200D2189171C200D21840
:10788000D17170478633002020220A214143134BD7
:107890005A540A214143C9184A700A214143C91860
:1078A0008A700A214143C918CA700A214143C91884
:1078B0000A710A214143C9184A710A214143C91872
:1078C0008A710A214143C918CA710A214143C91862
:1078D0000A720A214143C9184A727047A633002030
:1078E000F7B50E4615460024002736E0009809F04B
:1078F000EEFC304609F0C2FC28782038070105204C
:1079000014F00AF9002406E03919164A505C0BF00D
:10791000DDF8601CC4B2082CF6DB052014F032F947
:107920000099491CC8B209F0D2FC304609F0A6FC07
:10793000052014F0F1F8082406E03919094A505CD2
:107940000BF0C4F8601CC4B2102CF6DB052014F058
:1079500019F96D1C30460830C6B228780028C5D108
:10796000FEBD00003C010300F8B505460E46174673
:107970000024042D01DB072D00DDF8BD702E00DD95
:10798000FBE7284609F0A3FC304609F077FC052008
:1079900014F0C2F8002404E0385D0BF097F8601C86
:1079A000C4B2102CF8DB052014F0ECF8691CC8B246
:1079B00009F08DFC304609F061FC052014F0ACF8AC
:1079C000102404E0385D0BF081F8601CC4B2202C58
:1079D000F8DB052014F0D6F800BFCEE710B5002084
:1079E000FFF736FF0120FFF733FF0220FFF730FFDC
:1079F0000320FFF72DFF252021494871262088719B
:107A000027211F484172282181721E4800780028D2
:107A100008D121211A4841752221817523214176FF
:107A20002421817618480078C007C00F08D104F0DF
:107A300099F91548007840084000401C1249087028
:107A40000D2012490870012005F0BAFD00201049F0
:107A50008870104840780F49C97840184006000ED9
:107A60000B4908700120487007480078402188437E
:107A7000054908700120800310F086FA10BD00004F
:107A8000863300208939002020220020092200208E
:107A90004E3900204024002010B50020FFF7D8FE0A
:107AA0000120FFF7D5FE0220FFF7D2FE0320FFF7EB
:107AB000CFFE16480078C007C00F08D104F052F975
:107AC0001248007840084000401C1049087001200E
:107AD00005F0B8FF00200E4988700E48007810218C
:107AE00088430C490870C820094908700120487073
:107AF0000648007840218843044908700E20064952
:107B000008700120800310F03FFA10BD20220020F1
:107B10004E3900200424002009220020F0B587B04F
:107B2000002408270A200690002004900390029069
:107B30000190FE480078032802D1102732200690D9
:107B40000026DBE27001FA494518A87A042800D122
:107B5000D2E2F8484078B0427ED1F648007AF64941
:107B60000978884205DCF348C07A401CF149C872A4
:107B7000AEE2F048007AF1490978884237DAED48F8
:107B8000807AEC49497A4118EA48007A4200801824
:107B9000401C81420FDCE748807AE649487208467B
:107BA000007A88720120E64908700020E1490873D4
:107BB0000872C8728CE27001DD49401840793228A1
:107BC0000FDDDC48807ADB4948720846007A88720B
:107BD0000120DB4908700020D64908730872C8727A
:107BE00076E2D448C07A401CD249C87270E2D148CB
:107BF000007AD449097888420FDACE48807ACD4994
:107C000048720846007A88720120CD490870002029
:107C1000C84908730872C8725AE2C648007ACA494D
:107C2000097888422EDAC348C07A002818DD70012E
:107C3000BF4940184079322812DDBE48007B401C05
:107C4000BC4908730846007A401088720846007ADA
:107C500040104872022000E042E1B94908700CE08F
:107C6000B448807AB34948720846007A8872012085
:107C7000B34908700020AF4908730020AD4908726D
:107C8000C87225E2AB48007AB0490978884247DAE1
:107C9000A848C07A002816DD7001A549401840792F
:107CA0001E2810DDA348007B401CA249087308462B
:107CB000007A401088720846007A4010487202200C
:107CC0009F49087027E09B48807A9A49497A411871
:107CD0009848007A801C814210DC9648007B401C4A
:107CE000944908730846007A401088720846007A62
:107CF000401048720220924908700CE08D48807A4A
:107D00008C4948720846007A887201208C490870B4
:107D1000002088490873002086490872C872D7E19C
:107D20008448007A8A49097888424FDA8148807A03
:107D3000B84210DA01208249087000207D4908739A
:107D40000846807A097A401840107A4948720846F5
:107D5000407A887235E07748807A7649497A4118C6
:107D60007448007A001D814203DD7248C07A002801
:107D70001BDD7048007B401C6E4908730020C872F0
:107D80000846007B022803DB0C208872487208E05A
:107D90006848007A4010674988720846007A4010A7
:107DA00048720220664908700BE00120644908709F
:107DB0000020604908730846807A48720846007AB5
:107DC000887200205B490872C87281E15948007AC4
:107DD00060490978884260DA00200590002411E0AB
:107DE000295D0698814203DD0598401CC0B20590CC
:107DF000681D005D0A2803DA0598401CC0B2059092
:107E0000601CC4B2052CEBDB0598052802DB0020C2
:107E1000484988704748807800281FD14549087232
:107E20000846477287720020C8720873002410E069
:107E300000203F49085500213D48203001552030A1
:107E400001553B3801552030015520300155601C4B
:107E5000C4B2052CECDB0420A87239E102203849B9
:107E600008703448007B401C324908730846007B88
:107E7000022803DB0C208872487208E02D48007A43
:107E800040102C4988720846007A40104872002041
:107E900028490872C87208731AE1002025498870C1
:107EA000002410E0002022490855002120482030FD
:107EB0000155203001553B38015520300155203007
:107EC0000155601CC4B2052CECDB1A48477287725E
:107ED0000420A87200201749C87208730872F7E0DE
:107EE0001448007A1B490978884239DD002011497D
:107EF0008870002410E000200D49085500210C482E
:107F000020300155203001553B38015520300155B6
:107F100020300155601CC4B2052CECDB0420A87293
:107F20000448477287720020024915E09020002023
:107F3000DA2D00203C2E00208E2000208D200020F5
:107F4000852000208C2000208B2000208A2000200B
:107F50008920002088200020C87208730872A9E0D8
:107F60006948007A0428FADD00200390019000247B
:107F70000DE0285D002808DD681D015D03980818E4
:107F80000390295D019808180190601CC4B2052C6B
:107F9000EFDB0198002801D1059005E001990398D5
:107FA000FEF7D4F8C0B205900020019003900124A0
:107FB0001BE055484078400154494018005D0028B6
:107FC00011DD5148407840014018401D015D039883
:107FD000081803904C48407840014C494018015D16
:107FE000019808180190601CC4B2052CE1DB0198CF
:107FF000002801D1049005E001990398FEF7A6F846
:10800000C0B2049004990598884223DDE87D3E497A
:10801000497849013D4A8918C97D884215DDE87DC6
:108020000A2812DD3848007A0A280BDD0120384979
:1080300008703548807A344948720846007A887258
:10804000002008723048467034E02F4840782E49AE
:1080500048702FE0E97D2C48407840012B4A801879
:10806000C07D001D814221DDE87D12281EDDE87DF6
:108070001F281BDA24484078400111464018C07D73
:108080000E2813DA2048007A0A280CDD1E480078F2
:10809000401C1D4908700846807A48720846007ADC
:1080A0008872002008721848467003E0164840782D
:1080B00015494870002409E0700114494018401D1A
:1080C000015D029808180290601CC4B2052CF3DB15
:1080D000042409E0601E285C2855601E691D095CA7
:1080E000681D0155601EC4B2002CF3DC002028700E
:1080F00068710420A87200BF701CC6B2032E00DA9B
:1081000020E507B0F0BD00003C2E0020DA2D002055
:1081100085200020FCB507460E4600200190142063
:10812000009070018F49441867738F4800780228C7
:1081300001D10A200090607B217B884243DDA07B37
:10814000002830D1A07F032811DA217B207FFEF7A1
:1081500045F90F280BDAE07E401CE076217B207F7A
:10816000FEF73CF9052802DAE07E401CE0760020AC
:10817000A077207B60770120A073207C217B884240
:1081800003DD20460AF054FED3E0E07C042803DB44
:1081900020460AF04DFECCE0607C0428F4DB20464B
:1081A0000AF046FEC5E00120A073E07C6F49097823
:1081B0008842E9DD20460AF035FE00202075204681
:1081C0000AF036FEB5E0607B217B88420ED1E07C70
:1081D000664909788842D7DD20460AF023FE002050
:1081E0002075A07320460AF023FEA2E0002500209F
:1081F0000190A07B01286ED1A07F032811DA217B9A
:10820000607FFEF7EBF80F280BDAE07E401CE0768B
:10821000217B607FFEF7E2F8052802DAE07E401C51
:10822000E0760020A077207B20770020A073207BC1
:10823000217C884204DD207B217C401AC5B200E00D
:108240000025207B052874DD0A2D14DD48480078C0
:10825000401C47490870474800884749081AA84207
:1082600004DA0020C0434349088004E04148008804
:10827000401940490880242D05DD032120460AF0DD
:108280003DFD01903FE0182D05DD052120460AF057
:108290007BFD019037E0102D05DD062120460AF018
:1082A00073FD01902FE00C2D05DD072120460AF01B
:1082B0006BFD019027E00A2D05DD082120460AF01C
:1082C00063FD01901FE0092D06DD092120460AF01B
:1082D0005BFD019017E01BE0082D05DD0A2120461B
:1082E0000AF052FD01900EE0E17C0098814203DD2E
:1082F00020460AF097FD06E0207BE17B884202DD04
:1083000020460AF08FFD0198012812D1A67210E0D4
:10831000E07C16490978884209DD20460AF082FD92
:108320000020A073207520460AF082FD01E00020A5
:10833000A073607C401C6074A07C401CA074E07C36
:10834000401CE074207D401C2075207D0B4909787D
:108350004900884202DD094800782075607B20735F
:10836000FCBD0000DA2D0020902000208920002094
:10837000A1230020A2230020FFFF0000882000206E
:1083800000203949097E491C374A117611462031AF
:10839000097E491CCAB2344920310A762031097E4F
:1083A000491CCAB2304940310A763049097A491C21
:1083B0002E4A117211464968491C516011464A689B
:1083C0002B4909780A2359438A4216D92649897DBF
:1083D000254AD175114620318A7DCA7520318A7DA2
:1083E000CA750021204A917500221F4920318A75E3
:1083F00020318A7500211D4A51601C49097A1C4AA6
:1084000012785300D21891422DDD1849897801293C
:1084100029D10021154A91701172D1721173102166
:1084200051729172002010E000210F4A1154002275
:108430000D4920310A5420310A543B390A54203165
:108440000A5420310A54411CC8B20528ECDB04212F
:10845000054A91720422044920318A7220318A72BD
:108460000A21044A11707047DA2D00203C2E0020AA
:10847000872000208F20002010B50024C748C07836
:10848000C6498978884206DDC448C078C3498978DE
:10849000401AC4B205E0C1488078C049C978401A82
:1084A000C4B2052C03DD0020BD49087040E0BD4882
:1084B000C078BC498978884206DDBA48C078B94995
:1084C0008978401AC4B205E0B6488078B549C978C1
:1084D000401AC4B2062C03DD0020B149087027E021
:1084E000B148C078B0498978884206DDAE48C07886
:1084F000AD498978401AC4B205E0AB488078AA49F2
:10850000C978401AC4B2062C03DD0020A4490870C3
:108510000EE0A3480078401CA14908700846007886
:10852000A02805DDA1480078012801D008F042FE0E
:108530009F48407D9F490978884254DD9C48807A55
:10854000002850D19A48407E9949497D884210D1EF
:108550009748407D9849097888420ADA002008F057
:10856000A1FC00280ADD9248807E401C9049887654
:1085700004E000208E498876904908728C48807EFD
:108580008F49097888422EDD01208C498870084681
:1085900000788749897E40188849087000208449FE
:1085A0008876002182482030817620308176002034
:1085B0008249087204240BE0601E7D49085C08555E
:1085C000601E491D095C7A48401D0155601EC4B2F9
:1085D000002CF1DC0020764908704871774948701A
:1085E00009207749087072482030407D7149097828
:1085F000884260DD6E482030807A01285BD16C486B
:108600002030417E407D814214D169482030407D38
:108610006949097888420DDA012008F043FC0028F6
:108620000FDD63482030807E401CC1B2604820309E
:10863000817606E000215E482030817600205F4987
:1086400008725B482030807E5D490978884232DDBF
:1086500001205A4988700846017855482030807EAC
:108660000818564908700020514988760021504862
:108670002030817620308176002050490872042411
:108680000CE0601E4A492031095C49482030015500
:10869000611E401D415C0155601EC4B2002CF0DC1F
:1086A0000021434820300170417101204349487046
:1086B0000920434908703E484030407D3D490978D3
:1086C000884260DD3A484030807A02285BD13848E1
:1086D0004030417E407D814214D135484030407D5C
:1086E0003549097888420DDA022008F0DBFB0028C2
:1086F0000FDD2F484030807E401CC1B22C484030F6
:10870000817606E000212A484030817600202B49FE
:10871000087227484030807E29490978884232DD36
:108720000120264988700846017821484030807E23
:1087300008182249087000201D49887600211C482D
:10874000203081762030817600201C490872042474
:108750000CE0601E16494031095C15484030015557
:10876000611E401D415C0155601EC4B2002CF0DC4E
:1087700000210F4840300170417102200F494870BC
:1087800009200F490870042009498872042108480B
:10879000203081722030817210BD0000BC2D00207D
:1087A0008F200020C62D0020D02D0020C8380020AA
:1087B000DA2D00208E200020892000203C2E002071
:1087C00084200020F3B5C7B00646FA480088FA496D
:1087D0000988884210D1F848008800280CD1B07868
:1087E000F5490880084600780006000C0880F078FB
:1087F00009884018F0490880EE4801884898081810
:10880000782807DCED49EB4A128888183146489AE7
:1088100013F095F8E748018848980818E54908805A
:1088200008460088E4490988884201DA49B0F0BD69
:10883000E2480079E2490880084600780006000C0A
:108840000880DE48407909884018DD490880FC210D
:1088500005A8FDF7FEFCD94D0835D7480078083843
:10886000C0B24690D6480088D64988427ED144A8F6
:1088700045A905AB0091019029460220469A14F0C3
:10888000D9FFD149087008460078002802D10BF0C2
:10889000C7FFCBE740A8007D002800D1C6E7002431
:1088A00005A8005D90287DD1601CC4B22046611CE3
:1088B000CCB205A9085CC54908702046611CCCB241
:1088C00005A9085C41B26846C1712046611CCCB262
:1088D00005A9095C684681712046611CCCB205A9D6
:1088E000095C684641712046611CCCB205A9095C4F
:1088F000684601712046611CCCB205A9085C41B2F2
:1089000001A8C1712046611CCCB205A9095C01A86F
:1089100081712046611CCCB205A9095C01A8417196
:108920002046611CCCB205A9095C68460172C07979
:10893000801C41B26846C171019802F09BFAA449BB
:108940000860A4480089096888421BD0A0480068D4
:108950009C49491E884205D89D480068FF21F53191
:10896000884202D29C489A49086000E0D3E09848C7
:108970000088984908819948007840218843403010
:108980009649087001A8C079C01C41B201A8C17104
:10899000029802F06FFA8E4948608E484089496813
:1089A000884200E082E020D0894840688C498842B3
:1089B00005D887484068FF21F531884202D28948AE
:1089C0008349486082488088824948814989890072
:1089D000481D6421FDF7D0FB7E4908737F4800786D
:1089E0004021884340307D4908702046611CCCB24C
:1089F00005A9095C684601732046611CCCB205A933
:108A0000085C04900498000204902046611CCCB2DB
:108A100005A9085C049A10180490049800020490B8
:108A20002046611CCCB205A9085C049A1018049079
:108A30000498000204902046611CCCB205A9085C91
:108A4000049A10180490634801786846007B8142BC
:108A50000AD06846007B5F49087060480078402172
:108A6000884340305D4908705A48406804998842FC
:108A700009D05849049848605848007840218843F4
:108A8000403056490870584800781021884310300B
:108A9000554908704D480078012806D1534880791F
:108AA00040084000401C514988716DE005A8005DF8
:108AB00091281DD105A9E01C085CC1004018C01C0C
:108AC0004B49087008460078322801D932200870D6
:108AD00005A80019411C46480278464812F02FFFAD
:108AE0004548006804218843001D434908604BE065
:108AF00005A8005D922847D105A80019411C07224E
:108B00003E4812F01CFF3C48006802218843801C4C
:108B10003949086038E02A4800882A49891C884277
:108B200032D1A87810281AD1E878012817D1324814
:108B300000880004C00F27D12F480068C003C00F71
:108B400022D12D4800680121C90288432A490860C2
:108B500022480078400840002049087014E0A878B6
:108B6000102811D1E87802280ED12348006801218D
:108B7000C902884340182049086018480078400816
:108B80004000401C154908701D48007810287DD011
:108B900008DC012836D0022879D0042878D00828AB
:108BA00077D1FEE0202875D0402874D08028F7D1F6
:108BB000F2E100007C2300207E23002048360020C4
:108BC0008623002031750000882300205B210020CF
:108BD00008210020902E0020701700001A2100208C
:108BE000B80B0000A406000052210020042400203D
:108BF0002D240020573900201424002018240020A0
:108C000021210020FE480088FE4988427BD1FE4891
:108C10000088FE490988884276D144A845A905AB59
:108C20000091019029460220469A14F003FEF8496B
:108C3000087008460078002802D10BF0F1FDFDE332
:108C400040A8027DF3A105A812F062FE012830D1F0
:108C50002020F4490870F448007C08218843F24938
:108C600008740846007C04218843001DEE490874FE
:108C70000220087040030FF087F9EC4800780221C9
:108C80008843801CE9490870002005E082E180E10A
:108C900081E1F1E318E180E1E5490870E3480079FA
:108CA000202188432030E14908710020E1490880F3
:108CB00070E040A8027DE0A105A812F029FE01287D
:108CC00002D113F085F865E040A8027DDDA105A87A
:108CD00012F01EFE012818D10BF0A2FDDC4800782E
:108CE000C00905D1DB488078462801DD0FF030FF50
:108CF000CE480079202188432030CC4908710020DB
:108D0000CC49088046E048E04AE040A8027DD2A174
:108D100005A812F0FDFD012804D10BF081FD13F030
:108D20004DF837E040A8027DCEA105A812F0F0FD75
:108D300001281BD10820BB490870BC4800780221DB
:108D40008843801CB949087008460079022188438D
:108D5000801CB64908710020B3494874B3480079B3
:108D600004218843001DB149087113E00820AD4972
:108D70000870AE48007802218843801CAB49087017
:108D80000020A9494874A948007904218843001D9E
:108D9000A64908710BF0B2FD02E00120B449087049
:108DA0004DE7974800889749891C884276D144A8A6
:108DB00045A905AB0091019029460F20469A14F071
:108DC00039FD9349087008460078002802D10BF05D
:108DD00027FD34E70020A749086000240AE005A821
:108DE000005DE1008840A34909684018A149086076
:108DF000601CC4B240A8007D8442F0DB9E4800683D
:108E00009E4988420ADA9B480068884206D9904801
:108E100040798021884380308D49487195480068A9
:108E200000283CD0934800689349086040A9087C1A
:108E30002D18097C4698401AC0B2469044A845A90E
:108E400005AB0091019029461020469A14F0F2FCDF
:108E50006F49087008460078002802D10BF0E0FC4A
:108E6000EDE60027002406E005A8005DE10088404B
:108E7000C719601CC4B240A8007D8442F4DB80495D
:108E800000200856B84208D078B208706748C07809
:108E900004218843001D6549C87004E010E075484E
:108EA00000687449086040205E4908705F48007897
:108EB00002218843801C5D4908700BF01FFD02E011
:108EC00004206B490870EEE34D4800884D49491C69
:108ED000884200D0E7E344A845A905AB0091019082
:108EE00029460220469A14F0A5FC49490870084614
:108EF0000078002802D10BF093FCD4E30024214633
:108F0000641C05A8405C8E2842D13D4800883D493C
:108F1000491C884239D140A8007D222804D00BF09A
:108F20007FFC0FF015FE2DE0002008E02146621CBA
:108F3000D4B205AA515C534A1154411CC8B20F283F
:108F4000F4DB002008E02146621CD4B205AA515C83
:108F50004D4A1154411CC8B20C28F4DB002008E033
:108F60002146621CD4B205AA515C484A1154411CE6
:108F7000C8B20628F4DB2D48007880218843803071
:108F80002A4908700BF0BAFC02E001203849087049
:108F900089E300BF00BF00BF00BF1948008819491E
:108FA000491C884200D07EE344A845A905AB009146
:108FB000019029460220469A14F03CFC144908709E
:108FC00008460078002802D10BF02AFC6BE340A889
:108FD000007D002800D166E3002405A8005D8028FC
:108FE0007ED1601CC4B2064800880649491C8842EC
:108FF00077D12046611CCCB205A9085C244949E020
:1090000086230020214E00007E2300207C230020A8
:1090100088230020666163746F7279206D6F6465C8
:109020000000000021210020C83800201A21002063
:10903000E921002018210020757064617465206D9D
:109040006F64650074657374206D6F646500000063
:1090500004240020E8230020636865636B206D6FA3
:109060006465000070616972206D6F6465000000C6
:109070002321002024210020EC2E0020805AC352FE
:1090800028210020483000205730002011210020E6
:109090000421002008600846006802022046611C86
:1090A000CCB205A9085C1018FE49086008460068A3
:1090B00002022046611CCCB205A9085C1018F949CF
:1090C00008600846006802022046611CCCB205A96F
:1090D000085C1018F34908602046611CCCB201E01E
:1090E0002AE125E105A9085C41B26846C171204624
:1090F000611CCCB205A9095C684681712046611CDF
:10910000CCB205A9095C684641712046611CCCB20D
:1091100005A9095C684601712046611CCCB205A90D
:10912000085C41B201A8C1712046611CCCB205A9FE
:10913000095C01A881712046611CCCB205A9095CBB
:1091400001A841712046611CCCB205A9095C6846A2
:109150000172C079801C41B26846C171019801F06A
:1091600089FED1490860D14800890968884218D031
:10917000CD480068CE49884205D8CB480068FF2119
:10918000F531884202D2CB48C7490860C6480088FA
:10919000C6490881C8480078402188434030C64904
:1091A000087001A8C079C01C41B201A8C171029821
:1091B00001F060FEBC494860BC484089496888426B
:1091C00020D0B9484068BD49884205D8B6484068B3
:1091D000FF21F531884202D2B948B3494860B2480C
:1091E0008088B249488149898900481D6421FCF77B
:1091F000C3FFAE490873B04800784021884340302F
:10920000AD4908702046611CCCB205A9095C6846CE
:1092100001732046611CCCB205A9085C0490049837
:10922000000204902046611CCCB205A9085C049A97
:10923000101804900498000204902046611CCCB2DF
:1092400005A9085C049A1018049004980002049080
:109250002046611CCCB205A9085C049A1018049041
:109260002046611CCCB205A9085C964908600846F6
:109270000068000208602046611CCCB205A9085CA9
:109280009049096840188F49086008460068000244
:1092900008602046611CCCB205A9085C89490968B0
:1092A000401888490860814801786846007B8142FF
:1092B0000AD06846007B7D4908707F4800784021CD
:1092C000884340307C490870784840680499884257
:1092D00009D076490498486077480078402188434F
:1092E0004030754908702046611CCCB205A9085C65
:1092F0007549087008460078012806D173488079BE
:1093000040084000401C7149887104207049087071
:109310001420704908707049087001206F49087066
:1093200014206F49087013F03DFF0BF0E7FAB8E125
:1093300002206C490870B4E105A8005D8B284CD16F
:10934000601CC4B268480088684988423FD16848B8
:10935000807968490880084600780006000C08807B
:109360006348C07909884018624908802046611C1A
:10937000CCB205A90A5C012A1BD14F480078042110
:1093800088434D4908705B4800885B4908804F4816
:1093900080790821884308304C49887157480088F3
:1093A00055490988884215D1544800885449088095
:1093B00010E041480078042188433F490870514833
:1093C00000885149098840184E49088002E003206E
:1093D000444908700BF092FA63E105A8005D822809
:1093E0004BD1601CC4B240480088404988423DD1FE
:1093F0003F4880793F490880084600780006000C05
:1094000008803B48C079098840183A4908802046BE
:10941000611CCCB205A90A5C012A20D1264800783B
:109420000421884324490870324800883249088062
:109430002648807908218843083000E033E1234939
:109440008871324800882C490988884211D12F48F8
:1094500000882F49088000202E49087009E016482E
:109460000078042188431449087002E003201D4954
:1094700008700BF043FA14E114E105A8005D83289D
:1094800076D1601CC4B2184800881849884278D147
:109490001748807917490880084600780006000CB4
:1094A000088039E00421002008210020902E0020AF
:1094B00030750000701700001A210020B80B000062
:1094C000A40600005C2100205B2100200424002071
:1094D000212100201F21002020210020DC2100204C
:1094E0005A2100202321002086230020224E000044
:1094F0004836002080230020E0210020D6210020D3
:10950000DA210020582100204C210020D421002005
:10951000D8210020DD2100206948C0790988401841
:10952000684908802046611CCCB205A90A5C012A62
:1095300020D1654800780421884363490870614858
:109540000088624908806248807908218843083091
:109550005F4988715F4800885C490988884213D157
:109560005C4800885C49088000205C4908700BE07A
:109570000DE006E054480078042188435249087001
:1095800002E00320564908700BF0B8F989E005A8FD
:10959000005D8C2876D1601CC4B2524800885249C4
:1095A000884265D146488079464908800846007857
:1095B0000006000C08804248C079098840184149DB
:1095C000088005A9A01C0F5C012F51D105A8005DE2
:1095D000902806D1454800781021884343490870F7
:1095E00046E005A8005D91280DD105A9601C085C26
:1095F00001283DD13E480078012839D13C48401C23
:1096000006F0EEFB34E005A8005D922830D105F0AD
:109610002BFF06F0BDF805F0DDFD05A9601C085C18
:10962000012808D13248007801281FD13149324839
:1096300006F084FC1AE005A9601C085C022808D129
:109640002B480078022811D12A492C4806F076FCD4
:109650000CE005A9601C085C032807D124480078A9
:10966000032803D12649274806F068FC07F038F99B
:109670001548007804218843134908700BF03EF91F
:109680000FE0FFE705A8005D8F280AD1601CC4B277
:10969000144800881449884201D102F047FB0BF0BE
:1096A0002DF900E000BF00BFFA210548FCF7D1FD0D
:1096B0000020154908801549088000BFFFF7B6F85B
:1096C00048360020802300201A210020E0210020BD
:1096D00004240020C4210020C6210020C82100202D
:1096E0002321002086230020224E0000522100204A
:1096F0005739002040240020192400202024002075
:109700004E240020272400207E2300207C230020DC
:10971000FFB583B005460E461446082E00DD082628
:10972000102C07D13046F10F091849104919C9B258
:10973000019104E0082C02D17019C0B20190029589
:1097400048E0069807F0C3FD0299491B61430C9A53
:109750008918C8B207F092FD0E98C0002049411840
:109760000298085C2038604341000D98081800906A
:10977000052012F0D1F9002705E00099C85D09F035
:10978000A5F9781CC7B2A742F7DB052012F0FAF959
:109790000699491CC8B207F09AFD0299491B61431A
:1097A0000C9A8918C8B207F069FD052012F0B4F9C7
:1097B000274605E00099C85D09F088F9781CC7B212
:1097C0006000B842F6DC052012F0DCF90298401C7B
:1097D000C0B20290019902988842B2DB07B0F0BD96
:1097E00086330020FFB583B00646144604980A2845
:1097F00001DD0A200490182C07D10498C10F091824
:1098000049108919C9B2029105E00C2C03D10498C2
:109810008019C0B20290374664E0069807F057FD01
:10982000B91B61430C9A8918C8B207F027FD0A21B9
:109830000E9848432E494018C05D203860434100CF
:1098400041180D9808180190052012F065F90025BF
:1098500005E00199485D09F039F9681CC5B2A542D7
:10986000F7DB052012F08EF90699491CC8B207F003
:109870002EFDB91B61430C9A8918C8B207F0FEFC93
:10988000052012F049F9254605E00199485D09F0E7
:109890001DF9681CC5B26000A842F6DC052012F074
:1098A00071F90699891CC8B207F011FDB91B614313
:1098B0000C9A8918C8B207F0E1FC052012F02CF9C7
:1098C0006006050E05E00199485D09F0FFF8681C87
:1098D000C5B260000019A842F5DC052012F052F96B
:1098E000781CC7B20298874297DB07B0F0BD000032
:1098F000A6330020F7B507460E46029C002548E037
:10990000384607F0E4FC7119C8B207F0B7FC05202F
:1099100012F002F92078641C09F0D8F8052012F042
:1099200031F9791CC8B207F0D2FC7119C8B207F03E
:10993000A5FC052012F0F0F82078641C09F0C6F8A8
:10994000052012F01FF9B91CC8B207F0C0FC71194C
:10995000C8B207F093FC052012F0DEF82078641CF2
:1099600009F0B4F8052012F00DF9F91CC8B207F09F
:10997000AEFC7119C8B207F081FC052012F0CCF8DA
:109980002078641C09F0A2F8052012F0FBF8681C8E
:10999000C5B2102DB4DBFEBDF0B585B000F010F9F6
:1099A000142012F04DF8AB2006F0E0FB142012F06A
:1099B00047F8002001E0411CC8B21128FBDB3D48FC
:1099C000007C802188433B490874042301AAFF21BD
:1099D0000903032007F0FCFD0EE00A2012F030F826
:1099E000042301AAFF210903032007F0F1FD781CDD
:1099F000C7B2052F00DD09E0684601798079814210
:109A0000EBD168464179C0798142E6D100BF2AA4F2
:109A10002078FCF78CFC05462807050E6078FCF7DB
:109A200086FC4019C5B2A078FCF781FC06463007D9
:109A3000060EE078FCF77BFC8019C6B2204800686F
:109A4000009004221FA1009811F062FF012821D08C
:109A500068460079A8421DD168464079B04219D1C4
:109A600006F066F806F00EF805F080FA1748006870
:109A70001749086015480068164908600020164913
:109A800008801649088005F0BFFB05F09BFE05F035
:109A900005FD03E009F038F806F0B4F805F034FBF2
:109AA00001F06EFC05F0E0FC05F094FB05F052FAC5
:109AB00005B0F0BDC838002041303435000000004A
:109AC0007C2100204F4B202000000000742100204A
:109AD000402100203C210020482100204E21002070
:109AE000FFB583B004460F461546002002900026BD
:109AF00001900090381B401CC0B201900698401B9A
:109B0000C0B200901CE0A119C8B207F0E0FB2846E3
:109B100007F0B4FB052011F0FFFF0020029006E0E3
:109B20000C9808F0D3FF0298401CC0B20290009934
:109B300002988842F4DB052012F024F8701CC6B2AB
:109B400001988642DFDB07B0F0BDFFB583B0044665
:109B50000F46154600200290002601900090381B09
:109B6000401CC0B201900699481BC10F0918C905D5
:109B7000090E00911FE0A119C8B207F0A8FB284602
:109B800007F07CFB052011F0C7FF0020029009E0E0
:109B90000C9808F09BFF0D9808F098FF0298401C65
:109BA000C0B20290009902988842F1DB052011F0C2
:109BB000E9FF701CC6B201988642DCDB07B0F0BD3D
:109BC00010B5002011F08EFF1C2011F08BFF1D201E
:109BD00011F088FF1E2003218A0005231B0707249C
:109BE00024021B1984001A5100BF1C2011F0DAFF57
:109BF000002011F0D7FF10BDF0B585B025480569EC
:109C000000202549C86300263DE014207043234905
:109C1000096844180120B04021490968084230D041
:109C2000E068C0436840216808400746394620463E
:109C300014F086F8174800696840039003980028DC
:109C40000ED003980543E068C0436840216808408F
:109C500000902046009914F073F80098074300BF65
:109C6000A068A843384001906068284038400290BE
:109C700001990298084303D02269019902989047FC
:109C800000BF701CC6B2074800788642BDDB05B035
:109C9000F0BD00000005005040610040102300208E
:109CA0001423002019230020F3B581B00198402827
:109CB00009D10020FE490870FE480078002803D032
:109CC0000020FC49087029E2FB48407801287DD13A
:109CD000F948807800287AD101F02EFDF7480088F5
:109CE000C100081AF54908800888C117490F0918EA
:109CF000C910F24A1180002533E0F148405DF04977
:109D00000870681C085C4870A81C085C887007F024
:109D1000B5FBFCF733FFEA480078EA490870E848E9
:109D200040784870E64880788870FDF7BDFB13F0F6
:109D30009DFEE5480078002811D0E448C078172837
:109D400003DAE248C078052807DCE14800780028FB
:109D500003D0E0480078002801D0FDF7F3FCE81CB0
:109D6000C5B2DD4800788542C7DBD64840788C28EC
:109D70000ADDD44800785A2806DDD2480078A028A9
:109D800002DA0120D5490870D5480078C00973D19E
:109D9000D4480078C0096FD1D248C0788007C00F7E
:109DA0006AD102200BF072FB002808D10BF06EFB89
:109DB000002804D101200BF069FB00285CD0C148C9
:109DC0008078422858DDBF48807801E05EE15AE1A2
:109DD000BE2851DABB48407832284DDDB94840787A
:109DE000782849DAB74800785F2845DBB54800781D
:109DF000AA2841DCBC480078401FC4B237E0BB4809
:109E0000005D8030B9490855B948005D8030B849D7
:109E10000855B848005D8030B6490855B348005D24
:109E2000422822DDB148005DBE281EDAB048005D40
:109E300032281ADDAE48005D782816DA0846005D43
:109E40005F2812DB0846005DAA280EDCA3480078D4
:109E5000012809D1A8480078082188430830A6497C
:109E6000087000209D49087005E0601CC4B29E483F
:109E700000788442C3DB00BFA0480078C007C00F51
:109E800031D09D4800784007C00FF9D09A4800783B
:109E9000C006C00F27D102200CF0DEFA002822D025
:109EA000954840784007C00F1DD19548007800289C
:109EB0001AD10120924908700DF0EAF88E484078D6
:109EC00002218843801C8C49487008464078042150
:109ED0008843001D884948708A48C0780821884313
:109EE00008308849C87067E08548007803281AD18F
:109EF0000220834908700DF0CBF87F48407802219A
:109F00008843801C7C4948707E48C078082188437B
:109F100008307C49C8707848407804218843001D87
:109F20007549487048E076480078012820D1002023
:109F3000734908700DF0ACF87248C0780821884366
:109F400008307049C8706C48407804218843001D6F
:109F500069494870084640780821884308306649B6
:109F6000487008460078802188436349087023E0E0
:109F70006348007802281FD10320614908700DF062
:109F800087F86048C0780821884308305D49C87068
:109F90005948407804218843001D574948700846B5
:109FA00040780821884308305349487008460078B3
:109FB000802188435049087053480078032861D1B4
:109FC0005148007C022188434F4908743C498878F5
:109FD0000BF048FC00900098012809D100204B4963
:109FE00088800846007B41084900484801731EE00C
:109FF000009802281BD1324908788021FCF7F7F934
:10A00000C6B22F4948788021FCF7F1F9C7B2282E53
:10A010000CDD322E0ADA282F08DD322F06DA3A4814
:10A02000007C02218843801C3749087400BF2D48FA
:10A030008078802188432B498870214800786E28D9
:10A040001FDD1F4800788C281BDA1D4948788021C5
:10A05000FCF7CDF9C6B21A4988788021FCF7C7F918
:10A06000C7B2282E0CDD322E0ADA282F08DD322F57
:10A0700006DA1C488078802188438030194988702E
:10A0800000BF00BF07E007F095F804E000200B498F
:10A09000088001F0E1FB1C48007805283ED11A48F1
:10A0A000007C4006C00F39D101F034FC16482FE087
:10A0B000FE230020FD2300207C2E00209421002080
:10A0C000F7380020E8230020B5210020E2200020FE
:10A0D0007F2400207E240020FC230020B5230020C4
:10A0E0000424002020220020BD2300203639002037
:10A0F0001E39002006390020EF200020912000208A
:10A10000742000201A210020C8380020A02E002032
:10A11000007C40218843403001490874FEBD0000A6
:10A12000C83800200A4601214903884206D1044963
:10A13000097C202399432031014B1974704700009A
:10A14000C838002010B53149C868B421FBF7FEFFBC
:10A1500004462F494C8149896922514308466421AC
:10A16000FCF70AF804462B490989614308467D211A
:10A17000C900FCF701F804462748844214DD24484E
:10A18000007B04210840042803D123482049C880CB
:10A190000CE02148201A1E49C8800846007B042193
:10A1A00008431B49087301E01949CC801749086925
:10A1B000B421FBF7CBFF044615498C82898A6922BA
:10A1C000514308466421FBF7D7FF0446114909892A
:10A1D000614308467D21C900FBF7CEFF04460E48C7
:10A1E000844209DD201A0A4948820846007B08217A
:10A1F00008430749087301E005494C820349087F79
:10A200000621FBF7B9FF0249C88210BD4C2E002081
:10A21000A02E0020902E002060EA0000F8B500205B
:10A2200000900027002500BF784880887849096899
:10A23000884206D97548007975490978401AC0B234
:10A24000009072488088724908607248408972495B
:10A25000884205DC6F484089FF21F53188420ADADF
:10A260006E486C49488149898900481D6421FBF783
:10A2700083FF68490873674840897D21C900884287
:10A2800008DD644949897D22D200881A2821FBF71C
:10A2900073FF0746009841004418E419E01B662844
:10A2A00002D25C48067B22E0E01B842809D2E11B35
:10A2B000584A127B514308466421FBF747FF064684
:10A2C00015E0E01B9F2809D2E11B524A127B514343
:10A2D00008466921FBF73AFF064608E04D49097B2D
:10A2E0009622514308466421FBF746FF0646009834
:10A2F00070434B490968401849490860642148483F
:10A300000068FBF723FF06464648864202D93F49CC
:10A31000C88101E03D49CE817E2C54D904203C49BE
:10A3200008720846C068FF309130C860084640692E
:10A33000001D486120467E380A2803D2C10040181B
:10A34000451914E020467E38142803D20A214843D8
:10A3500045190CE020467E38282803D20B214843BB
:10A36000451904E020467E380C21484345190098E1
:10A370002E2822DD2648807E02281EDD2348018A01
:10A3800000980818214908820846008A2549884211
:10A390000ADD1E48008A401A1C4908820846007BD4
:10A3A00002210843194908731948006940191849DE
:10A3B00008610846007F401C08771548C0684019AE
:10A3C0001349C86021E0712C16D903201049087286
:10A3D0000846C068FF302D30C860204671388100C3
:10A3E00045187D20C000854200D905460848C06850
:10A3F00040190749C86008E0582C03D902200449D5
:10A40000087202E0002002490872F8BDA02E002068
:10A410004C2E0020902E0020B80B0000A406000057
:10A420009820002060EA0000FEB506460F4634463C
:10A43000002001900090202C02D31548844203D9BB
:10A44000134CC63C012001903946204605F052FBD2
:10A45000012801D103200190202C17D0002508E00D
:10A46000785D002803D10098401CC0B20090681CA1
:10A47000C5B2202DF4DB00981F2807DD044CC63C34
:10A48000022001903946204605F034FB0198FEBDBC
:10A49000E5FF0000F8B507460D4600260024694692
:10A4A000384602F0CBF90646002E01D10D48009047
:10A4B00029460098FFF7B8FF04462846FCF736FE09
:10A4C000002E01D10120F8BD012C01D10220FAE7B4
:10A4D000022C01D10320F6E7032C01D10420F2E77E
:10A4E0000020F0E71FFF00000146802901D2012073
:10A4F0007047802903D3C02901D20020F8E7C02982
:10A5000003D3E02901D20220F2E7E02903D3F029A6
:10A5100001D20320ECE7F02903D3F82901D204206B
:10A52000E6E7F82903D3FC2901D20520E0E7FC295E
:10A5300001D30620DCE70020DAE700B501460B0076
:10A5400008F0A0FC0A06080A0C0E10121416181ABD
:10A55000142013E0282011E03C200FE050200DE0F3
:10A5600064200BE0782009E08C2007E0A02005E0C3
:10A57000B42003E0C82001E0C82000BF00BF00BD38
:10A5800010B58748407800287EDD864840788006F0
:10A59000C00F20D08448C0788007C00F1BD18248EC
:10A5A000C078C006C00F16D1804908708048007876
:10A5B000C0090AD17A48007879498870794840788A
:10A5C000202188437749487005E07648407820216B
:10A5D0008843744948707448C078402188434030AB
:10A5E0007149C8706E488078401C6D498870084673
:10A5F00080780978884225DD05F014FD00206D493A
:10A6000008706D4908706D484078400840006B49FB
:10A6100048706B4800780007C00F06D16848006892
:10A620000121490288436649086065480088C005E1
:10A63000C00E06D162480068012189028843604942
:10A64000086010BD5F480078401C5E49087056489D
:10A6500000782021884320305349087059480078F9
:10A66000032809DD0020574908704F480078102161
:10A67000884310304C490870504840780007C00F9C
:10A6800018D05048007800E087E0012803D04D48FA
:10A690000078032807D149484078102188431030BA
:10A6A000464948700CE045484078102188434349AA
:10A6B000487005E041484078102188433F49487080
:10A6C0003D480078002805D13F480178012002F07C
:10A6D0005FFA5EE038480078012803D1002003F0DB
:10A6E0001DF956E034480078022803D1002002F01A
:10A6F0007BFC4EE030480078032803D1002003F0B3
:10A7000079F846E02C480078042803D1002002F0B4
:10A71000B3FD3EE028480078052803D1002002F070
:10A72000C5FA36E024480078092803D1002002F059
:10A7300069FB2EE0204800780A2803D1012002F0AE
:10A740002FFE26E01C4800780F2803D1012002F0DC
:10A7500099FE1EE018480078082803D1012003F074
:10A760004FFA16E0144800780C2803D1002002F0BC
:10A77000E1FC0EE0104800780D2803D1002002F023
:10A780001FFF06E00C4800780E2802D1002003F0DD
:10A7900059F9012080030DF0F7FB00BF51E70000DD
:10A7A0004E390020EF200020202200207D240020B0
:10A7B000042400202622002009220020CF2000208F
:10A7C00014240020052200200822002070B500BFBC
:10A7D000FE4900200856E121090148430546FC488E
:10A7E0000078142804DAFA480078401CF849087008
:10A7F000F8480078642808DAF6480078002804DD74
:10A80000F4480078401CF3490870F2480078142896
:10A8100008DDF1480088F1490988884202D000200B
:10A82000EF490880EF480078642808DAED4800789E
:10A83000002804DDEB480078401CEA490870E9482C
:10A840000078142808DDE8480088E849098888422B
:10A8500002D00020E6490870E6480068401CE5493F
:10A86000086008460068E449884203DD0120E349A6
:10A87000087002E00020E1490870DE4909684819C3
:10A88000DF49FBF763FC0646F61C07213046FBF761
:10A890005DFC491CDB480170D6490968DA4A891811
:10A8A0004819D749FBF752FC0E463C213046FBF7CE
:10A8B0004DFCD4484170E12109013046FBF746FCCC
:10A8C0000C463C212046FBF741FCCE498870E12133
:10A8D00009013046FBF73AFCCA49C870C548807B7D
:10A8E000401CC44988730846407B401C4873C548D7
:10A8F00080784885488D0A21FBF73EFC88B2BD4927
:10A900004885C04880788885888D0521FBF734FC10
:10A9100088B2B8498885BB4880780885088D3C2175
:10A92000FBF72AFC88B2B3490885B8480078401C78
:10A93000B6490870B6480078401CB5490870B5485B
:10A940000078C82804DAB3480078401CB149087080
:10A95000A848807B132841DD0120A649C873002048
:10A9600088730846007D401C087508462030C07B6F
:10A970002021884320309F492031C8739D48007DA5
:10A9800002282BDD00202039087508462030407948
:10A99000401CC1B29748203041714079002803DD46
:10A9A0000021944820304171924820300079401CA9
:10A9B000C1B290482030017100793B2803DD0021AD
:10A9C0008C4820300171FFF7BDFB002005F0A2FE8E
:10A9D00091488078202188438F4988708548C07BC2
:10A9E00000280DD08D48007E002805D0FFF716FC0A
:10A9F00000208A490876887600207E49C87302E0E4
:10AA00000120864908767F484078002801D10EF061
:10AA10006FFB7C48C078002816D17A4880780A28D5
:10AA200012DA7F480078C007C00F14D07C48007845
:10AA3000400840007A4908706E4800686E498842B4
:10AA400009DD05F01FFC06E075480078400840006D
:10AA5000401C73490870734800784007C00F49D103
:10AA60006448808D00281BD162482030C07B80075D
:10AA7000C00F1ED05F482030C07B022188435D4953
:10AA80002031C8735B4800685B49884211DD13F0D0
:10AA9000C7FF5848008D00280BD113F003FE08E0D3
:10AAA00054482030C07B02218843801C514920310A
:10AAB000C8735048008D002812D14E482030C07B0A
:10AAC000C007C00F3DD04B482030C07B400840003D
:10AAD00048492031C8730FF0DBF85349087130E062
:10AAE00044482030C07B40084000401C4149203190
:10AAF000C87326E03F48008D002819D13D4820301A
:10AB0000C07BC007C00F1CD03A482030C07B400833
:10AB1000400038492031C8730FF0BAF84249087133
:10AB200034480068344988420BDD13F0BBFD08E06F
:10AB300030482030C07B40084000401C2D49203167
:10AB4000C8733048C078002872D12E4880780A280F
:10AB50006EDA28482030C07B0007C00F69D0002083
:10AB60002449488308462030C07B08218843214976
:10AB70002031C8731F48C08B032108431D49C88377
:10AB8000084620300078401CC1B21A4820300170BD
:10AB90002038C08B02210840022851D11548C08BB3
:10ABA00088431449C8830868E1210901FBF7E4FAE6
:10ABB0000446E12000014443601E000E1B49C8709A
:10ABC000601E0002000E8870601E33E02821002005
:10ABD000E4210020DD210020D4210020D821002004
:10ABE00054210020C8210020C4210020C6210020BB
:10ABF00073210020EC2E0020805AC3527F240020B5
:10AC000080510100E2200020806E1E4D1F21002097
:10AC1000202100205A210020042400204C2E002056
:10AC20005221002091200020D1200020A02E0020C1
:10AC300013E011E00004000E4870601E087000BFB1
:10AC400005F0AEF9002005F065FD7B480078072887
:10AC50000ADD01217848017006E07748C07B0821B1
:10AC6000884308307449C87374480088E121C900DA
:10AC700088420FDA724800788007C00F04D06F480E
:10AC80000088401C6D4908806E4840780821884340
:10AC90006C4948706B48C078C006C00F0DD06A4838
:10ACA00000886A4988420EDD6648C07810218843D2
:10ACB0006449C87013F0E6FC05E0634800889628F4
:10ACC00001DD13F0DFFC5F4840780007C00F0DD0B6
:10ACD0005C4840784007C00F18D15A488078012856
:10ACE00014D174DF0020574988700FE055488078F0
:10ACF00000280BD156480078002807D15548006835
:10AD00000121C905884340185249086009F0C4FD73
:10AD1000FCF7FEFAFBF774FB4E480088C004C00F36
:10AD200012D04D4800781E2805DA4B480078401CA8
:10AD3000494908700BE047480068012149038843EE
:10AD400040184449086002E0002043490870414827
:10AD500000680003C00F2DD040480078401C3F49D8
:10AD600008703F4840780978884223DC39480068F9
:10AD70000121C90488433749086008460068012159
:10AD80008904884340183349086002203549087017
:10AD90000020324908702F4800888005C00F09D173
:10ADA0002C4800680121490288434018294908605D
:10ADB000FCF714FE27480068C001C00F13D02A48D2
:10ADC0000078401C284908700846007802280DDDEC
:10ADD000204800680121090688431E4908600020B8
:10ADE0002149087002E000201F49087019480068D6
:10ADF0004001C00F1BD01D480078401C1B49087043
:10AE000008460078052815DD124800680121C906AA
:10AE1000884340180F4908600846006801218906E8
:10AE200088430C49086000201049087002E00020A7
:10AE30000E49087070BD00000C2F0020BA210020C0
:10AE4000912000201A210020962100204E020000AF
:10AE5000C838002014240020E42300207B24002094
:10AE6000402400207A240020E5230020E72300204E
:10AE700000F04EFF31B582B0029801900024E44307
:10AE800001980402240A69460720085600280BDDB1
:10AE9000002003E00A214C43411CC8B26A46072146
:10AEA00051568142F6DC1BE06846C079002803D188
:10AEB00001980402240A13E06846C079404241B276
:10AEC0006846C171002506E00A212046FBF73EF9DD
:10AED0000446681CC5B2694607200856A842F3DC40
:10AEE00020463EBD70B50446254664212846FBF742
:10AEF00043F91C49887064212846FBF73DF9CDB21F
:10AF00000A212846FBF738F9164948700A212846D5
:10AF1000FBF732F9C8B2134908700026084680785A
:10AF2000002805DD0846807830308870012602E070
:10AF300020200C498870012E03D00A484078002850
:10AF400006DD08484078303006494870012602E0A6
:10AF500020200449487003480078303001490870C7
:10AF600070BD0000F521002070B505462E46394918
:10AF70003046FBF7EBF83849087136493046FBF7A5
:10AF8000E5F80E467D21C9003046FBF7DFF832496F
:10AF9000C8707D21C9003046FBF7D8F80E46642101
:10AFA0003046FBF7D3F82C49887064213046FBF714
:10AFB000CDF80E460A213046FBF7C8F826494870FE
:10AFC0000A213046FBF7C2F82348017000240079BB
:10AFD000002806DD2048007930301F49087101241F
:10AFE00002E020201C490871012C03D01A48C078C7
:10AFF000002806DD1848C07830301749C870012491
:10B0000002E020201449C870012C03D01248807837
:10B01000002806DD1048807830300F498870012400
:10B0200002E020200C498870012C03D00A484078A7
:10B03000002806DD08484078303007494870012470
:10B0400002E020200449487003480078303002496B
:10B05000087070BD10270000F521002070B504466F
:10B06000254622492846FBF771F8214908711F49F6
:10B070002846FBF76BF80D467D21C9002846FBF7F3
:10B0800065F81B49C8707D21C9002846FBF75EF8AA
:10B090000D4664212846FBF759F81549887064214C
:10B0A0002846FBF753F80D460A212846FBF74EF8D1
:10B0B0000F4948700A212846FBF748F80C480170F0
:10B0C000007930300A4908710846C0783030C870BD
:10B0D00008468078303088700846407830304870B4
:10B0E000084600783030087070BD0000102700005E
:10B0F000F521002070B505464948854201D906462C
:10B1000000E02E4647493046FBF720F84649487193
:10B1100044493046FBF71AF80E4644493046FBF7DF
:10B1200015F84149087141493046FBF70FF80E46C2
:10B130007D21C9003046FBF709F83B49C8707D21E5
:10B14000C9003046FBF702F80E4664213046FAF794
:10B15000FDFF3549887064213046FAF7F7FF0E4647
:10B160000A213046FAF7F2FF2F4948700A2130468B
:10B17000FAF7ECFF2C48017000244079002806DD26
:10B1800029484079303028494871012402E02020C4
:10B1900025494871012C03D023480079002806DD99
:10B1A00021480079303020490871012402E0202034
:10B1B0001D490871012C03D01B48C078002806DD0A
:10B1C0001948C07830301849C870012402E02020A6
:10B1D0001549C870012C03D013488078002806DD7B
:10B1E00011488078303010498870012402E0202016
:10B1F0000D498870012C03D00B484078002806DDEB
:10B2000009484078303008494870012402E0202085
:10B21000054948700448007830300349087070BD13
:10B220003F420F00A0860100F521002010270000FA
:10B2300010B5002323E00C782411092C05DD0C78CF
:10B24000241137340470401C04E00C78241130348D
:10B250000470401C0C782407240F092C06DD0C78A0
:10B260002407240F37340470401C05E00C782407B1
:10B27000240F30340470401C491C5C1CE3B2934220
:10B28000D9DB10BD01460A06100F0A2804DA02466F
:10B2900030320A4B5A7003E002463732074B5A707D
:10B2A0000807000F0A2804DA02463032034B1A70EE
:10B2B00003E002463732014B1A707047FB21002031
:10B2C00070B50024202211462A48FAF7BBFF00255A
:10B2D00032E02949485D06F095FC6100254A50544A
:10B2E00060001146085C052807D1600040184570D1
:10B2F000A01CC4B2A81CC5B219E060001D49085CBE
:10B30000002807D1202061001A4A50546100891892
:10B3100048700CE060001749085C052807DA1648F9
:10B32000405D6100134A89184870601CC4B2102C3B
:10B3300000D303E0681CC5B2202DCAD300BF002C87
:10B340000AD00E2C08DC0E21081BC10F0918491069
:10B35000891C0A4A11700BE00E2C03DD02200749FC
:10B36000087005E0082005490870002001490870B0
:10B3700070BD000089390020A93900203224002046
:10B3800010B535484489B42060433449C860324818
:10B39000848AB420604308612F488088086030495F
:10B3A00049898900481D6421FAF7E6FE2C49087393
:10B3B0002C480078032802DD00202A490870FEF797
:10B3C000C1FE00202849087001202849087028493A
:10B3D00008702848007C08218843264908740846DC
:10B3E000007C0421884323490874234840780421C1
:10B3F00088432149487008464078102188431E49F7
:10B4000048701E484079402188431C4948710EF01D
:10B4100027FD1B480078C007C00F02D111490870F2
:10B4200006E010480078032802DD00200D4908706E
:10B430001248407980218843104948710020114901
:10B44000C8700A2048710D488079400840000B49B7
:10B45000887114F011F910BDA02E00204C2E002090
:10B46000902E002074200020C5200020C62000203F
:10B47000C7200020C8380020EF200020042400202E
:10B48000912000202722002000200021374A11703F
:10B490005170917051601172354909785172344977
:10B4A000097891720021D1721173324A1170324AB7
:10B4B00011700921314A11700021314A1170314A4D
:10B4C0001170314A1176517600BF4CE004214201DF
:10B4D0002E4BD218917200214201D218D1728021D4
:10B4E0004201D21811734201D21851730021420156
:10B4F000D21891734201D218D173FF214201D218A0
:10B50000117400214201D21851744201D218917471
:10B510004201D218D1744201D21811754201D218D9
:10B5200051754201D218917514214201D218D1757A
:10B5300000214201D21811764201D21851764201FF
:10B54000D21891764201D21891774201D218D17661
:10B550004201D21811774201D21851774201D21814
:10B56000D177411CC8B20328B0DB70473C2E0020C5
:10B570008D2000208F2000208320002084200020A8
:10B5800085200020862000204C2E0020DA2D00206F
:10B5900010B5002426480078032818D1202025491A
:10B5A0000870402024490870302024490870202069
:10B5B000234908701C202349087014202249087070
:10B5C00010202249087006202149087017E0102039
:10B5D0001849087020201849087018201749087069
:10B5E0001020174908700E20164908700A201649C5
:10B5F0000870082015490870042015490870FFF7E5
:10B6000043FF002410E00020124908550021114892
:10B61000401D01551B300155401D01551B30015582
:10B62000401D0155601CC4B2052CECDB10BD0000B0
:10B6300090200020872000208820002089200020E2
:10B640008A2000208B2000208C2000208D200020CC
:10B650008E200020DA2D0020F3B583B00E460024A2
:10B6600000200290451E0027039800281DD101905C
:10B670003446019015E01E48844205D90A2130461F
:10B68000FAF764FD044609E0019847B202943D468A
:10B690002D03029C2D19284605B0F0BD0198401CD1
:10B6A000019001980828E6DD00BF039801281DD10C
:10B6B000002001903446019014E00E48844205D9E0
:10B6C0000A213046FAF742FD044608E0019847B2E5
:10B6D00002943D462D06029C2D192846DCE7019870
:10B6E000401C019001988028E7DD00BF2846D3E781
:10B6F000FF0F0000FFFFFF0070B502460020540658
:10B70000230E00BF06E00C5CDD000A4EAD192C5480
:10B71000441CE0B20828F6DB002008E00C18257A6B
:10B720005C1CE400034EA4192554441CE0B2082814
:10B73000F4DB70BD863300201FB5E820694608722F
:10B74000012403E002A80455601CC4B2072CF9DBF5
:10B75000002426E06B4602AA07211B48006812F06D
:10B7600041FF68468178600020180930174A11545B
:10B7700068460179600020180A30115468468179C2
:10B78000600020180B3011546B469B795AB26B46FF
:10B790001B7959B26B469B7858B20BF099FF601C2D
:10B7A000C4B2062CD6DB062010F0E2F9002807D040
:10B7B00000212E2012F030FE46212E2012F02CFE09
:10B7C0000DF06AFD1FBD000000240020DC380020C1
:10B7D00010B50C2003210522120707231B02D218E3
:10B7E0008300D15000BF00BF01218140084A916011
:10B7F00000BF00220321104612F074FE05490860C4
:10B8000000F00AF8052010F01BF900F025F810BD33
:10B81000000500500024002070B5002501210620FD
:10B8200010F03AF90121072010F036F94025084BB5
:10B830002A462946074808F0B1F80446002C01D0F2
:10B84000E0B270BD0348007808F02CF80120F8E75A
:10B85000A99C0100BC23002010B53721202012F044
:10B86000DBFD052010F0ECF80021212012F0D4FDC2
:10B870000821232012F0D0FD0421222012F0CCFD5B
:10B880004021242012F0C8FD8021252012F0C4FDA3
:10B8900000212E2012F0C0FD46212E2012F0BCFD0A
:10B8A0000021302012F0B8FD05F064FC10BD00004E
:10B8B00010B52721202012F0AFFD052010F0C0F8B0
:10B8C0000921212012F0A8FD4021222012F0A4FD20
:10B8D0000021232012F0A0FD0021242012F09CFD65
:10B8E00000212E2012F098FDFF21A62012F094FDD9
:10B8F0000021332012F090FD0621322012F08CFD41
:10B900000120034908702A21302012F085FD10BD66
:10B91000FD23002010B50021202012F07DFD012024
:10B9200010F08EF80021222012F076FD02480078F7
:10B9300007F08EFF10BD0000BC2300201FB51F487C
:10B940000078030007F09EFA060405111B1C263040
:10B950001FBD0021684681720121C1728C21817353
:10B960000399029800F034F81FE007221449684652
:10B97000FAF756FC0199009800F02AF815E014E057
:10B98000072210496846FAF74BFC0199009800F02D
:10B990001FF80AE007220C496846FAF741FC0199B2
:10B9A000009800F015F800E0D2E700BF07480178E2
:10B9B000FF2000F0E1F800BFCAE700007A24002071
:10B9C000402400204E24002055240020382400204C
:10B9D00013B5684680786249087068468078002808
:10B9E00017D16846C0784006000E5E4908700020F6
:10B9F00048708870684680795B4908708C20487070
:10BA000088705848007859490870002058490870D3
:10BA10009FE068468078012816D16846C0784006C5
:10BA2000000E504908700020487088706846807980
:10BA30004D490870C8204870887004204B49087030
:10BA400002204B49087084E068468078022822D1A1
:10BA50006846C0784006000E424908700020887091
:10BA60006846807940490870684640794870C82027
:10BA7000887002203D4908703D49087039490878AE
:10BA80000521FAF779FB4100401839490978401837
:10BA9000344948705DE068468078032823D16846C1
:10BAA000C0784006000E2F49087000208870684654
:10BAB00040792D490870684680794870C8208870A0
:10BAC00004202A490870022029490870254908786D
:10BAD0000521FAF751FB4100401825490978401823
