:020000040001F9
:10600000003E0020156101002F610100F1A6010092
:106010000000000000000000000000000000000080
:1060200000000000000000000000000033610100DB
:106030000000000000000000356101003761010030
:1060400039610100396101007137020039610100D5
:106050003961010000000000419401003961010034
:10606000396101003961010009370200396101001D
:1060700039610100396101003961010039610100B4
:106080003961010029F30100396101003961010022
:106090008D11020095110200C11102003961010049
:1060A00039610100396101000000000000000000BA
:1060B00000000000000000000000000000000000E0
:1060C0000348854600F0F6F800480047A9B50200ED
:1060D000003E0020401E00BF00BF00BF00BF00BF49
:1060E00000BF00BF00BF00BF00BF00BF00BFF1D1B5
:1060F00070470000401E00BF00BF00BF00BF00BFD0
:1061000000BF00BF00BF00BF00BF00BF00BFF1D194
:10611000704700000321094802680A4302600848EA
:1061200002680A4302600748804707480047FEE7C5
:10613000FEE7FEE7FEE7FEE7FEE70000240500407D
:1061400054050040D1360200C160010030B50B4655
:10615000014600202022012409E00D46D5409D4241
:1061600005D31D469540491B2546954040191546C7
:10617000521E002DF1DC30BD70B5002425460028EC
:1061800001DA01244042002901DA01254942FFF7E2
:10619000DDFFAC4200D04042002C00D0494270BD2F
:1061A000F0B51FB40646002082B005464024019198
:1061B00000901BE0019922460F46304600F068F837
:1061C000049A059B801A994110D31046194622461D
:1061D00000F016F8361A8F4101972246012000215F
:1061E000009F00F00DF838184D4100902046641EC5
:1061F0000028DFDC019B00982946324607B0F0BD3D
:1062000010B5202A04DB0146203A9140002010BD41
:10621000914020239C1A0346E3401943904010BD4F
:1062200003460B439B0703D009E008C9121F08C0AF
:10623000042AFAD203E00B78491C0370401C521E5A
:10624000F9D27047D2B201E00270401C491EFBD265
:1062500070470022F6E710B513460A460446194671
:10626000FFF7F0FF204610BD421C0178401C0029BA
:10627000FBD1801A704730B504460020034600E089
:106280005B1C934203D2E05CCD5C401BF8D030BD78
:1062900010B5202A04DB0846203AD040002110BD6A
:1062A0000B46D340D0402024A21A914008431946FF
:1062B00010BD0000064C0125064E05E02046E368AF
:1062C00007C82B4398471034B442F7D3FFF7FCFEBE
:1062D0001C2F03003C2F030030B58C180278401CA3
:1062E00013071B0F01D10378401C120906D1027855
:1062F000401C03E00578401C0D70491C5B1EF9D161
:1063000001E00B70491C521EFBD1A142E6D30020D4
:1063100030BD00B50146422940D00EDC0A46303A75
:1063200013000EF0C5FE12232527292B2D2F313304
:106330003549494949494949384962292DD00CDC38
:10634000452934D004DC43292BD0442934D12BE017
:1063500046292FD061292FD11CE0632920D0642940
:1063600021D0652922D0662926D122E0002025E00F
:10637000012023E0022021E003201FE004201DE093
:1063800005201BE0062019E0072017E0082015E093
:10639000092013E000BF0A2010E000BF0B200DE031
:1063A00000BF0C200AE000BF0D2007E000BF0E2058
:1063B00004E000BF0F2001E0FF2000BF00BF00BDD0
:1063C00002468A4202DD501AC0B27047881AC0B233
:1063D000FBE702468A4202DD501A80B27047881AF3
:1063E00080B2FBE7FEB501200090012546484078C9
:1063F00002900298012800D0FEBD44480078012890
:1064000000D0F9E742480078002804D141480078DC
:10641000C009002800D0EFE73B488678C7780078AD
:1064200001900198411E00988840C0B200903A48FF
:106430000088C005C00E002864D1002460E0284612
:10644000A040C5B2E00021183048401C405C012843
:1064500053D1E00021182D48401C08188078B04224
:106460004BD1E00021182948401C08184078B84258
:1064700043D1E00021182548401C0818C0780028A6
:106480001CD125480068FF21F13188432901FF22F2
:10649000F13211400843204908600021E000221831
:1064A0001A48401C81541C48006801218902884315
:1064B0004018194908600AF0A1FE9DE7E000211884
:1064C0001248401C0818C07800990840002814D0D1
:1064D00011480068FF21F13188432901FF22F13280
:1064E000114008430C4908600846006801218902F0
:1064F00088434018084908607EE70125601CC4B243
:10650000032C9CDB00BF77E7AA200020D1380020B5
:10651000E43700209C230020AC23002070B5012527
:1065200000243CE02846A040C5B21F480088C005B2
:10653000C00E284000282FD0E00021181B48081862
:1065400000791B498870E000211818480818407924
:106550001749C870E000211814480818007A144937
:106560008871E000211811480818C0791049487155
:106570000520104908700C4800680121490488432F
:10658000401809490860E0002218084810184179AD
:10659000002005F039FE70BD0125601CC4B2032C3B
:1065A000C0DB00BFF7E70000AC230020D23800209A
:1065B000F123002031240020F8B50446002C01D13D
:1065C0000420F8BD2578641C2078641C009026788F
:1065D000641C27460098012858D1042D01DA0320B5
:1065E000EFE7281FC5B2002E31D1294800780028D6
:1065F0002BD128480078C009002826D126480078E9
:10660000012820D12548006801214902884340180B
:1066100022490860084600680821884308301F495D
:106620000860202D00D9202520211D48FFF711FEEC
:106630002A4639461A4815F0C6FE04F081FA01F0E0
:1066400041F90120BDE70220BBE70420B9E7022E93
:106650001CD1012013490870104800687104884358
:106660000E49086008460068B10388430B4908607A
:106670000D4800780C498978401A042804DD0A483E
:106680000078001F0849887001209AE7032098E7E6
:10669000E43700209C230020DC230020AC230020D2
:1066A000B1380020D12300206A380020F3B587B02C
:1066B0000027142102A8FFF7CCFD0898857E6846C4
:1066C00005720898008B152856DA002D50DD042D30
:1066D0004EDA681EC5B200240AE008981A30001984
:1066E0004178132068430019374A1154601CC4B222
:1066F0000898008B401EA042EFDC33480078382811
:1067000003D903206946087339E02F480178132024
:1067100068430019814229DC002606E02A49701CE2
:10672000085CC01987B2701CC6B227480078801E6A
:10673000B042F3DC2449701C085C0190019800020F
:106740000190701CC6B2701C095C0198081880B2D8
:1067500001900198B84205D11B48FFF72DFF69460B
:10676000087302E000206946087308E009B0F0BD34
:1067700003206946087302E0032069460873052177
:106780006846417210484178684681720E488178A7
:106790006846C1720027002406E002A9A01C085C1C
:1067A000C01987B2601CC4B26846407A801EA042FD
:1067B000F3DC391268464173877302A9079810F019
:1067C00033FB00BFD2E700006033002070B5044601
:1067D0000E46B51D2988608A814204D1294620468B
:1067E00019F098FE07E02888E188884203D12946FD
:1067F0002046FFF75BFF70BDF7B586B005460E4635
:10680000114885421CD01427059700200190029062
:1068100003900490684686800221817100210181E5
:1068200005A803900898049001A92846A6DF04460D
:10683000002C04D16846808AB84200D00C2400E0C5
:106840000824204609B0F0BDFFFF0000F7B586B070
:1068500005460E46114885421CD014270597002096
:106860000190029003900490684686800121817116
:106870000021018105A803900898049001A92846E9
:10688000A6DF0446002C04D16846808AB84200D0B6
:106890000C2400E00824204609B0F0BDFFFF0000F2
:1068A0007CB50446022000900026608A01AB6A464F
:1068B0000021A5DF0546002D03D101A810F04DFAF7
:1068C000064630467CBD00001C480078002803D0F6
:1068D00000201B49087070471948007800282BDDFC
:1068E0001748007817490988401816490880164843
:1068F00080881349097840181349888008468088A1
:106900001249884215DD1048007BC007C00F0028DF
:1069100003D008460C4988800BE00B4880880B495F
:10692000401A094988800846007B0121084306492E
:10693000087300200249087000BFCCE75A200020ED
:10694000C0270020402000202428002060EA00000A
:1069500010B500240021FE48007801F0DDFB012184
:10696000FC48007801F0D8FB0221FB48007801F0D8
:10697000D3FB01F007FDF9488078002801D101F030
:106980007DFDF6488078012877D101F0C9F8F448F8
:10699000007A002812D1F348C07802218843801C75
:1069A000F049C8700120EE490872EE48C078042111
:1069B0008843EC49C8700020EB490860E9488078BA
:1069C000202188432030E749887018F02BFBE748E6
:1069D000007800282AD1E6480078022805D1E54849
:1069E0000069801CE349086108E0E1480078032859
:1069F00004D1E0480069401CDE490861DD480069B7
:106A00000F21C901884207D90020DA490861DA4814
:106A10000089401CD8490881D6484068D749884237
:106A200004D2D4484068401CD2494860CB48007822
:106A3000002822DDCB48C0788007C00F00281AD07C
:106A4000C6480078C84909684018C7490860084620
:106A5000006863280FD9C348C07802218843C14920
:106A6000C8700846C07804218843001DBD49C8701D
:106A70000020BD490860FFF727FFC1480078401C8F
:106A8000BF49087008460078202801DD00F0ECFAC4
:106A9000BC48807F401CBB49887708462030807FF7
:106AA000401CC1B2B748203081772030807F401C25
:106AB000C1B2B44840308177B3480078002879DD0E
:106AC000A6480078B04909784018A4490870002009
:106AD000AD490870A14840784001AA494018C07AE1
:106AE000502804DDA948807E401CA8498876A0482B
:106AF000007803285FD19948407B462859DD9748A4
:106B0000407A9649497849019E4A891889784118FE
:106B10009248807A801D81424BDA9B480078012898
:106B200047D11046807A042812DA8C484078002831
:106B30000ED18A48417B104680790818962807DDD7
:106B400086480078401C8549087010464079487393
:106B50008C482030807A042814DA80484078012854
:106B600010D17E48417B87482030807908189628CC
:106B700008DD7A480078401C784908708148203048
:106B8000407948737F48807A0428C5DA7348407892
:106B90000228C5D17148417B7A4880790818962827
:106BA000ACDD6E480078401C6C490870754840792F
:106BB00048733FE1A9E06948407800282FD1714827
:106BC000C179007A09186F48407A0C1806212046CE
:106BD000FFF7BCFA6B49897988420DD969488079F9
:106BE000142809DA00205D4988700520684908707A
:106BF0000020684908701DE162488079E1088842F8
:106C0000D7D2604880792828D3DA00205349887089
:106C100005205F49087000205E4908700AE14F486E
:106C20004078012836D157482030C179007A0918B8
:106C300054482030407A0C1806212046FFF786FA87
:106C4000014650482030807981420ED94D4820308D
:106C50008079142809DA00204049887005204C49C1
:106C6000087000204B490870E4E0464820308079E5
:106C7000E10888429DD2434820308079282898DA5C
:106C8000002036498870052041490870002041499C
:106C90000870CFE03148407802288AD13948403026
:106CA000C179007A091837484030407A0C1806211B
:106CB0002046FFF74BFA0146324840308079814246
:106CC0000ED9304840308079142809DA0020234951
:106CD000887005202E49087000202E490870A9E010
:106CE000284840308079E10888420DD2254840305C
:106CF0008079282808DA002018498870052024495E
:106D0000087000202349087094E01948007803288F
:106D10007ED11248407B3C287ADD1A48807A0428CC
:106D200041DA0E48407800283DD10C48417B154897
:106D3000807908188C2836DD0848807A052832DDED
:106D400006480078401C054908700E48407923E049
:106D500048200020492000204A200020C027002091
:106D6000F02700209C230020A42000205A2000208F
:106D7000582000200028002024280020FFFF0000C9
:106D80004B2000205E2700204D200020D02700202F
:106D90004C2000204E20002048730846807A48721C
:106DA0000846007A88723A48807A04281CDA394802
:106DB0004078012818D13748417B35488079081838
:106DC0008C2811DD3348807A05280DDD31480078A4
:106DD000401C304908702E48407948730846807A34
:106DE00048720846007A887229482030807A042840
:106DF00020DA2848407802281CD12648417B2448C4
:106E00002030807908188C2814DD2248807A00E030
:106E100010E005280EDD1F480078401C1D49087051
:106E20001B482030407948730846807A48720846EB
:106E3000007A887204201649203988720421144887
:106E40008172203081721348807800281FD1124847
:106E5000007805281BD111480078401C0F490870A4
:106E600008460078502812DD0020087008482038B5
:106E7000807E06280BDA0648807E062807DA04485A
:106E80002030807E062802DA09200349087010BDF0
:106E90007E270020C02700204C2000204E2000200C
:106EA00010B5114884880020104948710E48007BB5
:106EB000C007C00F002801D00D4824180D48844297
:106EC00000D904460C484078C007C00F002806D0FF
:106ED0000A48006824180A48844200D9044620461B
:106EE00003F048FD10BD000024280020BB21002035
:106EF00060EA0000C0D40100EC210020E021002065
:106F00003F420F0030B588B002460020002100BF8C
:106F10001BE000236C462354002112E06B461B5CEF
:106F20005B106C4623544B00D35C83408024234089
:106F3000002B04D06B461B5C23436C4623544B1C34
:106F4000D9B20829EADB431CD8B20828E1DB0020CB
:106F500026E00024034608336D46EC5400211BE074
:106F6000034608336C46E35C5C10034608336D4609
:106F7000EC544B005B1CD35C834080242340002BEB
:106F800008D0034608336C46E35C80242343044660
:106F900008342B554B1CD9B20829E1DB431CD8B26D
:106FA0000828D6DB002026E00024034610336D4677
:106FB000EC5400211BE0034610336C46E35C5C108C
:106FC000034610336D46EC544B001033D35C8340C2
:106FD00080242340002B08D0034610336C46E35C2A
:106FE00080242343044610342B554B1CD9B2082966
:106FF000E1DB431CD8B20828D6DB002026E00024C1
:10700000034618336D46EC5400211BE00346183349
:107010006C46E35C5C10034618336D46EC544B0041
:107020001133D35C834080242340002B08D00346D7
:1070300018336C46E35C80242343044618342B55F4
:107040004B1CD9B20829E1DB431CD8B20828D6DB97
:10705000002004E06B461B5C1354431CD8B220286C
:10706000F8DB08B030BD00001E488078002821D130
:107070001D48C07E142804DD00201B49887619496C
:10708000087219482030C07E142806DD00211648F9
:107090002030817600201349087213484030C07EAA
:1070A000142812DD002110484030817600200D495F
:1070B00008720AE00B48407840010B494018C07E36
:1070C000142802DD00200749887000200649C87690
:1070D000002105482030C1762030C17600200349C8
:1070E00008707047C02700205E2700204B2000203A
:1070F00010B562484079642804DA60484079401C41
:107100005E4948715D4840790A2802DD00205B49EC
:1071100008710D2015F05CFA002838D15848007825
:10712000C009002832D05748C07820218843203039
:107130005449C870084600788021884380305149FE
:1071400008704F480078802188434D49087000201E
:107150004A4948704B4800784021884340304949AB
:107160000870464840790A280ADC44480079401CE7
:107170004249087108460079022801DD0120C870E3
:107180003F484079402188433D49487110BD3C4803
:107190000078C00900283CD1394800788021884314
:1071A00080303749087037480078C007C00F002882
:1071B00008D104F0E1FE3348007840084000401C4C
:1071C00030490870012030494870FF2008700020C5
:1071D0002A49487009202D49087013F0B9FE2A4940
:1071E000C870C87804F02AFF012005F0A7FF01202D
:1071F000800312F0F1F82248407940218843204969
:1072000048711E4840790A2803DD00201B49487157
:10721000087113F09DFE1C49C8700E2015F0D8F9B6
:10722000012819D115484078401C14494870084677
:10723000407805281ADD07201349C87010480078E7
:10724000102188430E49087005200C4948700E49EA
:10725000C87804F0F3FE09E009480078102188435B
:107260001030074908700020044948700020064982
:1072700088700A20087000BF88E70000F321002012
:107280009C230020EC2100206A380020D52100201A
:1072900098480078C009002816D197480078C0099E
:1072A000002811D19448C0788007C00F00280BD166
:1072B000924800888005C00F002805D18F480088BB
:1072C0004005C00F002800D070478D480078322854
:1072D00004DA8B480078401C894908708848007897
:1072E000192830DC874840783F282CDD85484078D5
:1072F000702828DA834800786E2824DD81480078D9
:10730000912820DA7F48807842281CDD7D488078EB
:10731000802818DA7C480078002814D17B4800784F
:10732000401C7A4908700846007801280BDD0120CE
:107330007749087002207749087001207249087067
:107340000020724908706F48007864281CDD6D4881
:107350000078962818DA6B484078932814DD69483D
:107360004078D92810DA6748807864280CDD6548B1
:107370008078962808DA002063490870664908700A
:10738000624908705E4908705E48007893281CDDE9
:107390005C480078D92818DA5A484078642814DD07
:1073A00058484078962810DA5648807864280CDDD2
:1073B00054488078962808DA0020534908705649C6
:1073C0000870524908704E4908704E4800782828C5
:1073D0001CDD4C4800786E2818DA4A48407864284A
:1073E00014DD48484078962810DA464880786428AA
:1073F0000CDD44488078962808DA0020424908705D
:1074000045490870414908703D4908704048007876
:10741000002819D04148C078172803DA3F48C078BF
:10742000052807DC3E480078002803D13D48007855
:10743000002809D10020364908703B48007808210F
:1074400088430830384908702B480078C007C00FBF
:10745000002848D0284880788006C00F002842D1F4
:1074600028484078962817DD30480078401C2F497E
:1074700008702F480078002811D0084600780328AB
:107480000DDD294840782021884320302649487066
:1074900000202749087002E000202449087019489C
:1074A0000078AA2803DC174800785F2817DA2148FB
:1074B0000078401C1F4908701D480078002817D02C
:1074C00008460078052813DD1748407820218843B6
:1074D00020301549487000201549087008E0002048
:1074E0001449087004E00020104908701149087020
:1074F00000BFE9E69C230020EC210020AC23002003
:1075000091200020802300208E2000209020002049
:107510008C2000208D2000208F200020AA20002019
:107520003724002038240020B720002066230020C4
:1075300036240020672300202F480078C009002847
:107540000AD12E480078C009002805D12B48C07800
:107550008007C00F002800D07047294840788C2849
:107560000EDD2848007800280AD1254800785A28DE
:1075700006DD23480078A02802DA0120214908709E
:107580001F4840783F2831DD1D48407870282DDAAB
:107590001B4800786E2825DD19480078912821DAEB
:1075A00017488078422819DD15488078802815DA38
:1075B0001548007800281CD1012013490870114893
:1075C0000078002815D01148007808218843083039
:1075D0000E49087000200B490870BDE700200A49D9
:1075E000087006E000200849087002E00020064903
:1075F000087000BFB0E700009C230020EC210020B1
:10760000802300206923002068230020B720002069
:107610001FB5002004E000216A461154411CC8B285
:107620001028F8DB01206946487310236A46F721C9
:10763000090302200BF0BCFD01236A460249022027
:107640000BF0FAFD1FBD000010700F002021C200DA
:107650000B4B9954C200D2185170C200D2189170CD
:10766000C200D218D170C200D2181171C200D21853
:107670005171C200D2189171C200D218D1717047F5
:10768000DE2C002020220A214143134B5A540A21A8
:107690004143C9184A700A214143C9188A700A2116
:1076A0004143C918CA700A214143C9180A710A2105
:1076B0004143C9184A710A214143C9188A710A21F4
:1076C0004143C918CA710A214143C9180A720A21E3
:1076D0004143C9184A727047FE2C00207CB518F04F
:1076E0009DFB13F04DFD14F0C7FE13F083FA0F203D
:1076F00013F0B8F801F072FD0A2014F0E5FE002046
:10770000274908700FF034FB0A2014F0DDFE00BF9B
:10771000244A0A2108200EF09FFB044600BF25469C
:10772000002D06D000BF20A2234928460EF016F9EE
:1077300000BF00BF00BF16F0AFF90FF0A5FC11F0BD
:10774000D5FD13F0ADFA17F001F817F003F90EF0BC
:1077500037F811F0E5F80EF027FD16F067FF17482F
:1077600035DF03F0F9FE13F008FE13F0F1FB1449C6
:1077700008710FF074FD05F061F904F05DFF18F079
:10778000B5FE14F085FD05206946887001990098C2
:1077900004F0A6F90B480178CC2004F075FA7CBD02
:1077A000B4210020B03200202E2E5C2E2E5C2E2E16
:1077B0005C6D61696E2E6300D70500008C2100208E
:1077C00099200020D4230020F7B50E46154600244A
:1077D000002736E000980BF00AFB30460BF0DEFA8B
:1077E000287820380701052014F0DAFE002406E08E
:1077F0003919164A505C0DF092FA601CC4B2082C7C
:10780000F6DB052014F002FF0099491CC8B20BF00A
:10781000EEFA30460BF0C2FA052014F0C1FE08243F
:1078200006E03919094A505C0DF079FA601CC4B2BF
:10783000102CF6DB052014F0E9FE6D1C30460830F4
:10784000C6B228780028C5D1FEBD0000C8060300D6
:10785000F8B505460E4617460024042D01DB072D1A
:1078600000DDF8BD702E00DDFBE728460BF0BFFA07
:1078700030460BF093FA052014F092FE002404E049
:10788000385D0DF04CFA601CC4B2102CF8DB0520FA
:1078900014F0BCFE691CC8B20BF0A9FA30460BF01C
:1078A0007DFA052014F07CFE102404E0385D0DF014
:1078B00036FA601CC4B2202CF8DB052014F0A6FEBA
:1078C00000BFCEE710B50020FFF7C0FE0120FFF794
:1078D000BDFE0220FFF7BAFE0320FFF7B7FE25200A
:1078E000214948712620887127211F48417228218B
:1078F00081721E480078002808D121211A4841755C
:10790000222181752321417624218176184800782F
:10791000C007C00F002808D104F02EFB14480078DF
:1079200040084000401C124908700D2011490870A1
:10793000012005F0E7FF00200F4988700F484078CC
:107940000E49C97840184006000E0B490870012006
:107950004870074800784021884305490870012095
:10796000800311F039FD10BDDE2C0020913800207D
:10797000EC210020D52100206A380020DC230020E3
:1079800010B54048C078C009002807D002F026FA98
:107990003C48C078802188433A49C8703948C0784B
:1079A0008006C00F002819D036480078C007C00FE5
:1079B000002803D113F0CCFA334908713148C0785C
:1079C0004006C00F002807D014F074FE2D48C07880
:1079D000402188432B49C87017F024FB2948C07800
:1079E0000007C00F00280ED00AF006FA2548C0781C
:1079F000082188432349C8700846C078102188436D
:107A000010302049C8701F48C0788007C00F002878
:107A100037D01C48C078C007C00F002807D00AF034
:107A20003DFA1848C078400840001649C87015480B
:107A3000C0784007C00F00281BD014480078401CB5
:107A400012490870084600783C2809DD0D48C078C6
:107A5000022188430B49C8700A200D49887002E052
:107A600000200B4988700748C078042188430549E5
:107A7000C8700848007CC006C00F002801D012F072
:107A800059FA10BDEC21002099200020F02100209F
:107A90006A380020E437002010B50020FFF7D6FD3B
:107AA0000120FFF7D3FD0220FFF7D0FD0320FFF7F1
:107AB000CDFD17480078C007C00F002808D104F09A
:107AC0005BFA1348007840084000401C10490870D9
:107AD000012006F059F900200E4988700E48007800
:107AE000102188430C490870C8200A4908700120F9
:107AF00048700748007840218843054908700E20E7
:107B0000064908700120800311F066FC10BD0000DA
:107B1000EC2100206A3800209C230020D521002081
:107B2000F0B587B0002408270A20069000200490B2
:107B3000039002900190FE480078032802D110279C
:107B4000322006900026DBE27001FA494518A87A37
:107B5000042800D1D2E2F8484078B0427ED1F648FD
:107B6000007AF6490978884205DCF348C07A401C5F
:107B7000F149C872AEE2F048007AF14909788842CA
:107B800037DAED48807AEC49497A4118EA48007AB8
:107B900042008018401C81420FDCE748807AE649A9
:107BA00048720846007A88720120E6490870002071
:107BB000E14908730872C8728CE27001DD4940180F
:107BC000407932280FDDDC48807ADB49487208466C
:107BD000007A88720120DB4908700020D6490873BA
:107BE0000872C87276E2D448C07A401CD249C87282
:107BF00070E2D148007AD449097888420FDACE4839
:107C0000807ACD4948720846007A88720120CD49B1
:107C100008700020C84908730872C8725AE2C64842
:107C2000007ACA49097888422EDAC348C07A002807
:107C300018DD7001BF4940184079322812DDBE4876
:107C4000007B401CBC4908730846007A40108872CB
:107C50000846007A40104872022000E042E1B9492B
:107C600008700CE0B448807AB34948720846007A3C
:107C700088720120B34908700020AF4908730020C2
:107C8000AD490872C87225E2AB48007AB04909785C
:107C9000884247DAA848C07A002816DD7001A54955
:107CA000401840791E2810DDA348007B401CA249E3
:107CB00008730846007A401088720846007A40101F
:107CC000487202209F49087027E09B48807A9A49B1
:107CD000497A41189848007A801C814210DC964805
:107CE000007B401C944908730846007A4010887253
:107CF0000846007A401048720220924908700CE051
:107D00008D48807A8C4948720846007A8872012032
:107D10008C49087000208849087300208649087241
:107D2000C872D7E18448007A8A49097888424FDAD4
:107D30008148807AB84210DA012082490870002018
:107D40007D4908730846807A097A401840107A49BC
:107D500048720846407A887235E07748807A7649DA
:107D6000497A41187448007A001D814203DD724847
:107D7000C07A00281BDD7048007B401C6E490873E8
:107D80000020C8720846007B022803DB0C208872A2
:107D9000487208E06848007A4010674988720846CF
:107DA000007A401048720220664908700BE00120FA
:107DB000644908700020604908730846807A487258
:107DC0000846007A887200205B490872C87281E117
:107DD0005948007A60490978884260DA00200590A5
:107DE000002411E0295D0698814203DD0598401CBE
:107DF000C0B20590681D005D0A2803DA0598401C92
:107E0000C0B20590601CC4B2052CEBDB05980528B8
:107E100002DB0020484988704748807800281FD13D
:107E2000454908720846477287720020C872087375
:107E3000002410E000203F49085500213D48203033
:107E40000155203001553B38015520300155203077
:107E50000155601CC4B2052CECDB0420A87239E18A
:107E60000220384908703448007B401C32490873AE
:107E70000846007B022803DB0C208872487208E069
:107E80002D48007A40102C4988720846007A40102C
:107E90004872002028490872C87208731AE100204D
:107EA00025498870002410E000202249085500214F
:107EB000204820300155203001553B3801552030F5
:107EC000015520300155601CC4B2052CECDB1A486A
:107ED000477287720420A87200201749C87208737D
:107EE0000872F7E01448007A1B490978884239DDA6
:107EF000002011498870002410E000200D49085529
:107F000000210C4820300155203001553B380155E7
:107F10002030015520300155601CC4B2052CECDB2B
:107F20000420A8720448477287720020024915E0B5
:107F3000582000205E270020C02700205620002067
:107F4000552000204D2000205420002053200020E8
:107F5000522000205120002050200020C8720873B9
:107F60000872A9E06948007A0428FADD002003902D
:107F7000019000240DE0285D002808DD681D015DEA
:107F8000039808180390295D019808180190601C57
:107F9000C4B2052CEFDB0198002801D1059005E063
:107FA00001990398FEF7D2F8C0B205900020019025
:107FB000039001241BE05548407840015449401883
:107FC000005D002811DD5148407840014018401DF7
:107FD000015D0398081803904C48407840014C49D3
:107FE0004018015D019808180190601CC4B2052C6E
:107FF000E1DB0198002801D1049005E00199039884
:10800000FEF7A4F8C0B2049004990598884223DDD5
:10801000E87D3E49497849013D4A8918C97D884231
:1080200015DDE87D0A2812DD3848007A0A280BDDC4
:108030000120384908703548807A3449487208462A
:10804000007A8872002008723048467034E02F4869
:1080500040782E4948702FE0E97D2C484078400157
:108060002B4A8018C07D001D814221DDE87D122849
:108070001EDDE87D1F281BDA2448407840011146A8
:108080004018C07D0E2813DA2048007A0A280CDD3B
:108090001E480078401C1D4908700846807A4872C6
:1080A0000846007A8872002008721848467003E07B
:1080B0001648407815494870002409E070011449B9
:1080C0004018401D015D029808180290601CC4B25F
:1080D000052CF3DB042409E0601E285C2855601E93
:1080E000691D095C681D0155601EC4B2002CF3DCDB
:1080F0000020287068710420A87200BF701CC6B2EE
:10810000032E00DA20E507B0F0BD0000C0270020F4
:108110005E2700204D200020FCB507460E460020BB
:1081200001901420009070018F49441867738F48A4
:108130000078022801D10A200090607B217B8842D0
:1081400043DDA07B002830D1A07F032811DA217BFA
:10815000207FFEF735F90F280BDAE07E401CE07631
:10816000217B207FFEF72CF9052802DAE07E401CF7
:10817000E0760020A077207B60770120A073207C30
:10818000217B884203DD20460CF07CFFD3E0E07CBD
:10819000042803DB20460CF075FFCCE0607C04284B
:1081A000F4DB20460CF06EFFC5E00120A073E07CFC
:1081B0006F4909788842E9DD20460CF05DFF002018
:1081C000207520460CF05EFFB5E0607B217B884285
:1081D0000ED1E07C664909788842D7DD20460CF054
:1081E0004BFF00202075A07320460CF04BFFA2E04F
:1081F000002500200190A07B01286ED1A07F0328DC
:1082000011DA217B607FFEF7DBF80F280BDAE07EC6
:10821000401CE076217B607FFEF7D2F8052802DA69
:10822000E07E401CE0760020A077207B20770020B5
:10823000A073207B217C884204DD207B217C401AB6
:10824000C5B200E00025207B052874DD0A2D14DD71
:1082500048480078401C474908704748008847490B
:10826000081AA84204DA0020C0434349088004E009
:1082700041480088401940490880242D05DD03212C
:1082800020460CF065FE01903FE0182D05DD05212C
:1082900020460CF0A3FE019037E0102D05DD0621ED
:1082A00020460CF09BFE01902FE00C2D05DD0721F0
:1082B00020460CF093FE019027E00A2D05DD0821F1
:1082C00020460CF08BFE01901FE0092D06DD0921F0
:1082D00020460CF083FE019017E01BE0082D05DD21
:1082E0000A2120460CF07AFE01900EE0E17C009815
:1082F000814203DD20460CF0BFFE06E0207BE17BDF
:10830000884202DD20460CF0B7FE0198012812D108
:10831000A67210E0E07C16490978884209DD204603
:108320000CF0AAFE0020A073207520460CF0AAFED7
:1083300001E00020A073607C401C6074A07C401CA5
:10834000A074E07C401CE074207D401C2075207DE2
:108350000B4909784900884202DD094800782075F8
:10836000607B2073FCBD00005E27002058200020A9
:1083700051200020582300205A230020FFFF000036
:108380005020002000203949097E491C374A1176C7
:1083900011462031097E491CCAB2344920310A767F
:1083A0002031097E491CCAB2304940310A76304931
:1083B000097A491C2E4A117211464968491C5160BC
:1083C00011464A682B4909780A2359438A4216D92B
:1083D0002649897D254AD175114620318A7DCA7585
:1083E00020318A7DCA750021204A917500221F49DB
:1083F00020318A7520318A7500211D4A51601C493F
:10840000097A1C4A12785300D21891422DDD18497E
:108410008978012929D10021154A91701172D172F0
:108420001173102151729172002010E000210F4A47
:10843000115400220D4920310A5420310A543B398D
:108440000A5420310A5420310A54411CC8B205286C
:10845000ECDB0421054A91720422044920318A721E
:1084600020318A720A21044A117070475E27002069
:10847000C02700204F2000205720002010B50024E6
:10848000C748C078C6498978884206DDC448C078A4
:10849000C3498978401AC4B205E0C1488078C04910
:1084A000C978401AC4B2052C03DD0020BD4908700C
:1084B00040E0BD48C078BC498978884206DDBA48AA
:1084C000C078B9498978401AC4B205E0B6488078C6
:1084D000B549C978401AC4B2062C03DD0020B14961
:1084E000087027E0B148C078B0498978884206DD35
:1084F000AE48C078AD498978401AC4B205E0AB48AF
:108500008078AA49C978401AC4B2062C03DD00203D
:10851000A44908700EE0A3480078401CA1490870E7
:1085200008460078A02805DDA1480078012801D080
:108530000AF0CEFB9F48407D9F490978884254DD70
:108540009C48807A002850D19A48407E9949497DBC
:10855000884210D19748407D9849097888420ADAC4
:10856000002009F023FD00280ADD9248807E401C8F
:108570009049887604E000208E49887690490872F8
:108580008C48807E8F49097888422EDD01208C49F5
:108590008870084600788749897E401888490870A5
:1085A000002084498876002182482030817620305E
:1085B000817600208249087204240BE0601E7D4908
:1085C000085C0855601E491D095C7A48401D01552C
:1085D000601EC4B2002CF1DC00207649087048719E
:1085E0007749487009207749087072482030407DEB
:1085F00071490978884260DD6E482030807A012810
:108600005BD16C482030417E407D814214D1694865
:108610002030407D6949097888420DDA012009F04F
:10862000C5FC00280FDD63482030807E401CC1B2AD
:1086300060482030817606E000215E482030817657
:1086400000205F4908725B482030807E5D490978D0
:10865000884232DD01205A49887008460178554821
:108660002030807E081856490870002051498876CD
:1086700000215048203081762030817600205049FA
:10868000087204240CE0601E4A492031095C494804
:1086900020300155611E401D415C0155601EC4B271
:1086A000002CF0DC00214348203001704171012092
:1086B000434948700920434908703E484030407D96
:1086C0003D490978884260DD3A484030807A022886
:1086D0005BD138484030417E407D814214D13548DD
:1086E0004030407D3549097888420DDA022009F092
:1086F0005DFC00280FDD2F484030807E401CC1B259
:108700002C484030817606E000212A4840308176AE
:1087100000202B49087227484030807E294909787B
:10872000884232DD012026498870084601782148B8
:108730004030807E08182249087000201D49887644
:1087400000211C48203081762030817600201C4991
:10875000087204240CE0601E16494031095C15487B
:1087600040300155611E401D415C0155601EC4B280
:10877000002CF0DC00210F484030017041710220D4
:108780000F49487009200F49087004200949887270
:1087900004210848203081722030817210BD000011
:1087A00040270020572000204A270020542700207F
:1087B000E43700205E2700205620002051200020B2
:1087C000C02700204C200020F3B5C7B00746FE4864
:1087D0000088FE490988884210D1FC48008800289A
:1087E0000CD1B878F9490880084600780006000CDA
:1087F0000880F87809884018F4490880F248018810
:1088000048980818782807DCF149EF4A1288881838
:108810003946489A13F0D7FDEB4801884898081864
:10882000E949088008460088E8490988884201DA51
:1088300049B0F0BDE6480079E6490880084600786E
:108840000006000C0880E248407909884018E14998
:108850000880FC2105A8FDF7FCFCDD4808300490E9
:10886000DA4800780838C0B24690DA480088DA4919
:10887000884239D144A845A905AB00910190022056
:10888000469A049915F016FD0546002D02D10EF00A
:108890008BF928E040A8007D032824DD40A8007D56
:1088A000011F05A810F0DCF8039040A8007D001F10
:1088B00005A90E5C360240A8007DC01E085C861922
:1088C000360240A8007D801E085C8619360240A84A
:1088D000007D401E085C86190398864203D1002162
:1088E00005A807F0A5FCAEE1BA480088BA49891C82
:1088F000884203D1049807F017FDA4E1B748007837
:1089000010287DD006DC01280BD0042879D0082857
:1089100078D12EE0202876D0402875D08028F7D155
:1089200021E1AC480088AE4988421ED1A7480088A2
:10893000A549098888421BD144A845A905AB0091E7
:1089400001900220469A049915F0B4FC0546002DCA
:1089500002D10EF029F975E1012240A8017D05A898
:1089600007F076FF0EF09EF902E001209D490870A5
:1089700068E1984800889A49891C88427AD144A8BD
:1089800045A905AB009101900F20469A049915F076
:1089900091FC0546002D02D10EF006F952E10020AF
:1089A0009149086000240AE005A8005DE1008840C4
:1089B0008D49096840188C490860601CC4B240A801
:1089C000007D8442F0DB89480068894988420ADAE0
:1089D00085480068884206D98648407980218843C6
:1089E000803084494871804800688149884242D972
:1089F0007D4800687D49086040A9097C049804E02E
:108A0000AFE0AFE01DE14BE0AEE04018049040A9BC
:108A1000097C4698401AC0B2469044A845A905ABC7
:108A2000009101901020469A049915F043FC0546E8
:108A3000002D02D10EF0B8F804E10026002406E073
:108A400005A8005DE10088408619601CC4B240A8FA
:108A5000007D8442F4DB684900200856B04208D00B
:108A600070B208706548C07804218843001D6349CE
:108A7000C87004E010E05C4800685B490860402072
:108A8000564908705D48007802218843801C5B4984
:108A900008700EF007F902E0042052490870D1E096
:108AA0004C4800884E49491C884200D0CAE044A87E
:108AB00045A905AB009101900220469A049915F052
:108AC000F9FB0546002D02D10EF06EF8BAE040A881
:108AD000007D042800DAB5E040A8007D011F05A84C
:108AE0000FF0BEFF039040A8007D001F05A90E5C9B
:108AF000360240A8007DC01E085C8619360240A8D8
:108B0000007D801E085C8619360240A8007D401E4C
:108B1000085C8619039886421FD10024002038493A
:108B200008702146641C05A8405C622818D12948B9
:108B300000882B49491C88420BD140AA127D121F84
:108B4000D1B205AA1019002207F05AFF0EF0AAF8B8
:108B500006E001202349087002E0002006F0F8FB3F
:108B600070E000BF00BF00BF1A4800881C49491CC4
:108B7000884200D066E044A845A905AB0091019069
:108B80000220469A049915F095FB0546002D02D166
:108B90000EF00AF856E040A8007D042800DA51E003
:108BA000002440A8007D011F05A80FF059FF039085
:108BB00040A8007D001F05A90E5C360240A8007D7C
:108BC000C01E085C86191DE0382300203A230020CF
:108BD000D03600203E23002031750000E92000201F
:108BE000214E0000EC200020F02000207028002002
:108BF000805AC3529C230020F4200020E220002051
:108C0000C9200020360240A8007D801E085C86191D
:108C1000360240A8007D401E085C861903988642F3
:108C200007D1002028490870284905A807F066FFE9
:108C300006E027480078042802D0002006F088FBD0
:108C400000E000BF00BF234800794006C00F0028A5
:108C50002ED0204800794007C00F002828D01E4899
:108C600000784007C00F002822D11A4840684021F0
:108C700088431849486008464068042188431549DC
:108C800048600846406820218843203011494860E8
:108C90000846006803210907884301214907401855
:108CA0000C490860084640688021884309494860AB
:108CB000FA210648FDF7CDFA002008490880084946
:108CC000088000BFB4E50000C9200020D036002095
:108CD000E9200020AC230020E22000203A230020DD
:108CE00038230020FEB504460F468F480068000177
:108CF000C00F002800D1FEBD20780190802101988E
:108D00000840002822D0E678012E1ED101984006A6
:108D1000400E86490880084600780006000C08804E
:108D200060780988401881490880A07880490880C7
:108D3000381F82B2211D7F4813F045FB381F7E4942
:108D4000098840187C49088018E0D4E72678022E6C
:108D500013DB0C2E11DC791E8AB2B11E132359438A
:108D6000744B1033C818611C13F02DFB781E724928
:108D7000098840187049088000E0BCE76E48008808
:108D80006B490988884200DAB5E76C480078012809
:108D900006D1674801780022664807F059FDB7E020
:108DA000634800880328FADD61480088011F614894
:108DB0000FF056FE00905E480088001F5D490D5C74
:108DC0002D025B480088C01E085C45192D025848DA
:108DD0000088801E085C45192D0255480088401EF9
:108DE000085C45190098854262D1002054490870FA
:108DF0005048007862281FD008DC503803000CF07F
:108E000057F9080E274655550F553E5563281DD076
:108E1000682844D0692843D06A2847D141E000BF80
:108E20004448401C07F0D4FB3F4840680421884375
:108E3000001D3D4948603AE03D480078401FC1B2FE
:108E400001223C48401C07F0DBFD30E002F0F6FF59
:108E500000203C4908703748401C07F0CFFC3A48D6
:108E600000788007C00F002808DD3748007802210D
:108E700088433549087000203449087217E0002003
:108E8000304908702B48401C07F008FE0FE0002016
:108E90002C4908702748401C07F02AFF07E000BF54
:108EA00000BF0121234807F0C3F900E000BF00BF65
:108EB0002748007804218843254908701A4800791A
:108EC000C006C00F002822D0174800794007C00F05
:108ED00000281CD01448406810218843124948607B
:108EE00008464068042188430F49486008464068A6
:108EF0000821884308300C4948600846006803216F
:108F0000090788430121090740180749086000BF85
:108F100000200949088006490880FA210548FDF724
:108F200098F900BFE7E60000AC2300203C230020B6
:108F30003A230020D036002038230020E9200020EA
:108F4000C9200020B02100201E210020F027002091
:108F5000E2200020FFB583B005460E461446082ED9
:108F600000DD0826102C07D13046F10F09184910F2
:108F70004919C9B2019104E0082C02D17019C0B29C
:108F80000190029548E0069809F031FF0299491BCB
:108F900061430C9A8918C8B209F000FF0E98C0000E
:108FA000204941180298085C2038604341000D9820
:108FB00008180090052013F0F3FA002705E0009947
:108FC000C85D0BF0ACFE781CC7B2A742F7DB0520EA
:108FD00013F01CFB0699491CC8B209F008FF02995E
:108FE000491B61430C9A8918C8B209F0D7FE0520C5
:108FF00013F0D6FA274605E00099C85D0BF08FFE06
:10900000781CC7B26000B842F6DC052013F0FEFA07
:109010000298401CC0B20290019902988842B2DBCB
:1090200007B0F0BDDE2C0020FFB583B00646144625
:1090300004980A2801DD0A200490182C07D104980E
:10904000C10F091849108919C9B2029105E00C2C09
:1090500003D104988019C0B20290374664E00698A4
:1090600009F0C5FEB91B61430C9A8918C8B209F012
:1090700095FE0A210E9848432E494018C05D2038BD
:109080006043410041180D9808180190052013F025
:1090900087FA002505E00199485D0BF040FE681C49
:1090A000C5B2A542F7DB052013F0B0FA0699491CBA
:1090B000C8B209F09CFEB91B61430C9A8918C8B26A
:1090C00009F06CFE052013F06BFA254605E00199C6
:1090D000485D0BF024FE681CC5B26000A842F6DCB7
:1090E000052013F093FA0699891CC8B209F07FFE97
:1090F000B91B61430C9A8918C8B209F04FFE0520CC
:1091000013F04EFA6006050E05E00199485D0BF07C
:1091100006FE681CC5B260000019A842F5DC0520F7
:1091200013F074FA781CC7B20298874297DB07B035
:10913000F0BD0000FE2C0020F7B507460E46029C4D
:10914000002548E0384609F052FE7119C8B209F00E
:1091500025FE052013F024FA2078641C0BF0DFFDB7
:10916000052013F053FA791CC8B209F040FE7119BA
:10917000C8B209F013FE052013F012FA2078641C1F
:109180000BF0CDFD052013F041FAB91CC8B209F06F
:109190002EFE7119C8B209F001FE052013F000FA85
:1091A0002078641C0BF0BBFD052013F02FFAF91C8E
:1091B000C8B209F01CFE7119C8B209F0EFFD052014
:1091C00013F0EEF92078641C0BF0A9FD052013F0D4
:1091D0001DFA681CC5B2102DB4DBFEBDF0B585B01C
:1091E000002700F011F9142013F06EF9AB2007F0FE
:1091F00084FF142013F068F9002001E0411CC8B27C
:109200001128FBDB3D48007C802188433B490874E2
:10921000042301AAFF210903032009F06BFF0EE0DC
:109220000A2013F051F9042301AAFF2109030320A6
:1092300009F060FF781CC7B2052F00DD09E0684621
:10924000017980798142EBD168464179C0798142C8
:10925000E6D100BF2AA42078FDF75BF80546280771
:10926000050E6078FDF755F84019C5B2A078FDF7F6
:1092700050F806463007060EE078FDF74AF88019E8
:10928000C6B2214800680090042220A1009813F083
:1092900083F8012821D068460079A8421DD168468C
:1092A0004079B04219D106F06BFE06F013FE06F0CD
:1092B00085F818480068184908601648006817497A
:1092C00008600020164908801649088006F0C4F995
:1092D00006F0A0FC06F00AFB03E00BF03FFD06F0F1
:1092E000B9FE06F039F901F04FFD06F0E5FA06F097
:1092F00099F906F057F805B0F0BD0000E4370020FA
:109300004130353400000000482100204F4B202020
:1093100000000000402100200C2100200821002036
:10932000142100201A210020FFB583B004460F4607
:10933000154600200290002601900090381B401C2A
:10934000C0B201900698401BC0B200901CE0A11969
:10935000C8B209F04CFD284609F020FD052013F0A5
:109360001FF90020029006E00C980BF0D8FC029840
:10937000401CC0B20290009902988842F4DB05209C
:1093800013F044F9701CC6B201988642DFDB07B0C7
:10939000F0BDFFB583B004460F461546002002908D
:1093A000002601900090381B401CC0B20190069925
:1093B000481BC10F0918C905090E00911FE0A1192A
:1093C000C8B209F014FD284609F0E8FC052013F0A6
:1093D000E7F80020029009E00C980BF0A0FC0D9833
:1093E0000BF09DFC0298401CC0B2029000990298BC
:1093F0008842F1DB052013F009F9701CC6B2019810
:109400008642DCDB07B0F0BD10B5002013F0AEF8EB
:109410001C2013F0ABF81D2013F0A8F81E20032128
:109420008A0005231B07072424021B1984001A51F4
:1094300000BF1C2013F0FAF8002013F0F7F810BD5D
:10944000F0B585B02648056900202649C863002686
:109450003FE0142070432449096844180120B040BB
:10946000224909680840002831D0E068C0436840BC
:109470002168084007463946204615F027F9184864
:10948000006968400390039800280ED003980543B4
:10949000E068C04368402168084000902046009979
:1094A00015F014F90098074300BFA068A84338409E
:1094B0000190606828403840029001990298084362
:1094C000002803D0226901990298904700BF701CC0
:1094D000C6B2074800788642BBDB05B0F0BD00008D
:1094E0000005005040610040D0220020C82200202A
:1094F000CD220020F3B581B00198402809D1002089
:10950000F7490870F7480078002803D00020F54993
:10951000087030E2F448407801287DD1F248807824
:1095200000287AD101F0CCFFF0480088C100081A69
:10953000EE4908800888C117490F0918C910EB4A7D
:109540001180002533E0EA48405DE9490870681C55
:10955000085C4870A81C085C887009F021FDFDF7C4
:10956000F7F9E3480078E3490870E148407848702B
:10957000DF4880788870FDF78BFE14F067FFDE48C7
:109580000078002811D0DD48C078172803DADB48BE
:10959000C078052807DCDA480078002803D0D948CD
:1095A0000078002801D0FDF7C7FFE81CC5B2D648F7
:1095B00000788542C7DBCF4840788C280ADDCD484B
:1095C00000785A2806DDCB480078A02802DA01206E
:1095D000CE490870CE480078C009002875D1CD4822
:1095E0000078C009002870D1CA48C0788007C00F31
:1095F00000286AD102200DF03DFE002808D10DF0B0
:1096000039FE002804D101200DF034FE00285CD082
:10961000B8488078422801E095E191E155DDB548F0
:109620008078BE2851DAB348407832284DDDB14801
:109630004078782849DAAF4800785F2845DBAD48A4
:109640000078AA2841DCB4480078401FC4B237E053
:10965000B248005D8030B1490855B148005D8030A6
:10966000AF490855AF48005D8030AE490855AB485A
:10967000005D422822DDA948005DBE281EDAA84808
:10968000005D32281ADDA648005D782816DA084603
:10969000005D5F2812DB0846005DAA280EDC9B48AF
:1096A0000078012809D1A0480078082188430830B3
:1096B0009D49087000209549087005E0601CC4B2FF
:1096C000954800788442C3DB00BF98480078C00703
:1096D000C00F002834D0944800784007C00F0028FD
:1096E000F8D091480078C006C00F002828D1022089
:1096F0000EF0E8F8002823D08B4840784007C00FD0
:1097000000281DD18A48007800281AD101208849F4
:1097100008700EF0F3FE8448407802218843801CD4
:10972000814948700846407804218843001D7E49DD
:1097300048708048C0780821884308307D49C87047
:1097400067E07B48007803281AD102207849087026
:109750000EF0D4FE7448407802218843801C724980
:1097600048707448C0780821884308307149C8702F
:109770006D48407804218843001D6B49487048E0DB
:109780006B480078012820D10020694908700EF04C
:10979000B5FE6848C0780821884308306549C8701C
:1097A0006148407804218843001D5F49487008469D
:1097B00040780821884308305B49487008460078A3
:1097C000802188435849087023E0594800780228CE
:1097D0001FD10320564908700EF090FE5548C078FE
:1097E0000821884308305349C8704F484078042105
:1097F0008843001D4C49487008464078082188433A
:109800000830494948700846007880218843464915
:10981000087049480078032861D14748007C02213C
:10982000884345490874324988780DF00FFF00904D
:109830000098012809D10020404988800846007B13
:10984000410849003D4801731EE0009802281BD1E1
:10985000274908788021FCF7BCFDC6B22449487826
:109860008021FCF7B6FDC7B2282E0CDD322E0ADAB5
:10987000282F08DD322F06DA2F48007C022188438A
:10988000801C2D49087400BF2248807880218843BD
:1098900020498870164800786E281FDD144800782B
:1098A0008C281BDA124948788021FCF792FDC6B259
:1098B0000F4988788021FCF78CFDC7B2282E0CDD7B
:1098C000322E0ADA282F08DD322F06DA1148807886
:1098D0008021884380300F49887000BF00BF37E087
:1098E00096230020952300200028002060210020DE
:1098F000133800208023002081210020AA2000208E
:1099000038240020372400209423002070230020D6
:109910009C230020EC2100206F23002052380020DF
:109920003A38002022380020B7200020592000209B
:109930003C200020E2200020E437002024280020E2
:1099400009F0C6F904E000200B49088001F048FE48
:109950000A48007805280ED10848007C4006C00F50
:10996000002808D101F09AFE0448007C4021884379
:10997000403002490874FEBD60210020E437002019
:109980000A4601214903884206D10449097C202363
:1099900099432031014B197470470000E4370020CF
:1099A00010B53149C868B421FCF7D0FB04462F49F3
:1099B0004C8149896922514308466421FCF7DCFB4C
:1099C00004462B490989614308467D21C900FCF7FB
:1099D000D3FB04462748844214DD2448007B04213D
:1099E0000840042803D123482049C8800CE02148BE
:1099F000201A1E49C8800846007B042108431B49E1
:109A0000087301E01949CC8017490869B421FCF7B3
:109A10009DFB044615498C82898A69225143084678
:109A20006421FCF7A9FB04461149098961430846F2
:109A30007D21C900FCF7A0FB04460E48844209DDE5
:109A4000201A0A4948820846007B08210843074932
:109A5000087301E005494C820349087F0621FCF7A1
:109A60008BFB0249C88210BDD0270020242800208B
:109A70001428002060EA0000F8B5002000900027BC
:109A8000002500BF7848808878490968884206D94F
:109A90007548007975490978401AC0B2009072483B
:109AA000808872490860724840897249884205DCA2
:109AB0006F484089FF21F53188420ADA6E486C49C7
:109AC000488149898900481D6421FCF755FB684994
:109AD0000873674840897D21C900884208DD6449D0
:109AE00049897D22D200881A2821FCF745FB0746C8
:109AF000009841004418E419E01B662802D25C4833
:109B0000067B22E0E01B842809D2E11B584A127B25
:109B1000514308466421FCF719FB064615E0E01B9B
:109B20009F2809D2E11B524A127B51430846692102
:109B3000FCF70CFB064608E04D49097B9622514391
:109B400008466421FCF718FB0646009870434B4911
:109B50000968401849490860642148480068FCF7D2
:109B6000F5FA06464648864202D93F49C88101E0D7
:109B70003D49CE817E2C54D904203C4908720846C8
:109B8000C068FF309130C86008464069001D4861D8
:109B900020467E380A2803D2C1004018451914E037
:109BA00020467E38142803D20A21484345190CE088
:109BB00020467E38282803D20B214843451904E06B
:109BC00020467E380C214843451900982E2822DD76
:109BD0002648807E02281EDD2348018A0098081846
:109BE000214908820846008A254988420ADD1E4824
:109BF000008A401A1C4908820846007B022108435B
:109C0000194908731948006940191849086108463C
:109C1000007F401C08771548C06840191349C86088
:109C200021E0712C16D90320104908720846C0683B
:109C3000FF302D30C86020467138810045187D20E6
:109C4000C000854200D905460848C0684019074948
:109C5000C86008E0582C03D902200449087202E0C9
:109C6000002002490872F8BD24280020D0270020D7
:109C700014280020B80B0000A4060000602000207B
:109C800060EA0000FEB506460F463446002001900B
:109C90000090202C02D31548844203D9134CC63CB3
:109CA000012001903946204606F04CF9012801D1E7
:109CB00003200190202C17D0002508E0785D0028B3
:109CC00003D10098401CC0B20090681CC5B2202D82
:109CD000F4DB00981F2807DD044CC63C02200190ED
:109CE0003946204606F02EF90198FEBDE5FF00003A
:109CF000F8B507460D46002600246946384602F0AE
:109D000039FF0646002E01D10D48009029460098E3
:109D1000FFF7B8FF04462846FDF7F4F8002E01D1FE
:109D20000120F8BD012C01D10220FAE7022C01D15B
:109D30000320F6E7032C01D10420F2E70020F0E72E
:109D40001FFF00000146802901D2012070478029B1
:109D500003D3C02901D20020F8E7C02903D3E029AA
:109D600001D20220F2E7E02903D3F02901D2032037
:109D7000ECE7F02903D3F82901D20420E6E7F8291B
:109D800003D3FC2901D20520E0E7FC2901D30620FA
:109D9000DCE70020DAE700B501460B000BF088F99C
:109DA0000A06080A0C0E10121416181A142013E0D2
:109DB000282011E03C200FE050200DE064200BE053
:109DC000782009E08C2007E0A02005E0B42003E023
:109DD000C82001E0C82000BF00BF00BD10B58A4800
:109DE000407800287EDD894840788006C00F002832
:109DF00023D08748C0788007C00F00281DD1844831
:109E0000C078C006C00F002817D182490870824868
:109E10000078C00900280AD17B4800787A49887008
:109E20007A484078202188437849487005E077488F
:109E3000407820218843754948707548C078402192
:109E4000884340307249C8706F488078401C6E4922
:109E50008870084680780978884227DD07F094F8F2
:109E600000206E4908706E4908706E4840784008BE
:109E700040006C4948706C4800780007C00F00280B
:109E800006D1694800680121490288436649086093
:109E900065480088C005C00E002806D162480068E9
:109EA0000121890288436049086010BD5F4800783D
:109EB000401C5E49087056480078202188432030B5
:109EC0005349087059480078032809DD0020574994
:109ED00008704F4800781021884310304C490870B2
:109EE000504800E08EE040780007C00F002816D0F0
:109EF0004E480078012803D04C480078032807D149
:109F000048484078102188431030464948700CE09A
:109F100044484078102188434249487005E0414850
:109F20004078102188433F4948703D480078002818
:109F300005D13F480178012002F0C6FF5EE03848B5
:109F40000078012803D1002003F08AFE56E034484F
:109F50000078022803D1002003F0E4F94EE03048F5
:109F60000078032803D1002003F0E6FD46E02C48EA
:109F70000078042803D1002003F020FB3EE02848AD
:109F80000078052803D1002003F02CF836E024489F
:109F90000078092803D1002003F0D0F82EE02048F3
:109FA00000780A2803D1012003F09CFB26E01C481E
:109FB00000780F2803D1012003F006FC1EE01848AA
:109FC0000078082803D1012003F0BCFF16E01448F4
:109FD00000780C2803D1002003F04CFA0EE0104862
:109FE00000780D2803D1002003F08CFC06E00C481B
:109FF00000780E2802D1002003F0C6FE0120800365
:10A000000FF0EAF900BF50E76A380020B7200020BF
:10A01000EC210020362400209C230020F221002087
:10A02000D521002097200020AC230020D121002042
:10A03000D421002010B5C5480078142804DAC3489C
:10A040000078401CC1490870C1480078642808DACB
:10A05000BF480078002804DDBD480078401CBC499A
:10A060000870BB480078142808DDBA480088BA494F
:10A070000988884202D00020B8490880B848007892
:10A08000642808DAB6480078002804DDB44800786F
:10A09000401CB3490870B2480078142808DDB14864
:10A0A0000088B1490988884202D00020AF49087071
:10A0B000AF480078401CAE490870AE480078401C9C
:10A0C000AC490870AC480078C82804DAAA4800787F
:10A0D000401CA9490870A9480088E121C9008842AC
:10A0E00010DAA74800788007C00F002804D0A348E2
:10A0F0000088401CA1490880A24840780821884374
:10A10000A04948709F48C078C006C00F00280DD0F5
:10A110009D4800889D4988420EDD9A48C0781021EC
:10A1200088439849C87014F07DFF05E09648008880
:10A13000962801DD14F076FF924840780007C00FA2
:10A1400000280ED08F4840784007C00F002818D153
:10A150008C488078012814D174DF002089498870E8
:10A160000FE08848807800280BD1894800780028C3
:10A1700007D188480068012189058843401885492E
:10A1800008600CF05BFDFCF7B3FFFCF72BF981488E
:10A190000088C004C00F002827D07F4800781E2800
:10A1A00005DA7D480078401C7B49087020E075483E
:10A1B000C078C007C00F002808D176480068012188
:10A1C0004903884340187349086006E071480068F5
:10A1D0000121490388436F4908606E4800680121E6
:10A1E000090388436B49086002E000206A4908704F
:10A1F000684800684003C00F00282ED067480078E8
:10A20000401C66490870664840780978884224DC1A
:10A21000604800680121890488435E490860084657
:10A22000006801214904884340185A490860022007
:10A230005C4908700020594908705648008880051C
:10A24000C00F002809D15348006801214902884302
:10A25000401850490860FDF735FB4E480068000281
:10A26000C00F002813D050480078401C4E49087099
:10A270000846007802280DDD464800680121C9051E
:10A2800088434449086000204749087002E00020E4
:10A29000454908703F480068C001C00F00281BD026
:10A2A00042480078401C41490870084600780A2856
:10A2B00015DD3848006801214906884340183549B2
:10A2C0000860084600680121090688433149086092
:10A2D00000203649087002E00020344908702D48FB
:10A2E0000068C00F002812D131480078401C304966
:10A2F00008700846007814280CDD264800684000E5
:10A3000040080121C90740182249086002E00020E6
:10A31000274908701F4800798007C00F002811D016
:10A3200024480078401C23490870084600781E28FD
:10A330000BDD1848406802218843164948600CF03C
:10A3400033FC02E000201B49087010BDB021002042
:10A35000A9210020A0210020A421002020210020EC
:10A360009421002090210020922100203F210020F4
:10A37000E7200020E8200020262100208621002060
:10A3800059200020E2200020622100204E0200001F
:10A39000E4370020AC2300202C24002032240020AD
:10A3A000DC2300203124002033240020342400202A
:10A3B000392400203A24002070B500BFC049002095
:10A3C0000856E121090148430446BE480068401C84
:10A3D000BC49086008460068BB49884203DD01208B
:10A3E000BA49087002E00020B8490870B549096808
:10A3F0000819B749FBF7AAFE0546ED1C07212846B8
:10A40000FBF7A4FE491CB3480170AE490968B24A83
:10A4100089180819AE49FBF799FE0D463C212846DC
:10A42000FBF794FEAB484170E12109012846FBF798
:10A430008DFE0E463C213046FBF788FEA54988700C
:10A44000E12109012846FBF781FEA249C8709D4819
:10A45000807B401C9B4988730846407B401C4873A6
:10A460009C4880784885488D0A21FBF785FE88B294
:10A4700094494885974880788885888D0521FBF721
:10A480007BFE88B28F498885924880780885088D40
:10A490003C21FBF771FE88B28A4908850846807B1B
:10A4A000132840DD0120C873002088730846007D12
:10A4B000401C087508462030C07B2021884320308E
:10A4C00080492031C8737F48007D02282BDD0020A1
:10A4D00020390875084620304079401CC1B27948BF
:10A4E000203041714079002803DD0021754820307B
:10A4F0004171744820300079401CC1B2714820304D
:10A50000017100793B2803DD00216E482030017184
:10A51000FFF746FA002007F07FF970488078202185
:10A5200088436E4988706748C07B00280DD06C480E
:10A53000007E002805D0FFF79FFA002068490876C2
:10A54000887600205F49C87302E0012064490876DC
:10A5500060484078002801D10FF0B4FF5D48C07812
:10A56000002817D15B4880780A2813DA5D48007804
:10A57000C007C00F002814D05A4800784008400097
:10A58000584908704F4800684F49884209DD06F075
:10A5900041FE06E05348007840084000401C514905
:10A5A0000870514800784007C00F00284BD145483B
:10A5B000808D00281CD143482030C07B8007C00F0D
:10A5C00000281ED03F482030C07B022188433D49EF
:10A5D0002031C8733B4800683B49884211DD14F0C4
:10A5E000F5FE3848008D00280BD114F02DFD08E051
:10A5F00034482030C07B02218843801C31492031FF
:10A60000C8733048008D002813D12E482030C07BFD
:10A61000C007C00F00283ED02A482030C07B400829
:10A62000400028492031C87310F092FC2F4908716E
:10A6300031E024482030C07B40084000401C2149C4
:10A640002031C87327E01F48008D00281AD11D480B
:10A650002030C07BC007C00F00281CD01948203014
:10A66000C07B4008400017492031C87310F070FCCF
:10A670001E49087113480068134988420BDD14F025
:10A68000E3FC08E00F482030C07B40084000401C3D
:10A690000C492031C8730F48C078002806D10D48F6
:10A6A00080780A2802DA02F0DFF908E00548203055
:10A6B000C07B08218843083002492031C87370BD2F
:10A6C000F420002070280020805AC3523824002033
:10A6D00080510100AA200020806E1E4D9C23002086
:10A6E000D02700201E210020592000209920002082
:10A6F00001F096FB31B582B0029801900024E4434A
:10A7000001980402240A69460720085600280BDD38
:10A71000002003E00A214C43411CC8B26A460721CD
:10A7200051568142F6DC1BE06846C079002803D10F
:10A7300001980402240A13E06846C079404241B2FD
:10A740006846C171002506E00A212046FBF7FEFCA1
:10A750000446681CC5B2694607200856A842F3DCC7
:10A7600020463EBD70B50446254664212846FBF7C9
:10A7700003FD1C49887064212846FBF7FDFCCDB21F
:10A780000A212846FBF7F8FC164948700A2128469A
:10A79000FBF7F2FCC8B2134908700026084680781F
:10A7A000002805DD0846807830308870012602E0F8
:10A7B00020200C498870012E03D00A4840780028D8
:10A7C00006DD08484078303006494870012602E02E
:10A7D000202004494870034800783030014908704F
:10A7E00070BD0000C121002070B505462E463949D4
:10A7F0003046FBF7ABFC3849087136493046FBF769
:10A80000A5FC0E467D21C9003046FBF79FFC32496E
:10A81000C8707D21C9003046FBF798FC0E466421C4
:10A820003046FBF793FC2C49887064213046FBF7D7
:10A830008DFC0E460A213046FBF788FC26494870FD
:10A840000A213046FBF782FC23480170002400797E
:10A85000002806DD2048007930301F4908710124A6
:10A8600002E020201C490871012C03D01A48C0784E
:10A87000002806DD1848C07830301749C870012418
:10A8800002E020201449C870012C03D012488078BF
:10A89000002806DD1048807830300F498870012488
:10A8A00002E020200C498870012C03D00A4840782F
:10A8B000002806DD084840783030074948700124F8
:10A8C00002E02020044948700348007830300249F3
:10A8D000087070BD10270000C121002070B504462B
:10A8E000254622492846FBF731FC214908711F49BA
:10A8F0002846FBF72BFC0D467D21C9002846FBF7B7
:10A9000025FC1B49C8707D21C9002846FBF71EFCA9
:10A910000D4664212846FBF719FC1549887064210F
:10A920002846FBF713FC0D460A212846FBF70EFCD0
:10A930000F4948700A212846FBF708FC0C480170B3
:10A94000007930300A4908710846C0783030C87044
:10A95000084680783030887008464078303048703B
:10A96000084600783030087070BD000010270000E5
:10A97000C121002070B505464948854201D90646E7
:10A9800000E02E4647493046FBF7E0FB4649487158
:10A9900044493046FBF7DAFB0E4644493046FBF7A4
:10A9A000D5FB4149087141493046FBF7CFFB0E46C4
:10A9B0007D21C9003046FBF7C9FB3B49C8707D21AA
:10A9C000C9003046FBF7C2FB0E4664213046FBF758
:10A9D000BDFB3549887064213046FBF7B7FB0E4656
:10A9E0000A213046FBF7B2FB2F4948700A21304656
:10A9F000FBF7ACFB2C48017000244079002806DDF1
:10AA000029484079303028494871012402E020204B
:10AA100025494871012C03D023480079002806DD20
:10AA200021480079303020490871012402E02020BB
:10AA30001D490871012C03D01B48C078002806DD91
:10AA40001948C07830301849C870012402E020202D
:10AA50001549C870012C03D013488078002806DD02
:10AA600011488078303010498870012402E020209D
:10AA70000D498870012C03D00B484078002806DD72
:10AA800009484078303008494870012402E020200D
:10AA9000054948700448007830300349087070BD9B
:10AAA0003F420F00A0860100C121002010270000B6
:10AAB00010B5002323E00C782411092C05DD0C7857
:10AAC000241137340470401C04E00C782411303415
:10AAD0000470401C0C782407240F092C06DD0C7828
:10AAE0002407240F37340470401C05E00C78240739
:10AAF000240F30340470401C491C5C1CE3B29342A8
:10AB0000D9DB10BD01460A06100F0A2804DA0246F6
:10AB100030320A4B5A7003E002463732074B5A7004
:10AB20000807000F0A2804DA02463032034B1A7075
:10AB300003E002463732014B1A707047C7210020EC
:10AB400070B50024202211462A48FBF77BFB002524
:10AB500032E02949485D08F0EBFD6100254A505478
:10AB600060001146085C052807D160004018457058
:10AB7000A01CC4B2A81CC5B219E060001D49085C45
:10AB8000002807D1202061001A4A5054610089181A
:10AB900048700CE060001749085C052807DA164881
:10ABA000405D6100134A89184870601CC4B2102CC3
:10ABB00000D303E0681CC5B2202DCAD300BF002C0F
:10ABC0000AD00E2C08DC0E21081BC10F09184910F1
:10ABD000891C0A4A11700BE00E2C03DD0220074984
:10ABE000087005E008200549087000200149087038
:10ABF00070BD000091380020B1380020CE23002025
:10AC000010B5564800685649096888427ED15448B4
:10AC1000006800287AD053480078012817D152489C
:10AC20004078022188435049487008460078042142
:10AC300088434D49087000204C4908704C48007901
:10AC4000C007C00F002853D113F018FD50E046484C
:10AC50000078042188434449087046480078102150
:10AC600088434449087044488079C006C00F0028D2
:10AC700008D00020414908703F488079102188435E
:10AC80003D4988713B4800788007C00F002808DDE7
:10AC90003848007802218843364908700020384936
:10ACA0000872334800794006C00F00280CD03048A5
:10ACB00000794007C00F002806D02D484068802149
:10ACC000884380302A49486029480079C007C00F6E
:10ACD000002808D12B480078042801D113F0CEFCBD
:10ACE0000BF0EEFF01E00BF0DDFF00201D490870C6
:10ACF0001F480079C007C00F00281DD01C480068FD
:10AD00000121C90288431A49086000E01AE0164888
:10AD10000078400840001449087015484068400811
:10AD2000400013494860084600684001C00F0028F1
:10AD300002D1012013490870002008490860084921
:10AD4000086010BD0A4800680321090788430121F3
:10AD5000090740180649086000BFF2E730230020C9
:10AD600034230020EA200020E2200020E7200020F9
:10AD7000AC2300201E2100209C230020B0210020B5
:10AD8000F0270020E920002010B536484489B4207F
:10AD900060433549C8603348848AB4206043086101
:10ADA000304880880860314949898900481D6421FC
:10ADB000FBF7E2F92D4908732D480078032802DDDE
:10ADC00000202B490870FEF7EBFD00202949087090
:10ADD000012029490870294908702948007C082168
:10ADE0008843274908740846007C04218843244985
:10ADF0000874244840780421884322494870084652
:10AE00004078102188431F4948701F4840794021ED
:10AE100088431D49487110F087F91C480078C00725
:10AE2000C00F002802D11249087006E010480078CF
:10AE3000032802DD00200E49087013484079802164
:10AE400088431149487100201149C8700A2048718F
:10AE50000D488079400840000B49887115F0F8F8DA
:10AE600010BD000024280020D02700201428002036
:10AE70003C2000208D2000208E2000208F200020EC
:10AE8000E4370020B72000209C2300205920002018
:10AE9000F321002000200021374A11705170917079
:10AEA00051601172354909785172344909789172AB
:10AEB0000021D1721173324A1170324A1170092186
:10AEC000314A11700021314A1170314A1170314AF2
:10AED0001176517600BF4CE0042142012E4BD2186E
:10AEE000917200214201D218D17280214201D21800
:10AEF00011734201D218517300214201D21891738B
:10AF00004201D218D173FF214201D21811740021DD
:10AF10004201D21851744201D21891744201D218E0
:10AF2000D1744201D21811754201D21851754201F3
:10AF3000D218917514214201D218D1750021420115
:10AF4000D21811764201D21851764201D218917668
:10AF50004201D21891774201D218D1764201D2181B
:10AF600011774201D21851774201D218D177411C92
:10AF7000C8B20328B0DB7047C0270020552000204E
:10AF8000572000204B2000204C2000204D20002086
:10AF90004E200020D02700205E27002010B500247E
:10AFA00026480078032818D1202025490870402021
:10AFB0002449087030202449087020202349087053
:10AFC0001C202349087014202249087010202249AF
:10AFD000087006202149087017E0102018490870F1
:10AFE00020201849087018201749087010201749A8
:10AFF00008700E20164908700A20164908700820AB
:10B0000015490870042015490870FFF743FF002414
:10B0100010E000201249085500211148401D01553B
:10B020001B300155401D01551B300155401D015578
:10B03000601CC4B2052CECDB10BD000058200020C1
:10B040004F200020502000205120002052200020BE
:10B05000532000205420002055200020562000209E
:10B060005E270020F3B583B00E4600240020029036
:10B07000451E0027039800281DD1019034460190F9
:10B0800015E01E48844205D90A213046FBF75EF8D8
:10B09000044609E0019847B202943D462D03029C04
:10B0A0002D19284605B0F0BD0198401C019001986B
:10B0B0000828E6DD00BF039801281DD1002001907B
:10B0C0003446019014E00E48844205D90A213046E6
:10B0D000FBF73CF8044608E0019847B202943D466D
:10B0E0002D06029C2D192846DCE70198401C019092
:10B0F00001988028E7DD00BF2846D3E7FF0F000056
:10B10000FFFFFF000D4800780007C00F002813D094
:10B110000B48C0782021884320300949C870084670
:10B12000C0784021884340300549C8700348007802
:10B13000082188430149087070470000B7200020AB
:10B14000EC210020FEB506460F463446391F204646
:10B150000DF086FC0190E0192038057F2D02E019E2
:10B160002038407F45192D02E0192038807F45198D
:10B170002D02E0192038C07F45190198854256D12B
:10B18000207800281BD000202B4908702B4908602C
:10B19000641C00900FE029480068000227490860FD
:10B1A0002178641C25480068081824490860009824
:10B1B000401CC0B2009000980428ECDB03E00120A2
:10B1C00004F0C6F8FEBD1E4800681E4988420ADA2F
:10B1D0001A480068884206D91B4840798021884374
:10B1E000803019494871154800681649884213D9BA
:10B1F00012480068124908602078144900228A56D3
:10B20000904209D0207840B208701148C0780421DB
:10B210008843001D0E49C87040200E4908700C4834
:10B22000007802218843801C0949087002E001204F
:10B2300004F08EF800BFC5E7C9200020F0200020F0
:10B2400070280020805AC3529C230020F420002044
:10B25000E2200020E9200020F8B504460D46288BA6
:10B26000022817D12068002814D02E461A363046FE
:10B2700014F0ACFE0746022038404008002802D0F7
:10B280000020009001E001200090694620462268DD
:10B29000904700BFF8BDF8B504460D46288B02283C
:10B2A00016D12068002813D02E461A36304614F0E6
:10B2B0008DFE0746F807C00F002802D0032000903B
:10B2C00001E004200090694620462268904700BFB4
:10B2D000F8BDF8B504460D46AE1D3088E1898842B8
:10B2E00006D102200090694620462268904700BFA0
:10B2F000F8BD000070B586B006460C46208B1528B8
:10B3000025DA002506E020461A30405D01A948559F
:10B31000681CC5B2208BA842F5DC217E01A8FDF790
:10B32000E1FC0C4800788007C00F00280FD00A48C5
:10B33000006803210907884301214907401806498D
:10B34000086004480078022188430249087006B06A
:10B3500070BD0000E2200020AC23002070B5044640
:10B360000E46B51D2988608A814204D129462046AF
:10B37000FFF772FF10E02988608B814204D12946D3
:10B380002046FFF788FF07E02888E188884203D13C
:10B3900029462046FFF7AEFF70BD000070B502469B
:10B3A00000205406230E00BF06E00C5CDD000A4EB0
:10B3B000AD192C54441CE0B20828F6DB002008E04C
:10B3C0000C18257A5C1CE400034EA4192554441C77
:10B3D000E0B20828F4DB70BDDE2C0020F8B507468B
:10B3E0000C4615461E467E202070A8886060287B8B
:10B3F000C007C00F002803D017496068401860607C
:10B400002878697809024118A87800040818E978B2
:10B4100009064018A0606889E060E8882061287B00
:10B4200004210840042803D10B49206940182061F9
:10B43000E8890A21FAF7A0FEE082E08A0A2148435F
:10B44000E0822889A082687B044909794907490F6D
:10B4500040182076A677F8BD60EA00009920002009
:10B460001148006811490968884211D10F480068E5
:10B4700000280DD000200C4908600C4908600C49D8
:10B48000087001200B49087009200B49087009E079
:10B490000A48006803210907884301214907401829
:10B4A0000649086070470000302300203423002044
:10B4B00040230020A8210020B0210020AC23002040
:10B4C0001FB5E82069460872012403E002A804556C
:10B4D000601CC4B2072CF9DB002426E06B4602AAEC
:10B4E00007211B48006813F04DFD68468178600015
:10B4F00020180930174A1154684601796000201855
:10B500000A30115468468179600020180B301154BC
:10B510006B469B795AB26B461B7959B26B469B7846
:10B5200058B20DF021FB601CC4B2062CD6DB0620FD
:10B5300011F062F8002807D000212E2013F03CFC07
:10B5400046212E2013F038FC0FF090F81FBD0000AC
:10B5500098230020F837002010B50C200321052285
:10B56000120707231B02D2188300D15000BF00BF6F
:10B5700001218140084A916000BF0022032110464A
:10B5800013F080FC0549086000F00AF8052010F06F
:10B590009BFF00F025F810BD000500509823002007
:10B5A00070B500250121062010F0BAFF0121072007
:10B5B00010F0B6FF4025084B2A46294607480AF0F6
:10B5C000FFFA0446002C01D0E0B270BD03480078B9
:10B5D0000AF078FA0120F8E7F59401006A230020C8
:10B5E00010B53721202013F0E7FB052010F06CFF89
:10B5F0000021212013F0E0FB0821232013F0DCFBC5
:10B600000421222013F0D8FB4021242013F0D4FB86
:10B610008021252013F0D0FB00212E2013F0CCFB3D
:10B6200046212E2013F0C8FB0021302013F0C4FB6C
:10B6300007F02EFB10BD000010B52721202013F0CD
:10B64000BBFB052010F040FF0921212013F0B4FBC3
:10B650004021222013F0B0FB0021232013F0ACFB8B
:10B660000021242013F0A8FB00212E2013F0A4FBBE
:10B67000FF21A62013F0A0FB0021332013F09CFB38
:10B680000621322013F098FB0120034908702A217B
:10B69000302013F091FB10BD9523002010B5002140
:10B6A000202013F089FB012010F00EFF0021222042
:10B6B00013F082FB024800780AF0DAF910BD0000AE
:10B6C0006A23002010B5FFF71DFD01F023FAFCF7F7
:10B6D00057F900F0A5F84C4800780007C00F002883
:10B6E00017D04948006808218843474908604748FF
:10B6F0004078032802DA0320444948704248006831
:10B7000001218904884340183F49086000204049CE
:10B7100008703D480088C005C00E002808D0FAF720
:10B72000FDFE39480068FF21F13188433649086041
:10B73000354800888004C00F00282CD032480068AB
:10B74000C00F002827D0334840784007C00F00289A
:10B750001AD02D480068400040082B4908602D4849
:10B76000C078C007C00F002802D013F07BFA01E0B8
:10B7700013F0CCFA002C06D12348006801214903BC
:10B7800088432149086006E01F48006801214903F9
:10B7900088431D4908601C4800688003C00F0028CA
:10B7A00008D01948006801214904884316490860F7
:10B7B00000F04CF9144800684002C00F002812D075
:10B7C0001548007800280ED10F4800680002C00F0D
:10B7D000002808D10C4800680121890588430A49DE
:10B7E00008600AF089F8084800688001C00F002846
:10B7F00009D00548006801214906884302490860CC
:10B80000064813F083F810BDAC230020DC23002091
:10B8100032240020E22000205A200020482400206A
:10B8200010B57C4800784007C00F00280DD17A4839
:10B830008079C007C00F002807D00CF011FD7648B2
:10B840008079400840007449887173488079000706
:10B85000C00F002809D070488079082188436E49BC
:10B8600088716E4800880DF0BDFA6D480078042894
:10B8700070D1684800784007C00F0028F8D16948A7
:10B880000078642803DB68480078002862DD674898
:10B8900000780028FADD64480078002825DD12F0E1
:10B8A000ABFA022815D1624800684001C00F002899
:10B8B00010D05F4800798006C00F00280AD05C488D
:10B8C00000680321090788430121490740185849A6
:10B8D00008609EE05648006803210907884301215B
:10B8E000090740185249086093E00BF011FF002847
:10B8F00031D050480078002821D14D4800684001DF
:10B90000C00F002810D04A4800798006C00F0028D8
:10B910000AD04748006803210907884301214907E5
:10B9200040184349086074E0414800680321090752
:10B9300088430121090740183D49086069E03C48F7
:10B940000068032109078843012109074018384985
:10B9500008605EE047E03348007800282CDD0021D5
:10B96000354800780A2826DD314800880005C00FD8
:10B97000002820D031480078002804D129480078D8
:10B98000294A107003E02D480078274A10700020E3
:10B9900008E0062242432A4BD2181279521891B27B
:10B9A000421CD0B2204A12789042F2DB2548018036
:10B9B0000088254A10802CE01648C078C007C00FC8
:10B9C000002808D11A48006801214903884340181B
:10B9D000174908601DE016480068012149038843A3
:10B9E0001349086015E00B4800784007C00F002895
:10B9F0000FD00F488088C005C00F002809D00E481E
:10BA000000780A2805DD012003F0A2FC00200A4985
:10BA1000087010BDE22000209C230020AC210020F3
:10BA2000E9200020AA210020AB210020A82100202D
:10BA3000AC230020EA200020B0210020AF2100200C
:10BA4000682A002022210020242100201FB51F4841
:10BA50000078030009F02CFB060405111B1C26309E
:10BA60001FBD0021684681720121C1728C21817342
:10BA70000399029800F034F81FE007221449684641
:10BA8000FAF7CEFB0199009800F02AF815E014E0CF
:10BA9000072210496846FAF7C3FB0199009800F0A5
:10BAA0001FF80AE007220C496846FAF7B9FB01992A
:10BAB000009800F015F800E0D2E700BF07480178D1
:10BAC000FF2000F0E1F800BFCAE7000031240020A9
:10BAD000DC230020EA230020F1230020D4230020CF
