:020000040001F9
:10600000E0520020156101002F61010005D8010058
:106010000000000000000000000000000000000080
:1060200000000000000000000000000033610100DB
:106030000000000000000000356101003761010030
:106040003961010039610100195D02003961010007
:106050003961010000000000A9BF010039610100A1
:106060003961010039610100B15C02003961010050
:1060700039610100396101003961010039610100B4
:1060800039610100F1250200396101003961010027
:10609000C53D0200CD3D0200F93D0200396101001D
:1060A00039610100396101000000000000000000BA
:1060B00000000000000000000000000000000000E0
:1060C0000348854600F00CFA004800477DFE0200B8
:1060D000E0520020401E00BF00BF00BF00BF00BF55
:1060E00000BF00BF00BF00BF00BF00BF00BFF1D1B5
:1060F00070470000401E00BF00BF00BF00BF00BFD0
:1061000000BF00BF00BF00BF00BF00BF00BFF1D194
:10611000704700000321094802680A4302600848EA
:1061200002680A4302600748804707480047FEE7C5
:10613000FEE7FEE7FEE7FEE7FEE70000240500407D
:1061400054050040795C0200C160010030B50B4687
:10615000014600202022012409E00D46D5409D4241
:1061600005D31D469540491B2546954040191546C7
:10617000521E002DF1DC30BD70B5002425460028EC
:1061800001DA01244042002901DA01254942FFF7E2
:10619000DDFFAC4200D04042002C00D0494270BD2F
:1061A000F0B51FB40646002082B005464024019198
:1061B00000901BE0019922460F46304600F03EF960
:1061C000049A059B801A994110D31046194622461D
:1061D00000F016F8361A8F4101972246012000215F
:1061E000009F00F00DF838184D4100902046641EC5
:1061F0000028DFDC019B00982946324607B0F0BD3D
:1062000010B5202A04DB0146203A9140002010BD41
:10621000914020239C1A0346E3401943904010BD4F
:1062200003460B439B0703D009E008C9121F08C0AF
:10623000042AFAD203E00B780370401C491C521E5A
:10624000F9D27047D2B201E00270401C491EFBD265
:1062500070470022F6E710B513460A460446194671
:10626000FFF7F0FF204610BD421C0178401C0029BA
:10627000FBD1801A704730B504460020034600E089
:106280005B1C934203D2E05CCD5C401BF8D030BD78
:10629000F8B502464A40D40F42004B0052085B0852
:1062A0009A4202D20246084611464A0023D0C30D44
:1062B0004A00DDB2120EAD1A202D35DA4902012650
:1062C000490AF6058A19002C00D0524220214F1BA2
:1062D0001146B9402A411018C20D9A4221D0002C13
:1062E00017D0012D08DCDA05801AD20F8019D207E9
:1062F000DBB200F0BCF8F8BDDA05801A01234000DB
:106300001B06C01880185A428018CA0F1043490053
:1063100007E04908C2071143DA05801A80194008CE
:10632000801800F09CF8F8BD61000122511A001B92
:10633000F7E70122D2075140AAE70122D2075040D5
:10634000A6E770B502464A40D50F40004A00ED0767
:1063500040085208002814D0002A12D0C40DD30DD2
:1063600041020120C0055202490A520AE41A0918E2
:1063700012187D34914201D3641C00E04900002CC6
:1063800001DA002070BD0023914201D3891A034332
:10639000400849000028F7D100290AD0914202D1D3
:1063A0000121C90705E0914201D2012101E001214B
:1063B000C943E005C018401900F051F870BDC2177C
:1063C000C10F504010B54018CA079623002100F0B5
:1063D0004EF810BD10B500229623114600F047F884
:1063E00010BDC20F410040020123400ADB05D20765
:1063F000090EC0187F2901DA00207047962903DCB6
:106400009623591AC84001E096398840002AF4D0F2
:10641000404270470122D207002800DB101A0029F1
:1064200000DB511A814270470122D207002800DBAD
:10643000101A002900DB511A8842704710B5202A33
:1064400004DB0846203AD040002110BD0B46D34063
:10645000D0402024A21A91400843194610BD0029BB
:1064600004DA401C490001D140084000704770B474
:106470000024050C05D11024000402D1002921D0EC
:106480001124050E01D100020834050F01D10001CD
:10649000241D850F01D18000A41C002801DB4000D1
:1064A000641C002908D020252E1B0D46F540A14074
:1064B00000D001212943084301061B1B000ADB1DF4
:1064C00002D5002070BC7047DB0518188018002921
:1064D000F8DA401C4900F5D170BC40084000704714
:1064E000064C0125064E05E0E36807CC2B430C3C27
:1064F00098471034B442F7D3FFF7E6FD088F030046
:10650000288F030070B58C180578401C6B075B0F53
:1065100001D10378401C2A1106D10278401C03E007
:1065200006780E70401C491C5B1EF9D12B0705D460
:106530000023521E0DD40B70491CFAE70378401C4F
:10654000CB1A921C03E01D780D70491C5B1C521E77
:10655000F9D5A142D8D3002070BD0000F3B5ABB08F
:106560000746387880210840002831D03878FA4929
:106570000880084600784006400E088008460078EB
:106580000006000C0880787809884018F2490880D5
:1065900008460088F1490880B878F1490880F87801
:1065A00028902C98001FEF4908807D21EE48FFF7C6
:1065B00050FEEC480288391DEB48FFF731FE289861
:1065C000002801D0012000E00020E849087037E0F1
:1065D000387828902C98401EC0B229902898401EE8
:1065E000E2490978401A132148431030C0B22A907A
:1065F0002898062808DD0020DA4908807D21DA483D
:10660000FFF727FE2DB0F0BDD6480188299808185D
:10661000D3490988884206DDD1480078D1490978F4
:10662000401AC0B22990CF48018829980818CD494E
:106630000880CD4A2A995018791C299AFFF7F0FD55
:10664000C8480088C6490988884200DADAE7C6489F
:106650000690C3480078001FC6B2002E00D1D1E7D3
:1066600006988019C0780699891989780902411815
:10667000069880194078000409180698805D000685
:10668000091805913146069816F052F804900599BC
:106690000498884201D1012000E0002005468021B5
:1066A00007A8FFF7D6FD7D2E00D97D26324607A824
:1066B0000699FFF7B5FD2796002407A8005D682816
:1066C0007ED1A54800880028FAD1601CC4B2002DF4
:1066D00002D112F013FB95E72046611CCCB207A94A
:1066E000085CA34908702046611CCCB207A9085C6D
:1066F00041B26846C1702046611CCCB207A9095C52
:10670000684681702046611CCCB207A9095C6846C6
:1067100041702046611CCCB207A9095C6846017033
:106720002046611CCCB207A9085C41B26846C17121
:106730002046611CCCB207A9095C684681712046DD
:10674000611CCCB207A9095C684641712046611CF6
:10675000CCB207A9095C68460171C078801C41B2BF
:106760006846C170009807F04FF882490860824877
:1067700000890968884218D07E4800687F498842AD
:1067800005D87C480068FF21F531884202D27C4858
:106790007849086077480088774908817948007807
:1067A000402188434030774908706846C079C01C52
:1067B00041B26846C171019807F026F86D4900E0C2
:1067C00087E048606C4840894968884220D0694821
:1067D00040686D49884205D866484068FF21F53118
:1067E000884202D2694863494860624880886249A9
:1067F000488149898900481D6421FFF7BDFC5E4935
:106800000873604800784021884340305D49087033
:106810002046611CCCB207A9095C6846017220467B
:10682000611CCCB207A9085C039003980002039096
:106830002046611CCCB207A9085C039A101803908B
:106840000398000203902046611CCCB207A9085CA3
:10685000039A101803900398000203902046611CCD
:10686000CCB207A9085C039A10180390424801783B
:106870006846007A81420AD06846007A3E4908702C
:10688000404800784021884340303E4908703A48EB
:1068900040680399884209D03749039848603948CD
:1068A00000784021884340303649087038480078E5
:1068B000102188431030364908702D48007801288F
:1068C00006D13448807940084000401C3149887125
:1068D00096E007A8005D69281BD11F4800880028A2
:1068E00017D1002D02D112F009FA8BE62A48067062
:1068F0000078322802D932202749087026480278C9
:1069000007A9023125481AF0D4FF24480DF006F8F3
:1069100076E007A8005D6A285CD10F48008800284F
:1069200058D1002D02D112F0E9F96BE6072207A930
:1069300002311B481AF0BDFF0CF052FB0CF0E0FCDA
:106940000BF0AAFF07A9601C085C01282CD115498F
:1069500013480DF0B1F83AE0BE2300209E2300203A
:10696000962300209423002010390020C02300200B
:1069700023210020CC2000201829002030750000A1
:1069800070170000E0200020B80B0000A4060000F3
:106990001A2100201C240020562400203B3B00200C
:1069A000412400206A24002007A9601C085C0228FA
:1069B00004D1FA49FA480DF07FF808E007A9601CF5
:1069C000085C032803D1F749F7480DF075F80DF07E
:1069D00015FF15E007A8005D6D2811D1F348008868
:1069E00000280DD1002D02D112F088F90AE6052207
:1069F00007A90131EE481AF05CFFED480DF03CF8B4
:106A0000EC480078102876D006DC01280BD002284C
:106A100072D0042871D16AE120286FD040286ED04E
:106A20008028F7D164E1002D02D112F067F9E9E581
:106A3000E1A107A8279A1AF025FF012826D12020D6
:106A4000DC490870E048007C08218843DE4908746E
:106A50000846007C04218843001DDB49087402209D
:106A60000870400316F0F6FBD848007802218843EE
:106A7000801CD64908700846007940218843403080
:106A8000D24908710020D2490880E2E0D1A107A8CC
:106A9000279A1AF0F7FE012802D11BF0AFFAD8E0CE
:106AA000CFA107A8279A1AF0EDFE012817D112F0FE
:106AB00025F9CE480078C009002805D1CC48807857
:106AC000462801DD17F06AFAC04800794021884362
:106AD0004030BE4908710020BD490880B9E0C5A119
:106AE00007A8279A1AF0CEFE012809D112F006F95C
:106AF0001BF07AFAADE0F9E0F7E0FDE3ACE0F8E096
:106B0000BFA107A8279A1AF0BDFE01281ED1402078
:106B1000A8490870AD48007802218843801CAB4921
:106B200008700846007904218843001DA7490871B0
:106B3000A548407C04218843A3494874A3480079B0
:106B4000082188430830A149087182E02798072866
:106B500068D1012D66D100242146641C07A8405C41
:106B6000012857D12046611CCCB207A9085CA7496F
:106B700008600846006802022046611CCCB207A9E2
:106B8000085C1018A1490860084600680202214606
:106B9000601CC4B207A8405C10189C4908600846F5
:106BA000006802022046611CCCB207A9085C1018DC
:106BB00096490860084600689549884212D993486A
:106BC0000068944908602046611CCCB207A9085CA3
:106BD00040B2914908707D48C07804218843001D67
:106BE0007A49C870402073490870784800780221BB
:106BF0008843801C754908707348407C0421884391
:106C000071494874714800790821884308306F49F8
:106C100008711EE06D48007802218843801C6B4992
:106C2000087016E040206349087068480078022127
:106C30008843801C654908706348407C0421884370
:106C400061494874614800790821884308305F49E8
:106C5000087112F09BF979E3002407A8005D62280F
:106C600042D15248008802283ED1601CC4B2002D97
:106C700002D112F043F8C5E42798222804D012F07C
:106C80003DF817F08BF92DE0002008E02146621C4A
:106C9000D4B207AA515C614A1154411CC8B20F28F2
:106CA000F4DB002008E02146621CD4B207AA515C44
:106CB0005B4A1154411CC8B20C28F4DB002008E0E8
:106CC0002146621CD4B207AA515C564A1154411C99
:106CD000C8B20628F4DB3D48007880218843803024
:106CE0003A49087012F052F930E300BF00BF00BF0C
:106CF00000BF002407A8005D50284DD12B48008814
:106D00000328FAD1601CC4B2012D46D12046611C73
:106D1000CCB207A9085C3D49086008460068020239
:106D20002046611CCCB207A9085C101837490860DE
:106D30000846006802022046611CCCB207A9085C24
:106D40001018324908600846006802022046611C9B
:106D5000CCB207A9085C10182C49086008460068E6
:106D6000314908602B480068294988420ADA2E48D0
:106D70000068884206D91D484079802188438030C8
:106D80001A49487128480068214988424ED9264846
:106D90000068204908604DE082E119E2712400207A
:106DA00048240020782400204F240020BE23002007
:106DB0003C240020E9200020666163746F72792012
:106DC0006D6F646500000000AC3A0020E0200020F8
:106DD000DE200020757064617465206D6F6465004D
:106DE00074657374206D6F64650000001C240020BE
:106DF00000240020636865636B206D6F646500008C
:106E000070616972206D6F6465000000C820002009
:106E1000805AC35274290020F02000206C2A0020E0
:106E20007B2A0020D5200020EC200020FE480068AE
:106E3000FD4908602046611CCCB207A9085C41B23C
:106E40006846C1702046611CCCB207A9095C68463F
:106E500081702046611CCCB207A9095C684641706C
:106E60002046611CCCB207A9095C68460170204627
:106E7000611CCCB207A9085C41B26846C1712046CA
:106E8000611CCCB207A9095C684681712046611C6F
:106E9000CCB207A9095C684641712046611CCCB29E
:106EA00007A9095C68460171C078801C41B2684638
:106EB000C170009806F0A8FCDC490860DC48008935
:106EC0000968884218D0D9480068DA49884205D84C
:106ED000D6480068FF21F531884202D2D648D3490E
:106EE0000860D2480088D2490881D44800784021FF
:106EF00088434030D14908706846C079C01C41B20F
:106F00006846C171019806F07FFCC8494860C848CE
:106F100040894968884220D0C4484068C8498842AE
:106F200005D8C2484068FF21F531884202D2C548E1
:106F3000BE494860BD488088BD494881498989006B
:106F4000481D6421FFF718F9B9490873BB48007858
:106F5000402188434030B94908702046611CCCB2BA
:106F600007A9095C684601722046611CCCB207A9DA
:106F7000085C03900398000203902046611CCCB289
:106F800007A9085C039A1018039003980002039065
:106F90002046611CCCB207A9085C039A1018039024
:106FA0000398000203902046611CCCB207A9085C3C
:106FB000039A101803902046611CCCB207A9085C04
:106FC000A149086008460068000208602046611C6C
:106FD000CCB207A9085C9C49096840189A49086026
:106FE00008460068000208602046611CCCB207A970
:106FF000085C954909684018934908608C480178F5
:107000006846007A81420AD06846007A884908704A
:107010008A48007840218843403088490870844875
:1070200040680399884209D08149039848608348A1
:107030000078402188434030804908702046611C18
:10704000CCB207A9085C814908700846007801287D
:1070500006D17F48807940084000401C7C498871F7
:10706000601CC4B207A8011905227A481AF021FC55
:1070700078480CF001FD71484079402188436F4900
:1070800048710420744908701420744908707449C8
:107090000870744908701CF0B1FB11F077FF53E1E0
:1070A00007A8005D572830D1601CC4B26E48008824
:1070B0006E4908802046611CCCB207A90A5C012AEF
:1070C0001BD1012D19D16A48008868490988884276
:1070D00013D111F05BFF66480088664908805C4860
:1070E00080790821884308305949887153480078CD
:1070F000042188435149087006E05F4800885F49D1
:10710000098840185C4908801EE107A8005D5128E5
:107110002FD1601CC4B254480088544908802046CE
:10712000611CCCB207A9085C0390039801281FD109
:10713000012D1DD1524800884C490988884217D139
:1071400011F024FF1FF0FAF84D4800884D490880DF
:1071500000204D4908703E48807908218843083056
:107160003B498871354800780421884333490870C9
:10717000EAE007A8005D52282BD1601CC4B23A484F
:1071800000883A4908802046611CCCB207A90A5CF5
:10719000012A1DD1012D1BD13C48008833490988A3
:1071A000884215D111F0F2FE38480088384908802D
:1071B0000020384908702648807908218843083023
:1071C000234988711D480078042188431B490870B1
:1071D000BAE007A8005D53286AD1601CC4B22248F7
:1071E0000088224908802046611CCCB207A90A5CAD
:1071F000012A5CD1012D5AD1274800881B490988F2
:10720000884254D111F0C2FE2348008823490880E7
:107210000020234908700E488079082188430830EF
:107220000B49887105483DE0EC200020CC2000206F
:10723000182900203075000070170000E0200020A1
:10724000B80B0000A4060000242100202321002008
:107250001C2400203C240020E9200020E6200020FF
:10726000E720002022210020BE230020A8210020AA
:107270009E210020A0210020202100201421002098
:10728000962100209A210020982100207E210020B4
:107290008221002080210020862100208A210020D8
:1072A000882100200078042188432F4908704BE092
:1072B00007A8005D54282DD1601CC4B22B4800885B
:1072C0002B4908802046611CCCB207A90A5C012A20
:1072D0001FD1012D1DD127480088254909888842E2
:1072E00017D111F053FE234800882349088000205D
:1072F00022490870224800E027E08079082188436D
:1073000008301F49887118480078042188431649BD
:10731000087019E007A8005D632815D1601CC4B28D
:107320002046611CCCB207A9085C03900398012891
:1073300003D1012D01D107F0D9FB0B4800780421BE
:1073400088430949087000BF00E000BF00BF7D21ED
:107350000C48FEF77EFF00200B4908800B4908808F
:107360000249088000BF86E4E0200020BE23002000
:10737000A82100208E2100209221002090210020B1
:107380001C24002010390020962300209423002084
:10739000F1B592B000200C900F22FE49FE481AF081
:1073A00088FA0C22FD49FC480F301AF082FAFC489A
:1073B0000068FC49096888423ED1FA480068002804
:1073C0003AD0F9488079C006C00F002808D00020C4
:1073D000F6490870F448807910218843F249887191
:1073E000F3480078042801D11CF02EFFF148007802
:1073F0008007C00F00280ADDEE480078022188438C
:10740000EC4908700020EC490870EC490872002033
:10741000E3490860EA490870E2490860E5480078F5
:1074200010218843E3490870E648407902218843E7
:10743000E449487113B0F0BDD948006800287DD1F7
:10744000E1490860DF48407904218843DD494871FB
:10745000129820284BD004DC012807D004286ED1D4
:1074600086E140287AD08028F9D156E10F22C94917
:10747000C948FEF7D5FE0C22C849C7480F30FEF7B1
:10748000CFFE08AA1B21C44819F0D7FACF4840689C
:10749000CF490860CF48D0490860084610210268EB
:1074A000CB48006800F078FECC49087008460078A8
:1074B000BB4908600020CA49487101200880B848CB
:1074C0000078C8700120887014210DA8FEF7C1FE55
:1074D00000200622C249009006A8FEF7A1FE0DABCF
:1074E000BC4A0799069800F063FE0746D3E1622084
:1074F0000B9001240BA8B6490860B648B64908604D
:10750000084621460268B248006800F045FEB349CB
:10751000087008460078A24908600020B049487108
:10752000022008809E480078C870012088701421CD
:107530000DA8FEF78EFE0020062202E0ACE1A9E1D4
:107540000CE0A749009009A8FEF76AFE0DABA14A1E
:107550000A99099800F02CFE07469CE100240025BA
:10756000502229466D1C04A84254641C9D4882790F
:1075700029466D1C04A84254641C9A484279294645
:107580006D1C04A84254641C9648027929466D1C5F
:1075900004A84254641C9348C27829466D1C04A870
:1075A0004254641C8F48827829466D1C04A84254BA
:1075B000641C8C48427829466D1C04A84254641C03
:1075C00089A632782846691CCDB204A90A54601CE9
:1075D000C4B272782846691CCDB204A90A54601C52
:1075E000C4B2B2782846691CCDB204A90A54601C02
:1075F000C4B2F2782846691CCDB204A90A54601CB2
:10760000C4B232792846691CCDB204A90A54601C60
:10761000C4B277A632782846691CCDB204A90A54B0
:10762000601CC4B272782846691CCDB204A90A5401
:10763000601CC4B2B2782846691CCDB204A90A54B1
:10764000601CC4B2F2782846691CCDB204A90A5461
:10765000601CC4B268A632782846691CCDB204A961
:107660000A54601CC4B272782846691CCDB204A9C1
:107670000A54601CC4B2B2782846691CCDB204A971
:107680000A54601CC4B2F2782846691CCDB204A921
:107690000A54601CC4B25A4802782846691CCDB20C
:1076A00004A90A54601CC4B24819052255491AF0AD
:1076B00000F9681DC5B2601DC4B204A84449086041
:1076C0004448454908600846214602684048006829
:1076D00000F062FD414908700846007830490860B2
:1076E00001203F494871032008802D480078C87068
:1076F0000120887014210DA8FEF7ABFD00200622A2
:107700003749009002A8FEF78BFD0DAB314A039973
:10771000029800F04DFD0746BDE063200A90012667
:107720000AAD2C480B90314628460B9A00F034FDE8
:1077300004461B4804600020294948710220088043
:1077400017480078C8700120887014210DA8FEF732
:1077500080FD002006222249009008A8FEF760FD67
:107760000DAB1C4A0999089800F022FD074692E0EB
:1077700025480078012873D011480078084908602E
:1077800008460068002860DD0120154948711F483F
:1077900000883DE06C2A0020143700207B2A00205E
:1077A0008C230020902300201C240020AC210020EA
:1077B000E92000201A21002022210020F4280020A6
:1077C000D4200020E0200020882300203037002033
:1077D000B423002090290020B8230020B0230020EB
:1077E000AA23002024240020343035423600000033
:1077F00041303930000000004130303200000000DC
:10780000F0200020862400209C2300209A230020C2
:1078100008805E480078C8700120887014210DA887
:10782000FEF717FD01200622594900900AA8FEF72D
:10783000F7FC0DAB574A0B990A9800F0B9FC0746C4
:10784000524800685449086023E0002053490870FA
:1078500053480078042188435149087019E0FFE734
:1078600000204A4908604C4908604E4908604B496D
:1078700008704B48407802218843494948700846BF
:107880000078042188434649087000204649087062
:10789000D0E500E000BF22E0414840794007C00F3A
:1078A00000281CD10DA804F0D3FF002817D13D48B3
:1078B000006800280DD0354800683A4909688842B8
:1078C00007D13748407902218843801C34494871E8
:1078D00004E000202D49086032490860AAE52B48E1
:1078E0000068002850DD2A48407900280CD12C4837
:1078F0004079042188432A4948710DA92B4811F089
:10790000F1FB11F025FB3FE02148407901283BD1F4
:10791000264840300679002E35DD002526E00DAAE8
:1079200023480178214811F059FC0446002C10D15D
:107930001B4840790421884319494871022D05DA12
:107940000DA804F085FF002800D111E011F000FB24
:107950000AE0082C00D16DE51148407904218843E4
:10796000001D0F49487103E0681CC5B2032DD6DB2A
:1079700000BF01201AF0BEF809484079022188436F
:10798000801C0749487100BF00BF53E58C230020CD
:10799000AA2300209029002088230020A023002073
:1079A000E020002090230020E6200020AC2A0020C8
:1079B000C123002000B50146422940D00EDC0A4612
:1079C000303A13000FF036FC12232527292B2D2FD8
:1079D00031333549494949494949384962292DD006
:1079E0000CDC452934D004DC43292BD0442934D184
:1079F0002BE046292FD061292FD11CE0632920D00C
:107A0000642921D0652922D0662926D122E00020D0
:107A100025E0012023E0022021E003201FE00420D4
:107A20001DE005201BE0062019E0072017E00820D4
:107A300015E0092013E000BF0A2010E000BF0B2072
:107A40000DE000BF0C200AE000BF0D2007E000BFE2
:107A50000E2004E000BF0F2001E0FF2000BF00BFA8
:107A600000BD02468A4202DD501AC0B27047881A31
:107A7000C0B2FBE7024600208A4202DD531AD8B2A8
:107A800001E08B1AD8B2704702468A4202DD501AD2
:107A900080B27047881A80B2FBE70000FEB5012073
:107AA000009001254648407802900298012800D0B5
:107AB000FEBD44480078012800D0F9E7424800782C
:107AC000002804D141480078C009002800D0EFE721
:107AD0003B488678C778007801900198411E00984D
:107AE0008840C0B200903A480088C005C00E002807
:107AF00064D1002460E02846A040C5B2E00021180F
:107B00003048401C405C012853D1E00021182D482A
:107B1000401C08188078B0424BD1E0002118294859
:107B2000401C08184078B84243D1E000211825488D
:107B3000401C0818C07800281CD125480068FF2187
:107B4000F13188432901FF22F132114008432049D5
:107B500008600021E00022181A48401C81541C488B
:107B600000680121890288434018194908600CF017
:107B700061F99DE7E00021181248401C0818C07800
:107B800000990840002814D011480068FF21F13105
:107B900088432901FF22F132114008430C49086053
:107BA0000846006801218902884340180849086096
:107BB0007EE70125601CC4B2032C9CDB00BF77E785
:107BC000A6200020AD3B0020AC3A00201C24002061
:107BD0003824002070B5012500243CE02846A04050
:107BE000C5B21F480088C005C00E284000282FD00D
:107BF000E00021181B48081800791B498870E00034
:107C000021181848081840791749C870E000211851
:107C100014480818007A14498871E00021181148A6
:107C20000818C079104948710520104908700C489F
:107C30000068012149048843401809490860E000B0
:107C40002218084810184179002007F0CBF870BDC1
:107C50000125601CC4B2032CC0DB00BFF7E70000A5
:107C600038240020AE3B00207F240020D1240020B7
:107C7000F8B50446002C01D10420F8BD2578641C19
:107C80002078641C00902678641C27460098012800
:107C900058D1042D01DA0320EFE7281FC5B2002ECA
:107CA00031D12948007800282BD128480078C00914
:107CB000002826D126480078012820D125480068D0
:107CC000012149028843401822490860084600689B
:107CD0000821884308301F490860202D00D920253D
:107CE00020211D48FEF7B5FA2A4639461A4819F0F0
:107CF000E0FD05F0AFFF01F05DFB0120BDE70220D4
:107D0000BBE70420B9E7022E1CD1012013490870FB
:107D100010480068710488430E49086008460068EE
:107D2000B10388430B4908600D4800780C498978F5
:107D3000401A042804DD0A480078001F08498870AA
:107D400001209AE7032098E7AC3A00201C24002089
:107D50006A240020382400208D3B00205F2400206E
:107D6000323B0020F0B591B005460E461C210AA812
:107D7000FEF76FFA08A9087A02218843801C08A937
:107D8000087200200B900D900E900F90109000BF85
:107D90000121684681742249018200BF00200390BE
:107DA0006846807B06218843811C68468173717A0E
:107DB0000173B17A4173807B08218843014668468C
:107DC0008173807B10218843014668468173807BE4
:107DD0004108490068468173142105A8FEF739FA65
:107DE000062704A8059003A806906846878300210B
:107DF000C1830784002407E00520011B0948405C7B
:107E000001A90855601CC4B2062CF5D301A809903D
:107E1000A8882B46163305AA0AA9A2DF11B0F0BD27
:107E2000C8FC00002524002030B599B005460C465A
:107E30000020119000BF10A8007901090901491C18
:107E400010A801710079F0218843103010A9087141
:107E500000BF10A8807906218843811C10A8817179
:107E6000217941711C2112A8FEF7F3F910A8007ABC
:107E700020218843203010A908720020139015900B
:107E8000169011A817900020189000BF012108A893
:107E900081731F496846818500BF00200A9008A8A9
:107EA000807A06218843811C08A881726179017259
:107EB000A1794172807A08218843014608A881721D
:107EC000807A10218843014608A88172807A41088F
:107ED0004900491C08A8817214210CA8FEF7B9F9C1
:107EE000142105A8FEF7B5F90BA80C900AA80D906F
:107EF0001421684601870021418714218187109051
:107F0000A8882B460E330CAA12A9A2DF19B030BDE7
:107F1000C7FC0000F3B587B00027142102A8FEF7C4
:107F200098F90898857E684605720898008B152890
:107F300056DA002D50DD042D4EDA681EC5B200243D
:107F40000AE008981A300019417813206843001994
:107F5000374A1154601CC4B20898008B401EA042DE
:107F6000EFDC33480078382803D9032069460873CA
:107F700039E02F480178132068430019814229DC39
:107F8000002606E02A49701C085CC01987B2701CE4
:107F9000C6B227480078801EB042F3DC2449701C2A
:107FA000085C0190019800020190701CC6B2701C20
:107FB000095C0198081880B201900198B84205D177
:107FC0001B48FFF755FE6946087302E0002069462A
:107FD000087308E009B0F0BD03206946087302E0A9
:107FE00003206946087305216846417210484178AC
:107FF000684681720E4881786846C1720027002465
:1080000006E002A9A01C085CC01987B2601CC4B2BB
:108010006846407A801EA042F3DC391268464173FC
:10802000877302A9079811F0E1F900BFD2E70000B9
:10803000A434002070B504460E46B51D2988608A18
:10804000814204D1294620461EF0FCFB07E0288827
:10805000E188884203D129462046FFF75BFF70BDC7
:1080600030B58FB004460D460020009000BF684632
:10807000007801090901491C684601700078F02167
:10808000884310306946087000BF00BF68464078DA
:1080900001090901491C684641704078F021884374
:1080A00010306946487000BF6846807806218843D2
:1080B000811C684681701C2108A8FEF7CAF808A830
:1080C000007820218843014608A801700078082123
:1080D0008843083008A90870002009900B900C9084
:1080E00068460D9000200E9000BF01216846817205
:1080F0002849018100BF0020019069468879062146
:108100008843801C6946887100BF68460079010970
:108110000901684601710079F021884369460871B8
:1081200000BF00BF6846407901090901491C684643
:1081300041714079F021884310306946487100BF91
:1081400068468079082188430146684681718079B4
:1081500010218843014668468171807941084900B1
:10816000491C68468171142103A8FEF772F802A821
:10817000039001A80490002168468182C1821721E2
:10818000018300200790A088A31D03AA08A9A2DFED
:108190000FB030BDC6FC0000F8B505460C461646CB
:1081A00022462946304619F084FB27463846F8BD5A
:1081B000FFB5BDB0164600240020039002964098FB
:1081C000019030A8808E0112802001432246641C59
:1081D00004A8815430A8808EC2B22146641C04A831
:1081E00042544698002808D0002738A8C27D20466F
:1081F000611C8CB204A90A540FE0042738A8C07D82
:10820000C019C2B22046611C8CB204A90A5438A815
:10821000C17D304614F08CFA0390002500203B907D
:1082200054E0002D0DD138A8827D2046611C8CB20F
:1082300004A90A5438A8807D401CC1B238A88175B1
:1082400023E0102D0DD138A8827D2046611C8CB210
:1082500004A90A5438A8807D401CC1B238A8817591
:1082600013E0284610381321FDF786FF00290CD1B2
:1082700038A8827D2046611C8CB204A90A5438A813
:10828000807D401CC1B238A8817538A8C07DA84245
:108290000ADD029802782046611C8CB204A90A54B7
:1082A0000298401C02900FE003213B98081AC1007D
:1082B0000398C840C2B22046611C8CB204A90A547B
:1082C0003B98401C80B23B90681C85B238A8C07DAA
:1082D000C019A842A5DC224604A9304619F0E9FAE3
:1082E0000B480460142C04DB14203C9009490860FE
:1082F00003E0E0B23C90074804600648008882B280
:108300003146019819F0D5FA3C9841B0F0BD000013
:108310008C23002090230020F0B502460C4600215B
:10832000661EF3B20025002028E008460CE0165C2B
:1083300017187F78BE4205DD155C1618767816543E
:1083400016187570461CF0B29842F0DB5E1EF3B250
:1083500018460FE0165C1718203FFF7FBE4207DA71
:10836000155C1618203EF67F16541618203EF57739
:10837000461EF0B28842EDDC4E1CF1B29942D4DBCD
:10838000F0BD00001C480078002803D000201B49E5
:10839000087070471948007800282BDD17480078CE
:1083A00017490988401816490880164880881349DB
:1083B0000978401813498880084680881249884205
:1083C00015DD1048007BC007C00F002803D0084609
:1083D0000C4988800BE00B4880880B49401A0949FA
:1083E00088800846007B0121084306490873002065
:1083F0000249087000BFCCE75A200020C4280020A2
:10840000402000202829002060EA000010B5002448
:108410000021CC48007801F061FB0121CA480078B6
:1084200001F05CFB0221C948007801F057FB01F024
:108430008BFCC7488078002801D101F001FDC448B9
:10844000807801286DD101F057F8C248007A0028E1
:1084500012D1C148C07802218843801CBE49C8702F
:108460000120BC490872BC48C07804218843BA493D
:10847000C8700020B9490860B74880782021884337
:108480002030B54988701CF005FCB54800780028FC
:1084900020D1B4480078022804D1B3480069801C78
:1084A000B1490861B04800690F21C901884207D964
:1084B0000020AD490861AD480089401CAB490881E6
:1084C000A9484068AA49884204D2A7484068401C8D
:1084D000A54948609E480078002822DD9E48C07863
:1084E0008007C00F00281AD0994800789B49096876
:1084F00040189A4908600846006863280FD99648D2
:10850000C078022188439449C8700846C078042185
:108510008843001D9049C870002090490860FFF70B
:1085200031FF94480078401C924908700846007852
:10853000202801DD00F00EFA8F48807F401C8E4914
:10854000887708462030807F401CC1B28A4820309E
:1085500081772030807F401CC1B2874840308177CE
:1085600086480078002836DD794800788349097804
:108570004018774908700020804908707448407896
:1085800040017D494018C07A502804DD7C48807E37
:10859000401C7B4988766E48407800282FD1764869
:1085A000C179007A09187448407A0C1806212046CF
:1085B000FDF7CCFD7049897988420DD96E488079E4
:1085C000142809DA00206249887005206D49087076
:1085D00000206D49087087E067488079E10888428B
:1085E000F9D26548807928287EDA002058498870B9
:1085F00005206449087000206349087074E05448FD
:108600004078012836D15C482030C179007A0918B9
:1086100059482030407A0C1806212046FDF796FD77
:10862000014655482030807981420ED95248203089
:108630008079142809DA00204549887005205149BD
:1086400008700020504908704EE04B482030807977
:10865000E108884248D2484820308079282843DA07
:1086600000203B4988700520464908700020464993
:10867000087039E036484078022835D13E4840300D
:10868000C179007A09183C484030407A0C1806211C
:108690002046FDF75BFD0146374840308079814236
:1086A0000ED9354840308079142809DA002028494D
:1086B000887005203349087000203349087013E0A2
:1086C0002D4840308079E10888420DD22A48403058
:1086D0008079282808DA00201D498870052029495A
:1086E000087000202849087004202349887204215A
:1086F000214820308172203081721548807800280E
:108700001FD12048007805281BD11F480078401C45
:108710001D49087008460078502812DD00200870B6
:108720001548807E06280CDA13482030807E062803
:1087300007DA11484030807E062802DA0920114904
:10874000087010BD48200020492000204A20002049
:10875000C4280020F42800201C240020A020002091
:108760005A20002058200020042900202829002019
:10877000FFFF00004B200020622800204D20002039
:10878000D42800204C2000204E20002010B5114895
:1087900084880020104948710E48007BC007C00F34
:1087A000002801D00D4824180D48844200D9044601
:1087B0000C484078C007C00F002806D00A4800685F
:1087C00024180A48844200D90446204605F05CF982
:1087D00010BD000028290020B721002060EA000019
:1087E000C0D40100E8210020DC2100203F420F001E
:1087F00030B588B002460020002100BF1BE00023F6
:108800006C462354002112E06B461B5C5B106C46E7
:1088100023544B00D35C834080242340002B04D09E
:108820006B461B5C23436C4623544B1CD9B208296E
:10883000EADB431CD8B20828E1DB002026E0002454
:10884000034608336D46EC5400211BE00346083311
:108850006C46E35C5C10034608336D46EC544B00F9
:108860005B1CD35C834080242340002B08D003464C
:1088700008336C46E35C80242343044608342B55BC
:108880004B1CD9B20829E1DB431CD8B20828D6DB3F
:10889000002026E00024034610336D46EC540021EE
:1088A0001BE0034610336C46E35C5C100346103358
:1088B0006D46EC544B001033D35C8340802423403E
:1088C000002B08D0034610336C46E35C802423431E
:1088D000044610342B554B1CD9B20829E1DB431C4C
:1088E000D8B20828D6DB002026E00024034618333F
:1088F0006D46EC5400211BE0034618336C46E35CE4
:108900005C10034618336D46EC544B001133D35CB6
:10891000834080242340002B08D0034618336C4644
:10892000E35C80242343044618342B554B1CD9B2F6
:108930000829E1DB431CD8B20828D6DB002004E07C
:108940006B461B5C1354431CD8B22028F8DB08B0DC
:1089500030BD00001E488078002821D11D48C07E0F
:10896000142804DD00201B4988761949087219482B
:108970002030C07E142806DD002116482030817684
:1089800000201349087213484030C07E142812DDBD
:10899000002110484030817600200D4908720AE01D
:1089A0000B48407840010B494018C07E142802DD76
:1089B00000200749887000200649C8760021054834
:1089C0002030C1762030C1760020034908707047FE
:1089D000C4280020622800204B20002010B56248E7
:1089E0004079642804DA60484079401C5E49487147
:1089F0005D4840790A2802DD00205B4908710D209E
:108A000019F032F9002838D158480078C0090028F8
:108A100032D05748C0782021884320305449C8704C
:108A200008460078802188438030514908704F48BB
:108A30000078802188434D49087000204A494870D9
:108A40004B480078402188434030494908704648E7
:108A500040790A280ADC44480079401C42490871E0
:108A600008460079022801DD0120C8703F4840799E
:108A7000402188433D49487110BD3C480078C009F9
:108A800000283CD13948007880218843803037491C
:108A9000087037480078C007C00F002808D106F0DA
:108AA00059F83348007840084000401C30490870AD
:108AB000012030494870FF20087000202A49487082
:108AC00009202D49087016F0B1FB2A49C870C878F2
:108AD00006F0A2F8012007F0D7F80120800314F077
:108AE000B9FB2248407940218843204948711E48FB
:108AF00040790A2803DD00201B494871087116F0EF
:108B000095FB1C49C8700E2019F0AEF8012819D148
:108B100015484078401C144948700846407805289C
:108B20001ADD07201349C8701048007810218843C7
:108B30000E49087005200C4948700E49C87806F0A7
:108B40006BF809E009480078102188431030074984
:108B500008700020044948700020064988700A20E7
:108B6000087000BF88E70000EF2100201C240020CF
:108B7000E8210020323B0020D121002070B50120E7
:108B8000800314F067FB8E4880784006C00F0028F1
:108B900060D08B488078402188438949887089A1BA
:108BA000002005F043FC8CA1012005F03FFC844827
:108BB0000078402188434030814908700A208B4961
:108BC00008708B48C0780821884308308849C870ED
:108BD00016F068FD102019F01FF8192019F06AF836
:108BE0008348007840084000401C8149087018F014
:108BF000B9FC7F48007802218843801C7C490870BA
:108C0000112019F009F8132019F006F8C82018F0FF
:108C100071FF0EF041FE0546112019F04BF81320AC
:108C200019F048F8BE2D15DA18207249087072A1A3
:108C3000012005F0FBFBE8B204F01EFE73488078CB
:108C40007349087471484178714841746F480178DC
:108C50006F48817467480078102815DA65490878EC
:108C6000C10F091849104900411A06D0112018F007
:108C7000D3FF132018F0D0FF32E0112019F01AF8BA
:108C8000132019F017F82BE05A480078182823DA37
:108C900058490878C10F091849104900411A0DD0E8
:108CA000102018F0B9FF132019F004F8002111204A
:108CB00018F04CFF192018F0AFFF11E0102018F049
:108CC000ABFF132018F0F6FF0021112018F03EFF33
:108CD000192018F0EFFF03E018F066FC16F0FCFD19
:108CE000444800780C2829DB42480078102825DA0F
:108CF000002015F0BDFEC4B2372C17DB412C15DC6B
:108D000044A1012005F092FB204604F0B5FD3F4848
:108D100081783F4801753D4841783D4841753B4861
:108D200001783B4881758021817733E03EA10120A5
:108D300005F07CFB18202F4908702BE02D480078A7
:108D4000122827DB2B480078182823DA002015F09A
:108D50008FFEC4B2372C16DB412C14DC37A1002067
:108D600005F064FB204604F087FD284880782849F8
:108D7000087126484078487124480078887180211D
:108D80002348817306E028A1002005F04FFB18203E
:108D9000184908700A480078C007C00F002808D199
:108DA00005F0D8FE0648007840084000401C044901
:108DB00008700A200D490870012007F039FA70BDCB
:108DC000E821002020436865636B48656172747216
:108DD000617465200000000020202020202E2E2E0F
:108DE0002E2E2E202020202000000000D121002047
:108DF0002B240020CB23002020202020205858584E
:108E0000585858582020202000000000BD21002084
:108E1000102E00204852483D2020202020202020D5
:108E200020202020000000002020202058585858E2
:108E300058585820202020200000000048524C3D67
:108E400020202020202020202020202000000000A2
:108E50009E480078C009002816D19D480078C009B6
:108E6000002811D19A48C0788007C00F00280BD184
:108E7000984800888005C00F002805D195480088D3
:108E80004005C00F002800D0704793480078322872
:108E900004DA91480078401C8F4908708E480078A9
:108EA000192830DC8D4840783F282CDD8B484078ED
:108EB000702828DA894800786E2824DD87480078F1
:108EC000912820DA8548807842281CDD8348807804
:108ED000802818DA82480078002814D18148007868
:108EE000401C804908700846007801280BDD0120ED
:108EF0007D49087002207D4908700120784908707A
:108F00000020784908707548007864281CDD734893
:108F10000078962818DA71484078932814DD6F4855
:108F20004078D92810DA6D48807864280CDD6B48C9
:108F30008078962808DA0020694908706C49087022
:108F400068490870644908706448007893281CDDFB
:108F500062480078D92818DA60484078642814DD1F
:108F60005E484078962810DA5C48807864280CDDEA
:108F70005A488078962808DA0020594908705C49D8
:108F800008705849087054490870544800782828D7
:108F90001CDD524800786E2818DA50484078642862
:108FA00014DD4E484078962810DA4C4880786428C2
:108FB0000CDD4A488078962808DA00204849087075
:108FC0004B49087047490870434908704648007883
:108FD000002819D04748C078172803DA4548C078D8
:108FE000052807DC44480078002803D1434800786E
:108FF000002809D100203C49087041480078082128
:10900000884308303E49087031480078C007C00FD7
:10901000002854D02E4880788006C00F00284ED1FA
:109020002E48407896281DDD36480078401C35498A
:10903000087035480078002817D0084600780328C3
:1090400013DD2F4840782021884320302C49487078
:1090500000202D4908702D480078042188432B49B1
:10906000087002E00020274908701C480078AA28F0
:1090700003DC1A4800785F281DDA25480078401C78
:10908000234908702048007800281DD00846007841
:10909000052819DD1A4840782021884320301849D6
:1090A0004870002018490870184800780421884347
:1090B0001649087008E000201549087004E00020F7
:1090C000104908701249087000BFDDE61C2400201A
:1090D000E8210020382400209120002000240020D6
:1090E0008E200020902000208C2000208D20002049
:1090F0008F200020A6200020D8240020D924002082
:10910000B3200020D5230020D72400202B240020CA
:10911000D62300202F480078C00900280AD12E4805
:109120000078C009002805D12B48C0788007C00FFF
:10913000002800D07047294840788C280EDD284848
:10914000007800280AD1254800785A2806DD2348EF
:109150000078A02802DA0120214908701F484078D1
:109160003F2831DD1D48407870282DDA1B480078F3
:109170006E2825DD19480078912821DA1748807873
:10918000422819DD15488078802815DA15480078BE
:1091900000281CD1012013490870114800780028CC
:1091A00015D0114800780821884308300E4908700E
:1091B00000200B490870BDE700200A49087006E04E
:1091C00000200849087002E000200649087000BF2E
:1091D000B0E700001C240020E8210020002400202B
:1091E000D8230020D7230020B32000201FB5002063
:1091F00004E000216A461154411CC8B21028F8DB73
:1092000001206946487310236A46F72109030220AA
:109210000CF0F2F901236A46024902200CF030FA00
:109220001FBD000010700F002021C2000B4B99548D
:10923000C200D2185170C200D2189170C200D21868
:10924000D170C200D2181171C200D2185171C2007F
:10925000D2189171C200D218D1717047102E00201F
:1092600020220A214143134B5A540A214143C91871
:109270004A700A214143C9188A700A214143C9181A
:10928000CA700A214143C9180A710A214143C91809
:109290004A710A214143C9188A710A214143C918F8
:1092A000CA710A214143C9180A720A214143C918E7
:1092B0004A727047302E0020F7B50E46154600243E
:1092C000002736E000980BF0B6FF30460BF08AFF1F
:1092D0002878203807010F2018F0A6FC002406E0AB
:1092E0003919164A505C0DF066FD601CC4B2082C9A
:1092F000F6DB0F2018F0E6FC0099491CC8B20BF011
:109300009AFF30460BF06EFF0F2018F08DFC0824FA
:1093100006E03919094A505C0DF04DFD601CC4B2DD
:10932000102CF6DB0F2018F0CDFC6D1C30460830F9
:10933000C6B228780028C5D1FEBD000060710300C8
:10934000F8B505460E4617460024042D01DB072D0F
:1093500000DDF8BD702E00DDFBE728460BF06BFF4B
:1093600030460BF03FFF0F2018F05EFC002404E0B5
:10937000385D0DF020FD601CC4B2102CF8DB0F200E
:1093800018F0A0FC691CC8B20BF055FF30460BF07A
:1093900029FF0F2018F048FC102404E0385D0DF080
:1093A0000AFD601CC4B2202CF8DB0F2018F08AFCE8
:1093B00000BFCEE710B50020FFF736FF0120FFF712
:1093C00033FF0220FFF730FF0320FFF72DFF25209A
:1093D000214948712620887127211F484172282180
:1093E00081721E480078002808D121211A48417551
:1093F0002221817523214176242181761848007825
:10940000C007C00F002808D105F0A4FB144800785D
:1094100040084000401C124908700D201149087096
:10942000012007F041F900200F4988700F4840786B
:109430000E49C97840184006000E0B4908700120FB
:10944000487007480078402188430549087001208A
:10945000800313F0FFFE10BD102E00206D3B002096
:10946000E8210020D1210020323B00206A24002086
:1094700010B50020FFF7D8FE0120FFF7D5FE02202F
:10948000FFF7D2FE0320FFF7CFFE17480078C00792
:10949000C00F002808D105F05DFB13480078400894
:1094A0004000401C10490870012007F03FFB0020DD
:1094B0000E4988700E480078102188430C490870C6
:1094C000C8200A49087001204870074800784021E8
:1094D0008843054908700E20064908700120800362
:1094E00013F0B8FE10BD0000E8210020323B002040
:1094F0001C240020D1210020F0B587B000240827CB
:109500000A2006900020049003900290019000260B
:10951000D8E27001FA494518A87A042800D1CFE2B0
:10952000F8484078B0427DD1F648007AF64909788B
:10953000884205DCF348C07A401CF249C872ABE2AD
:10954000F048007AF1490978884237DAED48807AA4
:10955000EC49497A4118EB48007A42008018401CD7
:1095600081420FDCE748807AE64948720846007A73
:1095700088720120E64908700020E24908730872E9
:10958000C87289E27001DE494018407932280FDD47
:10959000DC48807ADB4948720846007A88720120EC
:1095A000DB4908700020D74908730872C87273E25B
:1095B000D448C07A401CD349C8726DE2D148007AC1
:1095C000D449097888420FDACE48807ACD4948726A
:1095D0000846007A88720120CD4908700020C949E8
:1095E00008730872C87257E2C648007ACA490978F7
:1095F00088422EDAC348C07A002818DD7001C049BD
:1096000040184079322812DDBE48007B401CBD491D
:1096100008730846007A401088720846007A4010A5
:10962000487200E043E10220B94908700CE0B548F7
:10963000807AB44948720846007A88720120B44999
:1096400008700020AF4908730020AE490872C87244
:1096500022E2AC48007AB1490978884247DAA94841
:10966000C07A002816DD7001A549401840791E28EF
:1096700010DDA448007B401CA24908730846007A0C
:10968000401088720846007A401048720220A049B3
:10969000087027E09B48807A9A49497A411899488E
:1096A000007A801C814210DC9648007B401C954962
:1096B00008730846007A401088720846007A401005
:1096C00048720220924908700CE08E48807A8D49D9
:1096D00048720846007A887201208D49087000207F
:1096E00088490873002087490872C872D4E1854808
:1096F000007A8B49097888424FDA8248807AB842EA
:1097000010DA01208249087000207E49087308465B
:10971000807A097A401840107A4948720846407A9F
:10972000887235E07748807A7649497A41187548D9
:10973000007A001D814203DD7248C07A00281BDDDB
:109740007048007B401C6F4908730020C8720846AF
:10975000007B022803DB0C208872487208E069480D
:10976000007A4010674988720846007A40104872B3
:109770000220674908700BE001206549087000204D
:10978000604908730846807A48720846007A8872F1
:1097900000205C490872C8727EE15A48007A61492B
:1097A0000978884260DA00200590002411E0295DE4
:1097B0000698814203DD0598401CC0B20590681DE3
:1097C000005D0A2803DA0598401CC0B20590601CB1
:1097D000C4B2052CEBDB0598052802DB00204949C3
:1097E00088704848807800281FD14649087208468A
:1097F000477287720020C8720873002410E00020AE
:109800003F49085500213E48203001552030015580
:109810003B3801552030015520300155601CC4B241
:10982000052CECDB0420A87236E1022038490870D0
:109830003448007B401C334908730846007B0228EB
:1098400003DB0C208872487208E02E48007A401032
:109850002C4988720846007A401048720020294935
:109860000872C872087317E1002026498870002426
:1098700010E00020224908550021214820300155E0
:10988000203001553B38015520300155203001551D
:10989000601CC4B2052CECDB1A48477287720420A6
:1098A000A87200201749C87208730872F4E01548BE
:1098B000007A1C490978884236DD002011498870F9
:1098C000002410E000200E49085500210C482030EB
:1098D0000155203001553B380155203001552030CD
:1098E0000155601CC4B2052CECDB0420A8720548AD
:1098F0004772877200200349C87208730872BDE07E
:1099000062280020C4280020562000205520002076
:109910004D20002054200020532000205220002001
:1099200051200020502000206948007A0428E6DDFC
:1099300000200390019000240DE0285D002808DD40
:10994000681D015D039808180390295D01980818A7
:109950000190601CC4B2052CEFDB0198002801D1F6
:10996000059005E001990398FCF7F0FBC0B2059063
:1099700000200190039001241BE0554840784001ED
:1099800054494018005D002811DD514840784001DD
:109990004018401D015D0398081803904C4840781A
:1099A00040014C494018015D019808180190601C65
:1099B000C4B2052CE1DB0198002801D1049005E038
:1099C00001990398FCF7C2FBC0B204900499059872
:1099D000884223DDE87D3E49497849013D4A89189E
:1099E000C97D884215DDE87D0A2812DD3848007AF5
:1099F0000A280BDD0120384908703548807A34493F
:109A000048720846007A8872002008723048467012
:109A100034E02F4840782E4948702FE0E97D2C48EB
:109A2000407840012B4A8018C07D001D814221DD15
:109A3000E87D12281EDDE87D1F281BDA24484078C7
:109A4000400111464018C07D0E2813DA2048007AE4
:109A50000A280CDD1E480078401C1D490870084685
:109A6000807A48720846007A887200200872184886
:109A7000467003E01648407815494870002409E014
:109A8000700114494018401D015D029808180290A9
:109A9000601CC4B2052CF3DB042409E0601E285CC2
:109AA0002855601E691D095C681D0155601EC4B201
:109AB000002CF3DC0020287068710420A87200BF1D
:109AC000701CC6B2032E00DA23E507B0F0BD00001B
:109AD000C4280020622800204D200020FCB5074645
:109AE0000E46002001901420009070018F49441808
:109AF00067738F480078022801D10A200090607BAC
:109B0000217B884243DDA07B002830D1A07F032841
:109B100011DA217B207FFDF7A4FF0F280BDAE07E0E
:109B2000401CE076217B207FFDF79BFF052802DAB1
:109B3000E07E401CE0760020A077207B607701204B
:109B4000A073207C217B884203DD20460DF030FB92
:109B5000D3E0E07C042803DB20460DF029FBCCE0B9
:109B6000607C0428F4DB20460DF022FBC5E00120D8
:109B7000A073E07C6F4909788842E9DD20460DF04A
:109B800011FB0020207520460DF012FBB5E0607B34
:109B9000217B88420ED1E07C664909788842D7DD76
:109BA00020460DF0FFFA00202075A07320460DF02E
:109BB000FFFAA2E0002500200190A07B01286ED1D1
:109BC000A07F032811DA217B607FFDF74AFF0F2871
:109BD0000BDAE07E401CE076217B607FFDF741FFE1
:109BE000052802DAE07E401CE0760020A077207B8A
:109BF00020770020A073207B217C884204DD207B1D
:109C0000217C401AC5B200E00025207B052874DDC8
:109C10000A2D14DD48480078401C47490870474821
:109C200000884749081AA84204DA0020C043434983
:109C3000088004E041480088401940490880242DEC
:109C400005DD032120460DF029FA01903FE0182D93
:109C500005DD052120460DF05FFA019037E0102D5B
:109C600005DD062120460DF057FA01902FE00C2D5E
:109C700005DD072120460DF04FFA019027E00A2D5F
:109C800005DD082120460DF047FA01901FE0092D5F
:109C900006DD092120460DF03FFA019017E01BE098
:109CA000082D05DD0A2120460DF036FA01900EE060
:109CB000E17C0098814203DD20460DF073FA06E056
:109CC000207BE17B884202DD20460DF06BFA019893
:109CD000012812D1A67210E0E07C1649097888426A
:109CE00009DD20460DF05EFA0020A07320752046A5
:109CF0000DF05EFA01E00020A073607C401C6074EF
:109D0000A07C401CA074E07C401CE074207D401CC2
:109D10002075207D0B4909784900884202DD0948F9
:109D200000782075607B2073FCBD00006228002055
:109D30005820002051200020C6230020C8230020E6
:109D4000FFFF00005020002000203949097E491CF7
:109D5000374A117611462031097E491CCAB234496E
:109D600020310A762031097E491CCAB2304940317F
:109D70000A763049097A491C2E4A117211464968FF
:109D8000491C516011464A682B4909780A235943F6
:109D90008A4216D92649897D254AD1751146203136
:109DA0008A7DCA7520318A7DCA750021204A917545
:109DB00000221F4920318A7520318A7500211D4AF1
:109DC00051601C49097A1C4A12785300D2189142FA
:109DD0002DDD18498978012929D10021154A917072
:109DE0001172D1721173102151729172002010E022
:109DF00000210F4A115400220D4920310A5420310C
:109E00000A543B390A5420310A5420310A54411C67
:109E1000C8B20528ECDB0421054A917204220449EA
:109E200020318A7220318A720A21044A11707047E7
:109E300062280020C42800204F2000205720002046
:109E400010B50024C248C078C1498978884206DD2F
:109E5000BF48C078BE498978401AC4B205E0BC4802
:109E60008078BB49C978401AC4B2052C03DD0020B4
:109E7000B849087037E0B848C078B749897888424F
:109E800006DDB548C078B4498978401AC4B205E007
:109E9000B1488078B049C978401AC4B2062C03DDB5
:109EA0000020AC4908701EE0AC48C078AB49897806
:109EB000884206DDA948C078A8498978401AC4B20A
:109EC00005E0A6488078A549C978401AC4B2062C96
:109ED00003DD00209F49087005E09E480078401C83
:109EE0009C49087000BF9E48407D9E490978884281
:109EF00054DD9B48807A002850D19948407E98498B
:109F0000497D884210D19648407D9749097888421A
:109F10000ADA00200AF078FF00280ADD9048807EE7
:109F2000401C8F49887604E000208D4988768F494F
:109F300008728B48807E8E49097888422EDD012088
:109F40008A498870084600788549897E4018874983
:109F5000087000208249887600218148203081766F
:109F60002030817600208149087204240BE0601EB5
:109F70007B49085C0855601E491D095C7848401DF6
:109F80000155601EC4B2002CF1DC00207449087039
:109F9000487176494870092075490870704820302A
:109FA000407D70490978884260DD6D482030807AB4
:109FB00001285BD16A482030417E407D814214D126
:109FC00067482030407D6849097888420DDA0120D1
:109FD0000AF01AFF00280FDD61482030807E401C07
:109FE000C1B25F482030817606E000215C48203015
:109FF000817600205D49087259482030807E5C4996
:10A000000978884232DD0120584988700846017875
:10A0100053482030807E0818544908700020504969
:10A02000887600214E4820308176203081760020CD
:10A030004E49087204240CE0601E49492031095C35
:10A04000474820300155611E401D415C0155601E8E
:10A05000C4B2002CF0DC0021414820300170417175
:10A060000120424948700920414908703C4840306D
:10A07000407D3C490978884260DD39484030807A2B
:10A0800002285BD136484030417E407D814214D168
:10A0900033484030407D3449097888420DDA022047
:10A0A0000AF0B2FE00280FDD2D484030807E401CB3
:10A0B000C1B22B484030817606E00021284840306C
:10A0C000817600202949087225484030807E284941
:10A0D0000978884232DD01202449887008460178D9
:10A0E0001F484030807E08182049087000201C4915
:10A0F000887600211A482030817620308176002031
:10A100001A49087204240CE0601E15494031095CAC
:10A11000134840300155611E401D415C0155601ED1
:10A12000C4B2002CF0DC00210D48403001704171B8
:10A1300002200E49487009200D4908700420084982
:10A14000887204210648203081722030817210BD4F
:10A1500044280020572000204E28002058280020A6
:10A16000622800205620002051200020C428002012
:10A170004C200020F3B5BFB000260025F74800882A
:10A18000F7490988884212D1F548008800280ED185
:10A190003F988078F2490880084600780006000C55
:10A1A00008803F98C07809884018ED490880EB483E
:10A1B000018840980818782807DCEA49E74A12889D
:10A1C0008818409A3F9917F074FBE448018840983A
:10A1D0000818E249088008460088E1490988884251
:10A1E00001DA41B0F0BDDF480079DF490880084658
:10A1F00000780006000C0880DA4840790988401889
:10A20000D9490880DC2105A8FCF723F8D548083097
:10A210000490D34800780838C0B23E90D2480088F5
:10A22000D24988427ED13CA83DA905AB009101905E
:10A2300002203E9A049919F0D7FDCD4908700846CE
:10A240000078002802D10EF059FDCAE738A8007D39
:10A25000002800D1C5E7002405A8005D68287DD14D
:10A26000601CC4B238A8027D111F05A812F060FA64
:10A2700006460025002009E02D0238A90A7D121F9C
:10A28000111805AA525C1543411CC8B20428F3DB1F
:10A29000AE4202D00EF032FDA3E72046611CCCB2E4
:10A2A00005A9085CB34908702046611CCCB205A919
:10A2B000085C41B26846C1702146601CC4B205A862
:10A2C000415C684681702146601CC4B205A8415CAF
:10A2D000684641702046611CCCB205A9095C6846FD
:10A2E00001702146601CC4B205A8405C41B26846BA
:10A2F000C1712046611CCCB205A9095C6846817118
:10A300002046611CCCB205A9095C68464171204613
:10A31000611CCCB205A9095C68460171C078801C3B
:10A3200041B200E078E16846C170009803F06CFA31
:10A330009149086091480089096888421BD08E487D
:10A3400000688A49491E884205D88B480068FF2169
:10A35000F531884204D28A48874900E09DE00860D0
:10A3600085480088854908818648007840218843CF
:10A370004030844908706846C079C01C41B26846C4
:10A38000C171019803F040FA7B4948607B484089DD
:10A390004968884220D0784840687B49884205D87F
:10A3A00075484068FF21F531884202D277487249EA
:10A3B0004860714880887149488149898900481DF1
:10A3C0006421FBF7D9FE6D4908736E48007840217F
:10A3D000884340306B4908702046611CCCB205A907
:10A3E000095C684601722146601CC4B205A8415C44
:10A3F00003910398010203912246601CC4B205A890
:10A40000805C039909180391039801020391224685
:10A41000601CC4B205A8805C0399091803910398D5
:10A42000010203912246601CC4B205A8805C039916
:10A4300009180391514801786846007A81420AD090
:10A440006846007A4D4908704E480078402188439C
:10A4500040304C490870494840680399884209D007
:10A460004649039848604748007840218843403077
:10A470004449087046480078102188431030444908
:10A4800008703C480078012806D14248807940088D
:10A490004000401C3F4988711DE105A8005D692806
:10A4A00041D105A9E01C085CC1004018C01C3A4914
:10A4B000087008460178491C05A812F039F90646CB
:10A4C00005A935480078401C0D5C2D023248007803
:10A4D000801C085C45192D022F480078C01C085CC0
:10A4E00045192D022C480078001D085C4519AE4224
:10A4F00002D00EF003FC74E627480078322802D917
:10A5000032202549087005A80019411C224802780C
:10A51000224817F0CEF92248006804218843001D24
:10A520001F490860D7E005A8005D6A2849D10821C5
:10A5300005A812F0FDF806466846C17F807F00023C
:10A5400009186846407F000409186846007F000625
:10A550000D18AE4226D00EF0D1FB42E69423002027
:10A5600096230020343800209E23002031750000FF
:10A57000BD23002023210020CC200020182900200A
:10A5800070170000E0200020B80B0000A4060000B7
:10A590001A2100201C240020562400203B3B0020D0
:10A5A0003824002005A80019411C0722F64817F09E
:10A5B00080F9F648006802218843801CF34908604E
:10A5C00089E005A8005D6D2825D1062105A812F0B7
:10A5D000AFF806466846417F007F000209186846CA
:10A5E000C07E000409186846807E00060D18AE4241
:10A5F00002D00EF083FBF4E505A80019411C0522EA
:10A60000E34817F056F9E1480068012149078843FB
:10A610004018DE4908605EE0DE480088DE49884276
:10A6200059D104988078102823D10498C078012843
:10A630001FD1D64800880004C00F00284BD1D34852
:10A640000068C003C00F002845D1D0480068012130
:10A65000C9028843CD490860D048007840084000CE
:10A66000CE4908700846407940218843CB4948715B
:10A6700031E00498807810282DD10498C078022801
:10A6800029D1C24800680121C90288434018BF4946
:10A690000860C248007840084000401CBF4908706C
:10A6A0000EF0B4FC0120BE490870BC48407920215E
:10A6B0008843BA4948710CF0E5FAB848007802219D
:10A6C0008843801CB549087008464079402188437A
:10A6D0004030B2494871B248007810287ED00ADC78
:10A6E00001280FD002287AD0042879D0082801D078
:10A6F00001F05AF9E0E0202873D0402872D0802879
:10A70000F6D16DE2A3480088A64988426BD1A648DD
:10A710000088A6490988884266D13CA83DA905ABB6
:10A720000091019002203E9A049919F05DFBA04926
:10A73000087008460078002802D10EF0DFFAFDE329
:10A7400038A8027D9BA105A817F09CF8012829D103
:10A750002020934908709B48007C08218843994930
:10A7600008740846007C04218843001D954908743C
:10A7700002200870400312F06DFD88480078022125
:10A780008843801C8549087000208F4908708348E1
:10A7900000794021884340308049087100208B496E
:10A7A00008807DE038A8027D89A105A817F06AF825
:10A7B000012802D117F022FC72E038A8027D87A19F
:10A7C00005A817F05FF801281FD10EF097FA864808
:10A7D0000078C00900280DD1844806E0FEE1FCE1C4
:10A7E000FDE177E1FDE163E065E08078462801DD89
:10A7F00013F0D4FB69480079402188434030674911
:10A8000008710020714908804AE038A8027D78A1CB
:10A8100005A817F037F8012804D10EF06FFA17F0E9
:10A82000E3FB3DE038A8027D74A105A817F02AF8E3
:10A8300001281ED108205A49087058480078022182
:10A840008843801C554908700846007904218843D4
:10A85000001D524908715B48407C042188435949D6
:10A8600048744E4800790821884308304B490871E4
:10A8700016E008204A4908704848007802218843B9
:10A88000801C464908704F48407C042188434D494C
:10A890004874424800790821884308303F490871CC
:10A8A00059480088401C584908800EF0BFFA02E061
:10A8B00001205649087042E7364800883949891C0A
:10A8C000884260D13CA83DA905AB009101900F20C2
:10A8D0003E9A049919F088FA3549087008460078BC
:10A8E000002802D10EF00AFA29E700204849086042
:10A8F00000240AE005A8005DE10088404449096899
:10A90000401843490860601CC4B238A8007D8442E6
:10A91000F0DB40480068404988420ADA3C48006859
:10A92000884206D9304840798021884380302E49BA
:10A93000487137480068384988426FD93448006800
:10A940003449086038A8007C04990918049138A893
:10A95000007C3E99081AC1B23E913CA83DA905ABC6
:10A960000091019010203E9A049919F03DFA104987
:10A97000087008460078002802D10EF0BFF9DEE624
:10A980000027002452E0A1E04124002038240020C8
:10A990003C2400209E23002033750000E02000208E
:10A9A000E8200020214E0000962300209423002060
:10A9B000BD230020666163746F7279206D6F6465DA
:10A9C00000000000AC3A0020B1210020DE20002071
:10A9D000757064617465206D6F646500746573746F
:10A9E000206D6F64650000001C24002000240020FE
:10A9F000636865636B206D6F6465000070616972E8
:10AA0000206D6F64650000009A230020EB20002079
:10AA1000EC20002074290020805AC35219E005A8B8
:10AA2000005DE1008840C719601CC4B238A8007DF1
:10AA30008442F4DBFE4900200856B84208D078B2C0
:10AA40000870FC48C07804218843001DF949C8708B
:10AA500003E0F9480068F8490860F6484079800644
:10AA6000C00F00281AD10120F4490870F14840793C
:10AA700040218843EF4948710846407802218843C5
:10AA8000801CEC49487008464079202188432030DA
:10AA9000E84948710420EA4908700FE0E548407928
:10AAA00020218843E34948714020E5490870E14886
:10AAB000007802218843801CDE490870E148008844
:10AAC000401CE04908800EF0B1F902E00420DE49A4
:10AAD000087034E6DD480088DD49884200D02EE663
:10AAE0003CA83DA905AB0091019002203E9A049933
:10AAF00019F07AF9D749087008460078002802D181
:10AB00000EF0FCF81BE600242146641C05A8405CFE
:10AB1000622861D1CD480088CD49884259D108A822
:10AB2000417E007E0002091808A8C07D00040918B3
:10AB300008A8807D00060D18222105A811F0F8FD57
:10AB4000064638A8007D262804D00EF0D7F813F06A
:10AB500025FA36E0B54206D0B6480078042188438D
:10AB6000B44908702DE0002008E02146621CD4B2F0
:10AB700005AA515CB84A1154411CC8B20F28F4DB35
:10AB8000002008E02146621CD4B205AA515CB34AF9
:10AB90001154411CC8B20C28F4DB002008E0214607
:10ABA000621CD4B205AA515CAD4A1154411CC8B212
:10ABB0000628F4DB9F4800788021884380309D4937
:10ABC0000870A0480088401C9E4908800EF02EF9AD
:10ABD00002E001209C490870B1E500BF00BF00BF42
:10ABE00000BF9A4800889A49884200D0A7E53CA84F
:10ABF0003DA905AB0091019002203E9A049919F0FD
:10AC0000F3F89449087008460078002802D10EF045
:10AC100075F894E538A8007D002800D18FE5002460
:10AC200005A8005D50287DD1601CC4B2874800880B
:10AC30008749884277D138A8007D011F05A811F007
:10AC400077FD06460025002009E02D0238A90A7D7F
:10AC5000121F111805AA525C1543411CC8B20428E2
:10AC6000F3DBAE4202D00EF049F844E42046611C0A
:10AC7000CCB205A9085C7B49086008460068000260
:10AC80002146621CD4B205AA515C4018754908607F
:10AC90000846006800022146621CD4B205AA515C35
:10ACA0004018704908600846006800022146621C8E
:10ACB000D4B205AA515C40186A4908602046611C5C
:10ACC000CCB205A9085C41B26846C1702146601C3F
:10ACD000C4B205A8415C684681702146601CC4B2BC
:10ACE00005A8415C684641702146601CC4B205A8B5
:10ACF000415C684601702146601CC4B205A8405CF6
:10AD000041B26846C1712046611CCCB205A9095CFC
:10AD1000684681712046611CCCB205A9095C684671
:10AD2000417101E03DE138E12046611CCCB205A94A
:10AD3000095C68460171C078801C41B26846C170E8
:10AD4000009802F061FD4849086048480089096898
:10AD5000884218D0444800684549884205D842488E
:10AD60000068FF21F531884202D242483E4908601E
:10AD70003D4800883D4908812E480078402188439D
:10AD800040302C4908706846C079C01C41B2684602
:10AD9000C171019802F038FD334948603348408959
:10ADA0004968884220D0304840683349884205D8F5
:10ADB0002D484068FF21F531884202D22F482A49A8
:10ADC0004860294880882949488149898900481D67
:10ADD0006421FBF7D1F92549087316480078402112
:10ADE00088434030134908702046611CCCB205A945
:10ADF000095C684601722046611CCCB205A9095C59
:10AE000003910398010203912146621CD4B205AA62
:10AE1000515C039841180391039801020391214664
:10AE2000621CD4B205AA515C03984118039127E033
:10AE3000F0200020E0200020EC200020A4210020B1
:10AE4000E82000209A230020EB2000209E230020F1
:10AE5000224E0000BD2300206C2A00207B2A002007
:10AE6000D5200020C8200020CC2000201829002058
:10AE70003075000070170000B80B0000A406000039
:10AE80000398010203912146621CD4B205AA515CC9
:10AE90000398411803912146601CC4B205A8405C88
:10AEA000FE49086008460068000208602046611CF0
:10AEB000CCB205A9085CF94909684018F74908604F
:10AEC00008460068000208602046611CCCB205A953
:10AED000085CF24909684018F0490860F0480178B8
:10AEE0006846007A81420AD06846007AEC490870C8
:10AEF000EC480078402188434030EA490870E8482F
:10AF000040680399884209D0E54903984860E548BC
:10AF10000078402188434030E24908702046611C97
:10AF2000CCB205A9085CE049087008460078012801
:10AF300008D1DE4880794008400000E0E6E3401C8C
:10AF4000DA498871601CC4B205A801190522D848E5
:10AF500016F0AFFCD64808F08FFD601DC4B2D14892
:10AF6000407940218843CF4948710420D149087075
:10AF70001420D1490870D14908700120D0490870C7
:10AF80001420D049087018F039FCCF480088401CC4
:10AF9000CD4908800DF04AFF46E20220CB490870F7
:10AFA000FAE7CB480068C000C00F002864D105A8AC
:10AFB000005D572860D1601CC4B2C6480088C649ED
:10AFC000884253D1C5488079C54908800846007831
:10AFD0000006000C0880C148C07909884018C049A3
:10AFE00008802046611CCCB205A90F5C022105A88F
:10AFF00011F09EFB06466846417E007E000209185D
:10B000006846C07D000409186846807D00060D185A
:10B01000012F1DD1B5421BD1A248007804218843DD
:10B02000A0490870AE480088AE4908809F488079E2
:10B030000821884308309D498871AB480088A94998
:10B040000988884215D1A8480088A849088010E0DE
:10B05000944800780421884392490870A4480088E5
:10B06000A44909884018A249088002E003209749B2
:10B0700008700DF0DBFE8FE795480068C000C00F38
:10B08000002860D105A8005D51285CD1601CC4B2C5
:10B0900090480088904988424FD1904880799049E3
:10B0A0000880084600780006000C08808B48C079AC
:10B0B000098840188A4908802046611CCCB205A93D
:10B0C0000F5C022105A811F033FB06466846417E5D
:10B0D000007E000209186846C07D00040918684611
:10B0E000807D00060D18012F20D1B5421ED16D487C
:10B0F0000078042188436B490870794800887949B1
:10B1000008806A4880790821884308306749887137
:10B110007948008873490988884211D176480088A7
:10B120007649088000207649087009E05D4800787B
:10B13000042188435B49087002E0032063490870DA
:10B140000DF074FE28E762480068C000C00F0028B8
:10B1500060D105A8005D52285CD1601CC4B25D4876
:10B1600000885D4988424FD15C4880795C490880FD
:10B17000084600780006000C08805848C079098805
:10B180004018574908802046611CCCB205A90F5CC5
:10B19000022105A811F0CCFA06466846417E007EE1
:10B1A000000209186846C07D000409186846807DC1
:10B1B00000060D18012F20D1B5421ED13948007864
:10B1C000042188433749087045480088454908806C
:10B1D00036488079082188430830344988714948C5
:10B1E000008840490988884211D14648008846496C
:10B1F000088000204549087009E02A4800780421A9
:10B2000088432849087002E00320304908700DF097
:10B210000DFEC8E32E480068C000C00F002877D19B
:10B2200005A8005D532873D1601CC4B2294800886A
:10B23000294988426DD129488079294908800846E2
:10B2400000780006000C08802448C079098840185E
:10B25000234908802046611CCCB205A90F5C02215D
:10B2600005A811F065FA06466846417E007E000298
:10B2700009186846C07D000409186846807D0006EC
:10B280000D18012F5DD1B5425BD10648007804212D
:10B29000884304490870124800883BE024210020BC
:10B2A00018290020E0200020232100201C24002059
:10B2B0003C240020E8200020E6200020E720002099
:10B2C000A4210020222100209A230020EB2000202E
:10B2D000382400209E230020224E00003438002015
:10B2E00098230020A82100209E210020A0210020DA
:10B2F0002021002014210020962100209A210020E6
:10B30000982100207E210020822100208021002021
:10B3100024E01DE0FE490880FE488079082188432A
:10B320000830FC498871FC480088F949098888423E
:10B3300011D1F9480088F94908800020F8490870BF
:10B3400009E0F848007804218843F649087002E0D3
:10B350000320F54908700DF069FD24E3F348006807
:10B36000C000C00F002860D105A8005D54285CD142
:10B37000601CC4B2EE480088EE4988424FD1EE48C6
:10B380008079EE490880084600780006000C0880A5
:10B39000E948C07909884018E84908802046611CBE
:10B3A000CCB205A90F5C022105A811F0C1F906462F
:10B3B0006846417E007E000209186846C07D000490
:10B3C00009186846807D00060D18012F20D1B5426E
:10B3D0001ED1D448007804218843D2490870D74848
:10B3E0000088CB490880CB48807908218843083001
:10B3F000C8498871D2480088C5490988884211D156
:10B40000CF480088CF4908800020CF49087009E064
:10B41000C448007804218843C249087002E0032030
:10B42000C14908700DF002FDBDE2C0480068C000CF
:10B43000C00F00287ED105A8005D5528FAD1601CF8
:10B44000C4B2BB480088BB49884274D12046611C05
:10B45000CCB205A9085CBD49086008460068000236
:10B460002146621CD4B205AA515C4018B749086055
:10B470000846006800022146621CD4B205AA515C4D
:10B480004018B24908600846006800022146621C64
:10B49000D4B205AA515C4018AC4908602046611C32
:10B4A000CCB205A9085C41B26846C1702046611C57
:10B4B000CCB205A9095C684681702146601CC4B203
:10B4C00005A8415C684641702146601CC4B205A8CD
:10B4D000415C684601702046611CCCB205A9085C3D
:10B4E00041B26846C1712046611CCCB205A9095C15
:10B4F000684681712046611CCCB205A9095C68468A
:10B5000041712046611CCCB205A9095C68460171F5
:10B51000C078801C41B26846C170009802F074F98E
:10B520008B4908608B480089096888421BD088488D
:10B53000006801E02CE125E18749884205D884486C
:10B540000068FF21F531884202D2844880490860B2
:10B550007F4800887F4908817248007840218843ED
:10B560004030704908706846C079C01C41B26846D6
:10B57000C171019802F048F97549486075484089E1
:10B580004968884220D0724840687549884205D889
:10B590006F484068FF21F531884202D271486C49FA
:10B5A00048606B4880886B49488149898900481DFB
:10B5B0006421FAF7E1FD674908735A480078402191
:10B5C00088434030574908702046611CCCB205A919
:10B5D000095C684601722146601CC4B205A8415C42
:10B5E00003910398010203912146621CD4B205AA7B
:10B5F000515C03984118039103980102039121467D
:10B60000621CD4B205AA515C0398411803910398B7
:10B61000010203912146621CD4B205AA515C039831
:10B62000411803912046611CCCB205A9085C4E4923
:10B63000086008460068000208602046611CCCB221
:10B6400005A9085C48490968401847490860084648
:10B650000068000208602046611CCCB205A9085CA5
:10B66000414909684018404908603A4801786846ED
:10B67000007A81420AD06846007A36490870294823
:10B68000007840218843403026490870314840689E
:10B690000399884209D02F490398486021480078CF
:10B6A0004021884340301F4908702046611CCCB2BD
:10B6B00005A9085C2D49087008460078012806D1C4
:10B6C0001448807940084000401C12498871214686
:10B6D00005A811F02DF806462046611CCCB205A93C
:10B6E0000D5C2D022046611CCCB205A9085C4519F1
:10B6F0002D022046611CCCB205A9085C45192D021B
:10B700002046611CCCB205A9085C31E04DE1000087
:10B71000A82100201C240020862100208A2100204E
:10B7200088210020E0200020EB2000203824002089
:10B730009E230020224E0000343800209823002051
:10B740008E2100209221002090210020C82000207E
:10B75000CC20002018290020307500007017000050
:10B76000B80B0000A40600002421002023210020A3
:10B770004519AE4205D09348007804218843914989
:10B78000087002E00320904908700DF04FFB0AE1B9
:10B7900005A8005D61287AD18C4800888C498842D0
:10B7A00026D105A9601C085C682822D1E01C0F5C2A
:10B7B000042105A810F0BCFF06466846C17E807EC5
:10B7C000000209186846407E000409186846007E99
:10B7D00000060D18012F05D0AE4203D00DF08EFAF1
:10B7E000FEF7FFFC7B4800781021884379490870F8
:10B7F000A6E005A9601C085C692828D1E01C0F5C44
:10B80000042105A810F094FF06466846C17E807E9C
:10B81000000209186846407E000409186846007E48
:10B8200000060D18012F04D0AE4202D00DF066FACA
:10B83000D6E705A9A01C085C012807D16648007856
:10B8400001287DD16448401C08F068F878E005A91B
:10B85000601C085C6A2850D1E01C0F5C042105A81C
:10B8600010F066FF06466846C17E807E0002091819
:10B870006846407E000409186846007E00060D18E0
:10B88000012F05D0AE4203D00DF038FAA8E760E0F2
:10B8900007F0A6FB07F034FD06F0FEFF05A9601CCB
:10B8A000085C012809D14D480078012822D14C4973
:10B8B0004A48401C08F000F91CE005A9601C085C1F
:10B8C000022809D147480078022813D14449454845
:10B8D000401C08F0F1F80DE005A9601C085C032885
:10B8E00008D141480078032804D140493E48401C13
:10B8F00008F0E2F808F082FF22E005A9601C085C6D
:10B900006D281DD1A01C0F5C032105A810F010FFAD
:10B9100006466846817E407E000209186846007E21
:10B92000000409186846C07D00060D18012F04D0D8
:10B93000AE4202D00DF0E2F952E72D4808F09CF833
:10B9400020480078042188431E4908700DF06EFAE3
:10B9500029E005A8005D632825D1601CC4B202213E
:10B9600005A810F0E5FE06466846417E007E00020E
:10B9700009186846C07D000409186846807D0006E5
:10B980000D18B54206D00F480078042188430D49B0
:10B99000087025E70D4800880D49884201D103F061
:10B9A000A5F80DF043FA00E000BF00BFDC2111480C
:10B9B000FAF74FFC0020104908801049088000BFAA
:10B9C0000EE70000E0200020EB2000209E23002056
:10B9D000224E00001A2100203B3B00204124002081
:10B9E0006A240020482400204F24002078240020CE
:10B9F0003C2400203438002096230020942300208B
:10BA0000FFB583B005460E46144600200190082E6F
:10BA100000DD0826102C07D13046F10F0918491017
:10BA20004919C9B2019104E0082C02D17019C0B2C1
:10BA30000190029548E0069809F0FDFB0299491B28
:10BA400061430C9A8918C8B209F0CCFB0E98C0006B
:10BA5000204941180298085C2038604341000D9845
:10BA6000081800900F2016F0DFF8002705E0009975
:10BA7000C85D0BF0A0F9781CC7B2A742F7DB0F2016
:10BA800016F020F90699491CC8B209F0D4FB0299B6
:10BA9000491B61430C9A8918C8B209F0A3FB0F2017
:10BAA00016F0C2F8274605E00099C85D0BF083F94F
:10BAB000781CC7B26000B842F6DC0F2016F002F91D
:10BAC0000298401CC0B20290019902988842B2DBF1
:10BAD00007B0F0BD102E0020FFB583B00646144617
